{"abi":[{"type":"constructor","inputs":[],"stateMutability":"nonpayable"},{"type":"function","name":"DOMAIN_SEPARATOR","inputs":[],"outputs":[{"name":"","type":"bytes32","internalType":"bytes32"}],"stateMutability":"view"},{"type":"function","name":"UPGRADE_INTERFACE_VERSION","inputs":[],"outputs":[{"name":"","type":"string","internalType":"string"}],"stateMutability":"view"},{"type":"function","name":"allowance","inputs":[{"name":"owner","type":"address","internalType":"address"},{"name":"spender","type":"address","internalType":"address"}],"outputs":[{"name":"","type":"uint256","internalType":"uint256"}],"stateMutability":"view"},{"type":"function","name":"approve","inputs":[{"name":"spender","type":"address","internalType":"address"},{"name":"value","type":"uint256","internalType":"uint256"}],"outputs":[{"name":"","type":"bool","internalType":"bool"}],"stateMutability":"nonpayable"},{"type":"function","name":"balanceOf","inputs":[{"name":"account","type":"address","internalType":"address"}],"outputs":[{"name":"","type":"uint256","internalType":"uint256"}],"stateMutability":"view"},{"type":"function","name":"burn","inputs":[{"name":"account","type":"address","internalType":"address"},{"name":"value","type":"uint256","internalType":"uint256"}],"outputs":[],"stateMutability":"nonpayable"},{"type":"function","name":"decimals","inputs":[],"outputs":[{"name":"","type":"uint8","internalType":"uint8"}],"stateMutability":"view"},{"type":"function","name":"eip712Domain","inputs":[],"outputs":[{"name":"fields","type":"bytes1","internalType":"bytes1"},{"name":"name","type":"string","internalType":"string"},{"name":"version","type":"string","internalType":"string"},{"name":"chainId","type":"uint256","internalType":"uint256"},{"name":"verifyingContract","type":"address","internalType":"address"},{"name":"salt","type":"bytes32","internalType":"bytes32"},{"name":"extensions","type":"uint256[]","internalType":"uint256[]"}],"stateMutability":"view"},{"type":"function","name":"initialize","inputs":[{"name":"initialOwner","type":"address","internalType":"address"}],"outputs":[],"stateMutability":"nonpayable"},{"type":"function","name":"mint","inputs":[{"name":"to","type":"address","internalType":"address"},{"name":"amount","type":"uint256","internalType":"uint256"}],"outputs":[],"stateMutability":"nonpayable"},{"type":"function","name":"name","inputs":[],"outputs":[{"name":"","type":"string","internalType":"string"}],"stateMutability":"view"},{"type":"function","name":"nonces","inputs":[{"name":"owner","type":"address","internalType":"address"}],"outputs":[{"name":"","type":"uint256","internalType":"uint256"}],"stateMutability":"view"},{"type":"function","name":"owner","inputs":[],"outputs":[{"name":"","type":"address","internalType":"address"}],"stateMutability":"view"},{"type":"function","name":"permit","inputs":[{"name":"owner","type":"address","internalType":"address"},{"name":"spender","type":"address","internalType":"address"},{"name":"value","type":"uint256","internalType":"uint256"},{"name":"deadline","type":"uint256","internalType":"uint256"},{"name":"v","type":"uint8","internalType":"uint8"},{"name":"r","type":"bytes32","internalType":"bytes32"},{"name":"s","type":"bytes32","internalType":"bytes32"}],"outputs":[],"stateMutability":"nonpayable"},{"type":"function","name":"proxiableUUID","inputs":[],"outputs":[{"name":"","type":"bytes32","internalType":"bytes32"}],"stateMutability":"view"},{"type":"function","name":"renounceOwnership","inputs":[],"outputs":[],"stateMutability":"nonpayable"},{"type":"function","name":"symbol","inputs":[],"outputs":[{"name":"","type":"string","internalType":"string"}],"stateMutability":"view"},{"type":"function","name":"totalSupply","inputs":[],"outputs":[{"name":"","type":"uint256","internalType":"uint256"}],"stateMutability":"view"},{"type":"function","name":"transfer","inputs":[{"name":"to","type":"address","internalType":"address"},{"name":"value","type":"uint256","internalType":"uint256"}],"outputs":[{"name":"","type":"bool","internalType":"bool"}],"stateMutability":"nonpayable"},{"type":"function","name":"transferFrom","inputs":[{"name":"from","type":"address","internalType":"address"},{"name":"to","type":"address","internalType":"address"},{"name":"value","type":"uint256","internalType":"uint256"}],"outputs":[{"name":"","type":"bool","internalType":"bool"}],"stateMutability":"nonpayable"},{"type":"function","name":"transferOwnership","inputs":[{"name":"newOwner","type":"address","internalType":"address"}],"outputs":[],"stateMutability":"nonpayable"},{"type":"function","name":"upgradeToAndCall","inputs":[{"name":"newImplementation","type":"address","internalType":"address"},{"name":"data","type":"bytes","internalType":"bytes"}],"outputs":[],"stateMutability":"payable"},{"type":"event","name":"Approval","inputs":[{"name":"owner","type":"address","indexed":true,"internalType":"address"},{"name":"spender","type":"address","indexed":true,"internalType":"address"},{"name":"value","type":"uint256","indexed":false,"internalType":"uint256"}],"anonymous":false},{"type":"event","name":"EIP712DomainChanged","inputs":[],"anonymous":false},{"type":"event","name":"Initialized","inputs":[{"name":"version","type":"uint64","indexed":false,"internalType":"uint64"}],"anonymous":false},{"type":"event","name":"OwnershipTransferred","inputs":[{"name":"previousOwner","type":"address","indexed":true,"internalType":"address"},{"name":"newOwner","type":"address","indexed":true,"internalType":"address"}],"anonymous":false},{"type":"event","name":"Transfer","inputs":[{"name":"from","type":"address","indexed":true,"internalType":"address"},{"name":"to","type":"address","indexed":true,"internalType":"address"},{"name":"value","type":"uint256","indexed":false,"internalType":"uint256"}],"anonymous":false},{"type":"event","name":"Upgraded","inputs":[{"name":"implementation","type":"address","indexed":true,"internalType":"address"}],"anonymous":false},{"type":"error","name":"AddressEmptyCode","inputs":[{"name":"target","type":"address","internalType":"address"}]},{"type":"error","name":"ECDSAInvalidSignature","inputs":[]},{"type":"error","name":"ECDSAInvalidSignatureLength","inputs":[{"name":"length","type":"uint256","internalType":"uint256"}]},{"type":"error","name":"ECDSAInvalidSignatureS","inputs":[{"name":"s","type":"bytes32","internalType":"bytes32"}]},{"type":"error","name":"ERC1967InvalidImplementation","inputs":[{"name":"implementation","type":"address","internalType":"address"}]},{"type":"error","name":"ERC1967NonPayable","inputs":[]},{"type":"error","name":"ERC20InsufficientAllowance","inputs":[{"name":"spender","type":"address","internalType":"address"},{"name":"allowance","type":"uint256","internalType":"uint256"},{"name":"needed","type":"uint256","internalType":"uint256"}]},{"type":"error","name":"ERC20InsufficientBalance","inputs":[{"name":"sender","type":"address","internalType":"address"},{"name":"balance","type":"uint256","internalType":"uint256"},{"name":"needed","type":"uint256","internalType":"uint256"}]},{"type":"error","name":"ERC20InvalidApprover","inputs":[{"name":"approver","type":"address","internalType":"address"}]},{"type":"error","name":"ERC20InvalidReceiver","inputs":[{"name":"receiver","type":"address","internalType":"address"}]},{"type":"error","name":"ERC20InvalidSender","inputs":[{"name":"sender","type":"address","internalType":"address"}]},{"type":"error","name":"ERC20InvalidSpender","inputs":[{"name":"spender","type":"address","internalType":"address"}]},{"type":"error","name":"ERC2612ExpiredSignature","inputs":[{"name":"deadline","type":"uint256","internalType":"uint256"}]},{"type":"error","name":"ERC2612InvalidSigner","inputs":[{"name":"signer","type":"address","internalType":"address"},{"name":"owner","type":"address","internalType":"address"}]},{"type":"error","name":"FailedCall","inputs":[]},{"type":"error","name":"InvalidAccountNonce","inputs":[{"name":"account","type":"address","internalType":"address"},{"name":"currentNonce","type":"uint256","internalType":"uint256"}]},{"type":"error","name":"InvalidInitialization","inputs":[]},{"type":"error","name":"NotInitializing","inputs":[]},{"type":"error","name":"OwnableInvalidOwner","inputs":[{"name":"owner","type":"address","internalType":"address"}]},{"type":"error","name":"OwnableUnauthorizedAccount","inputs":[{"name":"account","type":"address","internalType":"address"}]},{"type":"error","name":"UUPSUnauthorizedCallContext","inputs":[]},{"type":"error","name":"UUPSUnsupportedProxiableUUID","inputs":[{"name":"slot","type":"bytes32","internalType":"bytes32"}]}],"bytecode":{"object":"0x60a080604052346100c257306080525f516020611d8d5f395f51905f525460ff8160401c166100b3576002600160401b03196001600160401b03821601610060575b604051611cc690816100c78239608051818181610f090152610fe30152f35b6001600160401b0319166001600160401b039081175f516020611d8d5f395f51905f525581527fc7f505b2f371ae2175ee4913f4499e1f2633a7b5936321eed1cdaeb6115181d290602090a15f80610041565b63f92ee8a960e01b5f5260045ffd5b5f80fdfe60806040526004361015610011575f80fd5b5f3560e01c806306fdde0314611381578063095ea7b31461135b57806318160ddd1461133257806323b872dd1461125a578063313ce5671461123f5780633644e5151461121d57806340c10f191461115f5780634f1ef28614610f5d57806352d1902d14610ef757806370a0823114610eb3578063715018a614610e4c5780637ecebe0014610df657806384b0196e14610cd25780638da5cb5b14610c9e57806395d89b4114610ba85780639dc29fac14610ad2578063a9059cbb14610aa1578063ad3cb1cc14610a56578063c4d66de8146102e3578063d505accf14610181578063dd62ed3e1461013a5763f2fde38b1461010b575f80fd5b3461013657602036600319011261013657610134610127611462565b61012f6117dc565b6116c0565b005b5f80fd5b3461013657604036600319011261013657610153611462565b61016461015e611478565b91611663565b9060018060a01b03165f52602052602060405f2054604051908152f35b346101365760e03660031901126101365761019a611462565b6101a2611478565b604435906064359260843560ff81168103610136578442116102d05761029561029e9160018060a01b03841696875f527f5ab42ced628888259c08ac98db1eb0cf702fc1501344311d8b100cd1bfe4bb0060205260405f20908154916001830190556040519060208201927f6e71edae12b1b97f4d1f60370fef10105fa2faae0126114a169c64845d6126c984528a604084015260018060a01b038916606084015289608084015260a083015260c082015260c0815261026360e08261148e565b51902061026e611872565b906040519161190160f01b83526002830152602282015260c43591604260a4359220611904565b90929192611987565b6001600160a01b03168481036102b95750610134935061180f565b84906325c0072360e11b5f5260045260245260445ffd5b8463313c898160e11b5f5260045260245ffd5b34610136576020366003190112610136576102fc611462565b5f516020611c515f395f51905f52549060ff8260401c1615916001600160401b03811680159081610a4e575b6001149081610a44575b159081610a3b575b50610a2c5767ffffffffffffffff1981166001175f516020611c515f395f51905f525582610a00575b5061036c61169b565b9160409182519361037d848661148e565b600385526219555560ea1b60208601526103956118d9565b61039d6118d9565b8051906001600160401b0382116106f95781906103c75f516020611b115f395f51905f52546114af565b601f8111610986575b50602090601f8311600114610908575f926108fd575b50508160011b915f199060031b1c1916175f516020611b115f395f51905f52555b83516001600160401b0381116106f95761042e5f516020611b715f395f51905f52546114af565b601f811161088e575b506020601f821160011461080d5781906104859495965f92610802575b50508160011b915f199060031b1c1916175f516020611b715f395f51905f52555b61047d6118d9565b61012f6118d9565b61048d61169b565b916104966118d9565b8051916104a3828461148e565b60018352603160f81b60208401526104b96118d9565b83516001600160401b0381116106f9576104e05f516020611b515f395f51905f52546114af565b601f8111610793575b50602094601f8211600114610718579481929394955f9261070d575b50508160011b915f199060031b1c1916175f516020611b515f395f51905f52555b82516001600160401b0381116106f95761054d5f516020611bd15f395f51905f52546114af565b601f811161068a575b506020601f821160011461060f57819293945f92610604575b50508160011b915f199060031b1c1916175f516020611bd15f395f51905f52555b5f5f516020611bf15f395f51905f52555f5f516020611c715f395f51905f52556105b86118d9565b6105be57005b5f516020611c515f395f51905f52805460ff60401b1916905551600181527fc7f505b2f371ae2175ee4913f4499e1f2633a7b5936321eed1cdaeb6115181d290602090a1005b01519050848061056f565b601f198216905f516020611bd15f395f51905f525f52805f20915f5b8181106106725750958360019596971061065a575b505050811b015f516020611bd15f395f51905f5255610590565b01515f1960f88460031b161c19169055848080610640565b9192602060018192868b01518155019401920161062b565b5f516020611bd15f395f51905f525f527f5f9ce34815f8e11431c7bb75a8e6886a91478f7ffc1dbb0a98dc240fddd76b75601f830160051c810191602084106106ef575b601f0160051c01905b8181106106e45750610556565b5f81556001016106d7565b90915081906106ce565b634e487b7160e01b5f52604160045260245ffd5b015190508580610505565b601f198216955f516020611b515f395f51905f525f52805f20915f5b88811061077b57508360019596979810610763575b505050811b015f516020611b515f395f51905f5255610526565b01515f1960f88460031b161c19169055858080610749565b91926020600181928685015181550194019201610734565b5f516020611b515f395f51905f525f527f42ad5d3e1f2e6e70edcf6d991b8a3023d3fca8047a131592f9edb9fd9b89d57d601f830160051c810191602084106107f8575b601f0160051c01905b8181106107ed57506104e9565b5f81556001016107e0565b90915081906107d7565b015190508680610454565b601f198216955f516020611b715f395f51905f525f52815f20965f5b8181106108765750916104859596979184600195941061085e575b505050811b015f516020611b715f395f51905f5255610475565b01515f1960f88460031b161c19169055868080610844565b83830151895560019098019760209384019301610829565b5f516020611b715f395f51905f525f527f46a2803e59a4de4e7a4c574b1243f25977ac4c77d5a1a4a609b5394cebb4a2aa601f830160051c810191602084106108f3575b601f0160051c01905b8181106108e85750610437565b5f81556001016108db565b90915081906108d2565b0151905086806103e6565b5f516020611b115f395f51905f525f9081528281209350601f198516905b81811061096e5750908460019594939210610956575b505050811b015f516020611b115f395f51905f5255610407565b01515f1960f88460031b161c1916905586808061093c565b92936020600181928786015181550195019301610926565b5f516020611b115f395f51905f525f529091507f2ae08a8e29253f69ac5d979a101956ab8f8d9d7ded63fa7a83b16fc47648eab0601f840160051c810191602085106109f6575b90601f859493920160051c01905b8181106109e857506103d0565b5f81558493506001016109db565b90915081906109cd565b68ffffffffffffffffff191668010000000000000001175f516020611c515f395f51905f525582610363565b63f92ee8a960e01b5f5260045ffd5b9050158461033a565b303b159150610332565b849150610328565b34610136575f36600319011261013657610a9d604051610a7760408261148e565b60058152640352e302e360dc1b602082015260405191829160208352602083019061143e565b0390f35b3461013657604036600319011261013657610ac7610abd611462565b6024359033611731565b602060405160018152f35b3461013657604036600319011261013657610aeb611462565b60243590610af76117dc565b6001600160a01b03168015610b9557805f525f516020611b315f395f51905f5260205260405f2054828110610b7c576020835f945f516020611c315f395f51905f52938587525f516020611b315f395f51905f528452036040862055805f516020611bb15f395f51905f5254035f516020611bb15f395f51905f5255604051908152a3005b9063391434e360e21b5f5260045260245260445260645ffd5b634b637e8f60e11b5f525f60045260245ffd5b34610136575f366003190112610136576040515f5f516020611b715f395f51905f5254610bd4816114af565b8084529060018116908115610c7a5750600114610c10575b610a9d83610bfc8185038261148e565b60405191829160208352602083019061143e565b5f516020611b715f395f51905f525f9081527f46a2803e59a4de4e7a4c574b1243f25977ac4c77d5a1a4a609b5394cebb4a2aa939250905b808210610c6057509091508101602001610bfc610bec565b919260018160209254838588010152019101909291610c48565b60ff191660208086019190915291151560051b84019091019150610bfc9050610bec565b34610136575f366003190112610136575f516020611b915f395f51905f52546040516001600160a01b039091168152602090f35b34610136575f366003190112610136575f516020611bf15f395f51905f52541580610de0575b15610da357610d47610d086114e7565b610d106115b6565b6020610d5560405192610d23838561148e565b5f84525f368137604051958695600f60f81b875260e08588015260e087019061143e565b90858203604087015261143e565b4660608501523060808501525f60a085015283810360c08501528180845192838152019301915f5b828110610d8c57505050500390f35b835185528695509381019392810192600101610d7d565b60405162461bcd60e51b81526020600482015260156024820152741152540dcc4c8e88155b9a5b9a5d1a585b1a5e9959605a1b6044820152606490fd5b505f516020611c715f395f51905f525415610cf8565b3461013657602036600319011261013657610e0f611462565b60018060a01b03165f527f5ab42ced628888259c08ac98db1eb0cf702fc1501344311d8b100cd1bfe4bb00602052602060405f2054604051908152f35b34610136575f36600319011261013657610e646117dc565b5f516020611b915f395f51905f5280546001600160a01b031981169091555f906001600160a01b03167f8be0079c531659141344cd1fd0a4f28419497f9722a3daafe3b4186f6b6457e08280a3005b34610136576020366003190112610136576001600160a01b03610ed4611462565b165f525f516020611b315f395f51905f52602052602060405f2054604051908152f35b34610136575f366003190112610136577f00000000000000000000000000000000000000000000000000000000000000006001600160a01b03163003610f4e5760206040515f516020611c115f395f51905f528152f35b63703e46dd60e11b5f5260045ffd5b604036600319011261013657610f71611462565b602435906001600160401b03821161013657366023830112156101365781600401356001600160401b0381116106f95760405192610fb9601f8301601f19166020018561148e565b818452366024838301011161013657815f9260246020930183870137840101526001600160a01b037f00000000000000000000000000000000000000000000000000000000000000001630811490811561113d575b50610f4e5761101b6117dc565b6040516352d1902d60e01b81526001600160a01b0382169290602081600481875afa5f9181611109575b5061105d5783634c9c8ce360e01b5f5260045260245ffd5b805f516020611c115f395f51905f528592036110f75750823b156110e5575f516020611c115f395f51905f5280546001600160a01b031916821790557fbc7cd75a20ee27fd9adebab32041f755214dbc6bffa90cc0225b39da2e5c2d3b5f80a28051156110cd5761013491611a84565b5050346110d657005b63b398979f60e01b5f5260045ffd5b634c9c8ce360e01b5f5260045260245ffd5b632a87526960e21b5f5260045260245ffd5b9091506020813d602011611135575b816111256020938361148e565b8101031261013657519085611045565b3d9150611118565b5f516020611c115f395f51905f52546001600160a01b0316141590508361100e565b3461013657604036600319011261013657611178611462565b602435906111846117dc565b6001600160a01b031690811561120a575f516020611bb15f395f51905f5254908082018092116111f65760205f516020611c315f395f51905f52915f935f516020611bb15f395f51905f52558484525f516020611b315f395f51905f52825260408420818154019055604051908152a3005b634e487b7160e01b5f52601160045260245ffd5b63ec442f0560e01b5f525f60045260245ffd5b34610136575f366003190112610136576020611237611872565b604051908152f35b34610136575f36600319011261013657602060405160128152f35b3461013657606036600319011261013657611273611462565b61127b611478565b6044359061128883611663565b335f9081526020919091526040902054925f1984106112ac575b610ac79350611731565b828410611317576001600160a01b038116156113045733156112f157610ac7936112d582611663565b60018060a01b0333165f526020528360405f20910390556112a2565b634a1406b160e11b5f525f60045260245ffd5b63e602df0560e01b5f525f60045260245ffd5b8284637dc7a0d960e11b5f523360045260245260445260645ffd5b34610136575f3660031901126101365760205f516020611bb15f395f51905f5254604051908152f35b3461013657604036600319011261013657610ac7611377611462565b602435903361180f565b34610136575f366003190112610136576040515f5f516020611b115f395f51905f52546113ad816114af565b8084529060018116908115610c7a57506001146113d457610a9d83610bfc8185038261148e565b5f516020611b115f395f51905f525f9081527f2ae08a8e29253f69ac5d979a101956ab8f8d9d7ded63fa7a83b16fc47648eab0939250905b80821061142457509091508101602001610bfc610bec565b91926001816020925483858801015201910190929161140c565b805180835260209291819084018484015e5f828201840152601f01601f1916010190565b600435906001600160a01b038216820361013657565b602435906001600160a01b038216820361013657565b90601f801991011681019081106001600160401b038211176106f957604052565b90600182811c921680156114dd575b60208310146114c957565b634e487b7160e01b5f52602260045260245ffd5b91607f16916114be565b604051905f825f516020611b515f395f51905f525491611506836114af565b8083529260018116908115611597575060011461152c575b61152a9250038361148e565b565b505f516020611b515f395f51905f525f90815290917f42ad5d3e1f2e6e70edcf6d991b8a3023d3fca8047a131592f9edb9fd9b89d57d5b81831061157b57505090602061152a9282010161151e565b6020919350806001915483858901015201910190918492611563565b6020925061152a94915060ff191682840152151560051b82010161151e565b604051905f825f516020611bd15f395f51905f5254916115d5836114af565b808352926001811690811561159757506001146115f85761152a9250038361148e565b505f516020611bd15f395f51905f525f90815290917f5f9ce34815f8e11431c7bb75a8e6886a91478f7ffc1dbb0a98dc240fddd76b755b81831061164757505090602061152a9282010161151e565b602091935080600191548385890101520191019091849261162f565b6001600160a01b03165f9081527f52c63247e1f47db19d5ce0460030c497f067ca4cebf71ba98eeadabe20bace016020526040902090565b604051906116aa60408361148e565b600782526632aaaa37b5b2b760c91b6020830152565b6001600160a01b0316801561171e575f516020611b915f395f51905f5280546001600160a01b0319811683179091556001600160a01b03167f8be0079c531659141344cd1fd0a4f28419497f9722a3daafe3b4186f6b6457e05f80a3565b631e4fbdf760e01b5f525f60045260245ffd5b6001600160a01b0316908115610b95576001600160a01b031691821561120a57815f525f516020611b315f395f51905f5260205260405f20548181106117c357815f516020611c315f395f51905f5292602092855f525f516020611b315f395f51905f5284520360405f2055845f525f516020611b315f395f51905f52825260405f20818154019055604051908152a3565b8263391434e360e21b5f5260045260245260445260645ffd5b5f516020611b915f395f51905f52546001600160a01b031633036117fc57565b63118cdaa760e01b5f523360045260245ffd5b916001600160a01b038316918215611304576001600160a01b03169283156112f1577f8c5be1e5ebec7d5bd14f71427d1e84f3dd0314c0f7b2291e5b200ac8c7c3b9259161185e602092611663565b855f5282528060405f2055604051908152a3565b61187a6119fb565b611882611a52565b6040519060208201927f8b73c3c69bb8fe3d512ecc4cf759cc79239f7b179b0ffacaa9a75d522b39400f8452604083015260608201524660808201523060a082015260a081526118d360c08261148e565b51902090565b60ff5f516020611c515f395f51905f525460401c16156118f557565b631afcd79f60e31b5f5260045ffd5b91906fa2a8918ca85bafe22016d0b997e4df60600160ff1b03841161197c579160209360809260ff5f9560405194855216868401526040830152606082015282805260015afa15611971575f516001600160a01b0381161561196757905f905f90565b505f906001905f90565b6040513d5f823e3d90fd5b5050505f9160039190565b60048110156119e75780611999575050565b600181036119b05763f645eedf60e01b5f5260045ffd5b600281036119cb575063fce698f760e01b5f5260045260245ffd5b6003146119d55750565b6335e2f38360e21b5f5260045260245ffd5b634e487b7160e01b5f52602160045260245ffd5b611a036114e7565b8051908115611a13576020012090565b50505f516020611bf15f395f51905f52548015611a2d5790565b507fc5d2460186f7233c927e7db2dcc703c0e500b653ca82273b7bfad8045d85a47090565b611a5a6115b6565b8051908115611a6a576020012090565b50505f516020611c715f395f51905f52548015611a2d5790565b905f8091602081519101845af48080611afd575b15611ab85750506040513d81523d5f602083013e60203d82010160405290565b15611add57639996b31560e01b5f9081526001600160a01b0391909116600452602490fd5b3d15611aee576040513d5f823e3d90fd5b63d6bda27560e01b5f5260045ffd5b503d151580611a985750813b1515611a9856fe52c63247e1f47db19d5ce0460030c497f067ca4cebf71ba98eeadabe20bace0352c63247e1f47db19d5ce0460030c497f067ca4cebf71ba98eeadabe20bace00a16a46d94261c7517cc8ff89f61c0ce93598e3c849801011dee649a6a557d10252c63247e1f47db19d5ce0460030c497f067ca4cebf71ba98eeadabe20bace049016d09d72d40fdae2fd8ceac6b6234c7706214fd39c1cd1e609a0528c19930052c63247e1f47db19d5ce0460030c497f067ca4cebf71ba98eeadabe20bace02a16a46d94261c7517cc8ff89f61c0ce93598e3c849801011dee649a6a557d103a16a46d94261c7517cc8ff89f61c0ce93598e3c849801011dee649a6a557d100360894a13ba1a3210667c828492db98dca3e2076cc3735a920a3ca505d382bbcddf252ad1be2c89b69c2b068fc378daa952ba7f163c4a11628f55a4df523b3eff0c57e16840df040f15088dc2f81fe391c3923bec73e23a9662efc9c229c6a00a16a46d94261c7517cc8ff89f61c0ce93598e3c849801011dee649a6a557d101a2646970667358221220fd8b72e65842913dde0d2118ed53c0bd6dbd506effa8f1e38c7761aa438da94164736f6c634300081c0033f0c57e16840df040f15088dc2f81fe391c3923bec73e23a9662efc9c229c6a00","linkReferences":{}},"methodIdentifiers":{"DOMAIN_SEPARATOR()":"3644e515","UPGRADE_INTERFACE_VERSION()":"ad3cb1cc","allowance(address,address)":"dd62ed3e","approve(address,uint256)":"095ea7b3","balanceOf(address)":"70a08231","burn(address,uint256)":"9dc29fac","decimals()":"313ce567","eip712Domain()":"84b0196e","initialize(address)":"c4d66de8","mint(address,uint256)":"40c10f19","name()":"06fdde03","nonces(address)":"7ecebe00","owner()":"8da5cb5b","permit(address,address,uint256,uint256,uint8,bytes32,bytes32)":"d505accf","proxiableUUID()":"52d1902d","renounceOwnership()":"715018a6","symbol()":"95d89b41","totalSupply()":"18160ddd","transfer(address,uint256)":"a9059cbb","transferFrom(address,address,uint256)":"23b872dd","transferOwnership(address)":"f2fde38b","upgradeToAndCall(address,bytes)":"4f1ef286"},"storageLayout":{"storage":[],"types":{}},"id":119}