{"abi":[{"type":"function","name":"decode","inputs":[{"name":"stream","type":"bytes","internalType":"bytes"}],"outputs":[{"name":"","type":"tuple","internalType":"struct ZkgmMsg","components":[{"name":"action","type":"string","internalType":"string"},{"name":"id","type":"uint32","internalType":"uint32"},{"name":"amount","type":"uint256","internalType":"uint256"},{"name":"rate","type":"uint256","internalType":"uint256"},{"name":"union_block","type":"uint64","internalType":"uint64"}]}],"stateMutability":"pure"}],"bytecode":{"object":"0x6080806040523460195761015a908161001e823930815050f35b5f80fdfe6080806040526004361015610012575f80fd5b5f3560e01c63e5c5e9a314610025575f80fd5b60203660031901126101205760043567ffffffffffffffff8111610120573660238201121561012057806004013567ffffffffffffffff811161012057602436918301011161012057602082526024810135604219823603018112156101205781019060446024830135920167ffffffffffffffff831161012057823603811361012057829060a060208601528160c086015260e08501375f60e0838501015260448101359063ffffffff82168092036101205760a49160408501526064810135606085015260848101356080850152013567ffffffffffffffff81168091036101205760a0830152601f01601f1916810181900360e00190f35b5f80fdfea264697066735822122099e1fb380c9a95e1f688c2439bfb5a4b9fee03eca225a830b18f19858f46addf64736f6c634300081c0033","linkReferences":{}},"methodIdentifiers":{"decode(bytes)":"e5c5e9a3"},"storageLayout":{"storage":[],"types":{}},"id":122}