{"abi":[{"type":"constructor","inputs":[],"stateMutability":"nonpayable"},{"type":"function","name":"SCALING_FACTOR","inputs":[],"outputs":[{"name":"","type":"uint256","internalType":"uint256"}],"stateMutability":"view"},{"type":"function","name":"UPGRADE_INTERFACE_VERSION","inputs":[],"outputs":[{"name":"","type":"string","internalType":"string"}],"stateMutability":"view"},{"type":"function","name":"acceptOwnership","inputs":[],"outputs":[],"stateMutability":"nonpayable"},{"type":"function","name":"acceptOwnershipTransfer","inputs":[],"outputs":[],"stateMutability":"nonpayable"},{"type":"function","name":"batchHubRecordIds","inputs":[{"name":"","type":"uint32","internalType":"uint32"},{"name":"","type":"uint256","internalType":"uint256"}],"outputs":[{"name":"","type":"uint64","internalType":"uint64"}],"stateMutability":"view"},{"type":"function","name":"batchWithdrawal","inputs":[],"outputs":[],"stateMutability":"nonpayable"},{"type":"function","name":"batches","inputs":[{"name":"","type":"uint32","internalType":"uint32"}],"outputs":[{"name":"stakeAmount","type":"uint256","internalType":"uint256"},{"name":"mintAmount","type":"uint256","internalType":"uint256"},{"name":"unstakeAmount","type":"uint256","internalType":"uint256"},{"name":"releasedAmount","type":"uint256","internalType":"uint256"},{"name":"id","type":"uint32","internalType":"uint32"},{"name":"status","type":"uint8","internalType":"enum BatchStatus"}],"stateMutability":"view"},{"type":"function","name":"calculateReleaseAmount","inputs":[{"name":"totalReceived","type":"uint256","internalType":"uint256"},{"name":"userStake","type":"uint256","internalType":"uint256"},{"name":"totalStake","type":"uint256","internalType":"uint256"}],"outputs":[{"name":"","type":"uint256","internalType":"uint256"}],"stateMutability":"pure"},{"type":"function","name":"config","inputs":[],"outputs":[{"name":"","type":"tuple","internalType":"struct Config","components":[{"name":"feeRate","type":"uint256","internalType":"uint256"},{"name":"minStake","type":"uint256","internalType":"uint256"},{"name":"minUnstake","type":"uint256","internalType":"uint256"},{"name":"hubBatchPeriod","type":"uint64","internalType":"uint64"},{"name":"unbondingBatchPeriod","type":"uint64","internalType":"uint64"},{"name":"zkgm","type":"address","internalType":"address"},{"name":"lsToken","type":"address","internalType":"address"},{"name":"baseToken","type":"address","internalType":"address"},{"name":"feeReceiver","type":"address","internalType":"address"},{"name":"baseTokenSymbol","type":"string","internalType":"string"},{"name":"baseTokenName","type":"string","internalType":"string"},{"name":"unionSolverAddress","type":"string","internalType":"string"},{"name":"unionLstContractAddress","type":"string","internalType":"string"},{"name":"unionChannelId","type":"uint32","internalType":"uint32"}]}],"stateMutability":"view"},{"type":"function","name":"currentHubBatchId","inputs":[],"outputs":[{"name":"","type":"uint32","internalType":"uint32"}],"stateMutability":"view"},{"type":"function","name":"currentRate","inputs":[],"outputs":[{"name":"","type":"uint256","internalType":"uint256"}],"stateMutability":"view"},{"type":"function","name":"currentUnbondingBatchId","inputs":[],"outputs":[{"name":"","type":"uint32","internalType":"uint32"}],"stateMutability":"view"},{"type":"function","name":"getHubBatch","inputs":[{"name":"id","type":"uint32","internalType":"uint32"}],"outputs":[{"name":"","type":"tuple","internalType":"struct HubBatch","components":[{"name":"stakeAmount","type":"uint256","internalType":"uint256"},{"name":"mintAmount","type":"uint256","internalType":"uint256"},{"name":"unstakeAmount","type":"uint256","internalType":"uint256"},{"name":"releasedAmount","type":"uint256","internalType":"uint256"},{"name":"id","type":"uint32","internalType":"uint32"},{"name":"status","type":"uint8","internalType":"enum BatchStatus"}]}],"stateMutability":"view"},{"type":"function","name":"getHubRecord","inputs":[{"name":"id","type":"uint64","internalType":"uint64"}],"outputs":[{"name":"","type":"tuple","internalType":"struct HubRecord","components":[{"name":"recordType","type":"uint8","internalType":"enum RecordType"},{"name":"batchId","type":"uint32","internalType":"uint32"},{"name":"id","type":"uint64","internalType":"uint64"},{"name":"recipientChannelId","type":"uint32","internalType":"uint32"},{"name":"stakeAmount","type":"uint256","internalType":"uint256"},{"name":"mintAmount","type":"uint256","internalType":"uint256"},{"name":"unstakeAmount","type":"uint256","internalType":"uint256"},{"name":"releasedAmount","type":"uint256","internalType":"uint256"},{"name":"exchangeRate","type":"uint256","internalType":"uint256"},{"name":"timestamp","type":"uint64","internalType":"uint64"},{"name":"sender","type":"bytes","internalType":"bytes"},{"name":"staker","type":"bytes","internalType":"bytes"},{"name":"recipient","type":"bytes","internalType":"bytes"}]}],"stateMutability":"view"},{"type":"function","name":"getVersion","inputs":[],"outputs":[{"name":"","type":"uint16","internalType":"uint16"}],"stateMutability":"pure"},{"type":"function","name":"hubRecords","inputs":[{"name":"","type":"uint64","internalType":"uint64"}],"outputs":[{"name":"recordType","type":"uint8","internalType":"enum RecordType"},{"name":"batchId","type":"uint32","internalType":"uint32"},{"name":"id","type":"uint64","internalType":"uint64"},{"name":"recipientChannelId","type":"uint32","internalType":"uint32"},{"name":"stakeAmount","type":"uint256","internalType":"uint256"},{"name":"mintAmount","type":"uint256","internalType":"uint256"},{"name":"unstakeAmount","type":"uint256","internalType":"uint256"},{"name":"releasedAmount","type":"uint256","internalType":"uint256"},{"name":"exchangeRate","type":"uint256","internalType":"uint256"},{"name":"timestamp","type":"uint64","internalType":"uint64"},{"name":"sender","type":"bytes","internalType":"bytes"},{"name":"staker","type":"bytes","internalType":"bytes"},{"name":"recipient","type":"bytes","internalType":"bytes"}],"stateMutability":"view"},{"type":"function","name":"initialize","inputs":[{"name":"payload","type":"tuple","internalType":"struct InitializePayload","components":[{"name":"feeRate","type":"uint256","internalType":"uint256"},{"name":"minStake","type":"uint256","internalType":"uint256"},{"name":"minUnstake","type":"uint256","internalType":"uint256"},{"name":"hubBatchPeriod","type":"uint64","internalType":"uint64"},{"name":"unbondingBatchPeriod","type":"uint64","internalType":"uint64"},{"name":"owner","type":"address","internalType":"address"},{"name":"baseToken","type":"address","internalType":"address"},{"name":"lsToken","type":"address","internalType":"address"},{"name":"zkgm","type":"address","internalType":"address"},{"name":"unionLstContractAddress","type":"string","internalType":"string"},{"name":"unionSolverAddress","type":"string","internalType":"string"},{"name":"baseTokenSymbol","type":"string","internalType":"string"},{"name":"baseTokenName","type":"string","internalType":"string"},{"name":"quoteToken","type":"bytes","internalType":"bytes"},{"name":"feeReceiver","type":"address","internalType":"address"},{"name":"unionChannelId","type":"uint32","internalType":"uint32"}]}],"outputs":[],"stateMutability":"nonpayable"},{"type":"function","name":"isTestMode","inputs":[],"outputs":[{"name":"","type":"bool","internalType":"bool"}],"stateMutability":"view"},{"type":"function","name":"lastHubBatchTimestamp","inputs":[],"outputs":[{"name":"","type":"uint64","internalType":"uint64"}],"stateMutability":"view"},{"type":"function","name":"lastUnbondingBatchTimestamp","inputs":[],"outputs":[{"name":"","type":"uint64","internalType":"uint64"}],"stateMutability":"view"},{"type":"function","name":"lastUnionBlockRecorded","inputs":[],"outputs":[{"name":"","type":"uint64","internalType":"uint64"}],"stateMutability":"view"},{"type":"function","name":"lastUpdateTimestamp","inputs":[],"outputs":[{"name":"","type":"uint64","internalType":"uint64"}],"stateMutability":"view"},{"type":"function","name":"lastZkgmTimestamp","inputs":[],"outputs":[{"name":"","type":"uint64","internalType":"uint64"}],"stateMutability":"view"},{"type":"function","name":"onIntentZkgm","inputs":[{"name":"caller","type":"address","internalType":"address"},{"name":"path","type":"uint256","internalType":"uint256"},{"name":"sourceChannelId","type":"uint32","internalType":"uint32"},{"name":"destinationChannelId","type":"uint32","internalType":"uint32"},{"name":"sender","type":"bytes","internalType":"bytes"},{"name":"message","type":"bytes","internalType":"bytes"},{"name":"relayer","type":"address","internalType":"address"},{"name":"relayerMsg","type":"bytes","internalType":"bytes"}],"outputs":[],"stateMutability":"nonpayable"},{"type":"function","name":"onZkgm","inputs":[{"name":"_caller","type":"address","internalType":"address"},{"name":"path","type":"uint256","internalType":"uint256"},{"name":"sourceChannelId","type":"uint32","internalType":"uint32"},{"name":"destinationChannelId","type":"uint32","internalType":"uint32"},{"name":"sender","type":"bytes","internalType":"bytes"},{"name":"message","type":"bytes","internalType":"bytes"},{"name":"_relayer","type":"address","internalType":"address"},{"name":"relayerMsg","type":"bytes","internalType":"bytes"}],"outputs":[],"stateMutability":"nonpayable"},{"type":"function","name":"owner","inputs":[],"outputs":[{"name":"","type":"address","internalType":"address"}],"stateMutability":"view"},{"type":"function","name":"pauseToggle","inputs":[],"outputs":[],"stateMutability":"nonpayable"},{"type":"function","name":"paused","inputs":[],"outputs":[{"name":"","type":"bool","internalType":"bool"}],"stateMutability":"view"},{"type":"function","name":"pendingOwner","inputs":[],"outputs":[{"name":"","type":"address","internalType":"address"}],"stateMutability":"view"},{"type":"function","name":"pendingReleasedUnbondingBatchId","inputs":[],"outputs":[{"name":"","type":"uint32","internalType":"uint32"}],"stateMutability":"view"},{"type":"function","name":"proxiableUUID","inputs":[],"outputs":[{"name":"","type":"bytes32","internalType":"bytes32"}],"stateMutability":"view"},{"type":"function","name":"renounceOwnership","inputs":[],"outputs":[],"stateMutability":"nonpayable"},{"type":"function","name":"stake","inputs":[{"name":"_amount","type":"uint256","internalType":"uint256"},{"name":"recipient","type":"bytes","internalType":"bytes"},{"name":"recipientChannelId","type":"uint32","internalType":"uint32"}],"outputs":[{"name":"","type":"uint64","internalType":"uint64"}],"stateMutability":"nonpayable"},{"type":"function","name":"submitBatch","inputs":[{"name":"_salt","type":"bytes32","internalType":"bytes32"}],"outputs":[],"stateMutability":"nonpayable"},{"type":"function","name":"submitUnbondingBatch","inputs":[{"name":"_salt","type":"bytes32","internalType":"bytes32"}],"outputs":[],"stateMutability":"nonpayable"},{"type":"function","name":"transferOwnership","inputs":[{"name":"newOwner","type":"address","internalType":"address"}],"outputs":[],"stateMutability":"nonpayable"},{"type":"function","name":"unbondingBatch","inputs":[],"outputs":[{"name":"","type":"tuple","internalType":"struct UnbondingBatch","components":[{"name":"unstakeAmount","type":"uint256","internalType":"uint256"},{"name":"exchangeRate","type":"uint256","internalType":"uint256"},{"name":"receivedAmount","type":"uint256","internalType":"uint256"},{"name":"status","type":"uint8","internalType":"enum UnbondingBatchStatus"},{"name":"id","type":"uint32","internalType":"uint32"}]}],"stateMutability":"view"},{"type":"function","name":"unbondingBatches","inputs":[{"name":"","type":"uint32","internalType":"uint32"}],"outputs":[{"name":"unstakeAmount","type":"uint256","internalType":"uint256"},{"name":"exchangeRate","type":"uint256","internalType":"uint256"},{"name":"receivedAmount","type":"uint256","internalType":"uint256"},{"name":"status","type":"uint8","internalType":"enum UnbondingBatchStatus"},{"name":"id","type":"uint32","internalType":"uint32"}],"stateMutability":"view"},{"type":"function","name":"unbondingHubBatchIds","inputs":[{"name":"","type":"uint32","internalType":"uint32"},{"name":"","type":"uint256","internalType":"uint256"}],"outputs":[{"name":"","type":"uint32","internalType":"uint32"}],"stateMutability":"view"},{"type":"function","name":"unstake","inputs":[{"name":"_amount","type":"uint256","internalType":"uint256"},{"name":"recipient","type":"bytes","internalType":"bytes"},{"name":"recipientChannelId","type":"uint32","internalType":"uint32"}],"outputs":[{"name":"","type":"uint64","internalType":"uint64"}],"stateMutability":"nonpayable"},{"type":"function","name":"upgradeToAndCall","inputs":[{"name":"newImplementation","type":"address","internalType":"address"},{"name":"data","type":"bytes","internalType":"bytes"}],"outputs":[],"stateMutability":"payable"},{"type":"event","name":"ExchangeRateUpdated","inputs":[{"name":"id","type":"uint32","indexed":true,"internalType":"uint32"},{"name":"actionHash","type":"bytes32","indexed":true,"internalType":"bytes32"},{"name":"action","type":"string","indexed":false,"internalType":"string"},{"name":"rate","type":"uint256","indexed":false,"internalType":"uint256"}],"anonymous":false},{"type":"event","name":"HubStake","inputs":[{"name":"id","type":"uint64","indexed":true,"internalType":"uint64"},{"name":"batchId","type":"uint32","indexed":true,"internalType":"uint32"},{"name":"stakerHash","type":"bytes32","indexed":true,"internalType":"bytes32"},{"name":"recipientChannelId","type":"uint32","indexed":false,"internalType":"uint32"},{"name":"stakeAmount","type":"uint256","indexed":false,"internalType":"uint256"},{"name":"mintAmount","type":"uint256","indexed":false,"internalType":"uint256"},{"name":"exchangeRate","type":"uint256","indexed":false,"internalType":"uint256"},{"name":"timestamp","type":"uint64","indexed":false,"internalType":"uint64"},{"name":"sender","type":"string","indexed":false,"internalType":"string"},{"name":"staker","type":"string","indexed":false,"internalType":"string"},{"name":"recipient","type":"string","indexed":false,"internalType":"string"}],"anonymous":false},{"type":"event","name":"HubUnstake","inputs":[{"name":"id","type":"uint64","indexed":true,"internalType":"uint64"},{"name":"batchId","type":"uint32","indexed":true,"internalType":"uint32"},{"name":"stakerHash","type":"bytes32","indexed":true,"internalType":"bytes32"},{"name":"recipientChannelId","type":"uint32","indexed":false,"internalType":"uint32"},{"name":"unstakeAmount","type":"uint256","indexed":false,"internalType":"uint256"},{"name":"exchangeRate","type":"uint256","indexed":false,"internalType":"uint256"},{"name":"timestamp","type":"uint64","indexed":false,"internalType":"uint64"},{"name":"sender","type":"string","indexed":false,"internalType":"string"},{"name":"staker","type":"string","indexed":false,"internalType":"string"},{"name":"recipient","type":"string","indexed":false,"internalType":"string"}],"anonymous":false},{"type":"event","name":"Initialized","inputs":[{"name":"version","type":"uint64","indexed":false,"internalType":"uint64"}],"anonymous":false},{"type":"event","name":"OwnershipTransferStarted","inputs":[{"name":"previousOwner","type":"address","indexed":true,"internalType":"address"},{"name":"newOwner","type":"address","indexed":true,"internalType":"address"}],"anonymous":false},{"type":"event","name":"OwnershipTransferred","inputs":[{"name":"previousOwner","type":"address","indexed":true,"internalType":"address"},{"name":"newOwner","type":"address","indexed":true,"internalType":"address"}],"anonymous":false},{"type":"event","name":"Paused","inputs":[{"name":"account","type":"address","indexed":false,"internalType":"address"}],"anonymous":false},{"type":"event","name":"SubmitHubBatch","inputs":[{"name":"id","type":"uint32","indexed":true,"internalType":"uint32"},{"name":"executedHeight","type":"uint256","indexed":false,"internalType":"uint256"},{"name":"stakeAmount","type":"uint256","indexed":false,"internalType":"uint256"},{"name":"mintAmount","type":"uint256","indexed":false,"internalType":"uint256"},{"name":"unstakeAmount","type":"uint256","indexed":false,"internalType":"uint256"},{"name":"releasedAmount","type":"uint256","indexed":false,"internalType":"uint256"},{"name":"status","type":"uint8","indexed":true,"internalType":"uint8"}],"anonymous":false},{"type":"event","name":"Unpaused","inputs":[{"name":"account","type":"address","indexed":false,"internalType":"address"}],"anonymous":false},{"type":"event","name":"Upgraded","inputs":[{"name":"implementation","type":"address","indexed":true,"internalType":"address"}],"anonymous":false},{"type":"event","name":"ZkgmMessageReceived","inputs":[{"name":"path","type":"uint256","indexed":false,"internalType":"uint256"},{"name":"sourceChannelId","type":"uint32","indexed":false,"internalType":"uint32"},{"name":"destinationChannelId","type":"uint32","indexed":false,"internalType":"uint32"},{"name":"sender","type":"string","indexed":false,"internalType":"string"},{"name":"payload","type":"bytes","indexed":false,"internalType":"bytes"}],"anonymous":false},{"type":"error","name":"AddressEmptyCode","inputs":[{"name":"target","type":"address","internalType":"address"}]},{"type":"error","name":"ERC1967InvalidImplementation","inputs":[{"name":"implementation","type":"address","internalType":"address"}]},{"type":"error","name":"ERC1967NonPayable","inputs":[]},{"type":"error","name":"EnforcedPause","inputs":[]},{"type":"error","name":"ErrUnauthorized","inputs":[]},{"type":"error","name":"ExpectedPause","inputs":[]},{"type":"error","name":"FailedCall","inputs":[]},{"type":"error","name":"InvalidInitialization","inputs":[]},{"type":"error","name":"NotInitializing","inputs":[]},{"type":"error","name":"OwnableInvalidOwner","inputs":[{"name":"owner","type":"address","internalType":"address"}]},{"type":"error","name":"OwnableUnauthorizedAccount","inputs":[{"name":"account","type":"address","internalType":"address"}]},{"type":"error","name":"ReentrancyGuardReentrantCall","inputs":[]},{"type":"error","name":"StringsInsufficientHexLength","inputs":[{"name":"value","type":"uint256","internalType":"uint256"},{"name":"length","type":"uint256","internalType":"uint256"}]},{"type":"error","name":"UUPSUnauthorizedCallContext","inputs":[]},{"type":"error","name":"UUPSUnsupportedProxiableUUID","inputs":[{"name":"slot","type":"bytes32","internalType":"bytes32"}]}],"bytecode":{"object":"0x60a080604052346100c257306080525f516020615c9b5f395f51905f525460ff8160401c166100b3576002600160401b03196001600160401b03821601610060575b604051615bd490816100c7823960805181818161279301526128380152f35b6001600160401b0319166001600160401b039081175f516020615c9b5f395f51905f525581527fc7f505b2f371ae2175ee4913f4499e1f2633a7b5936321eed1cdaeb6115181d290602090a15f80610041565b63f92ee8a960e01b5f5260045ffd5b5f80fdfe60806040526004361015610011575f80fd5b5f5f3560e01c80630bf1e375146142195780630d6d6dd2146141f35780630d8e6e2c146141d85780630fae3c52146140bb578063114771b21461404b57806314bcec9f146140255780632ce7628714613b4f578063346c2e4514613b25578063351e131c14613adb578063381ac293146134d05780633d07716b146134a65780633fef78cb1461342c5780634172f1fb14613402578063495f23de146133a55780634b4f37cd146129ed5780634cce123d146129cc5780634f1ef286146127e757806352d1902d1461278057806354f3b3da1461268b5780635c24e4f6146126645780635c975abb1461263557806360efe48c14612616578063715018a61461259757806379502c551461216357806379ba509714612113578063834307d91461202e57806387eca14c14611f585780638c81dd7614611ef95780638ce102d614611cac5780638da5cb5b14611c775780638dc32360146116cc578063a23f6c5014610e32578063ad3cb1cc14610de6578063b842e87f14610d74578063bfae69911461034b578063e30c397814610316578063e3eaf1a7146102e1578063ef4cadc5146102be578063f1be61a914610297578063f2fde38b146102115763f9f8bdb7146101dd575f80fd5b3461020e578060031936011261020e5760406020916001600160401b03601454168152600d83522054604051908152f35b80fd5b503461020e57602036600319011261020e5761022b614870565b6102336155fd565b5f516020615b7f5f395f51905f5280546001600160a01b0319166001600160a01b039283169081179091555f516020615a9f5f395f51905f52549091167f38d16b8cac22d99fc7c124b9cd0de2d3fa1faef420bfe791d8c362d765e227008380a380f35b503461020e578060031936011261020e57602063ffffffff60135460801c16604051908152f35b503461020e578060031936011261020e576020604051670de0b6b3a76400008152f35b503461020e57606036600319011261020e57602061030e604435610309602435600435614e75565b615007565b604051908152f35b503461020e578060031936011261020e575f516020615b7f5f395f51905f52546040516001600160a01b039091168152602090f35b503461020e57602036600319011261020e576001600160401b036004351161020e576102006004353603600319011261020e575f516020615b5f5f395f51905f52546001600160401b03811680159081610d64575b6001149081610d5a575b159081610d51575b50610d425760016001600160401b03195f516020615b5f5f395f51905f525416175f516020615b5f5f395f51905f525560ff8160401c1615610d1e575b60043560a4016001600160a01b0361040682614fad565b1615610d1a5760043561010401906001600160a01b0361042583614fad565b1615610d165760043560c401906001600160a01b0361044383614fad565b1615610d125760043560e401926001600160a01b0361046185614fad565b1615610d0e576004356101c401916001600160a01b0361048084614fad565b1615610cf65761048f90614fad565b6104976159c7565b61049f6159c7565b6001600160a01b03811615610cfa576104d1916104be6104cb92615630565b6104c66159c7565b614fad565b93614fad565b6101e460043501359263ffffffff84168403610cf6576104fa6004803561012481019101614fc1565b929093600435610144016004356004019061051491614fc1565b92909361052090614fad565b906105346004803561016481019101614fc1565b90916105496004803561018481019101614fc1565b94909561055590614fad565b91610564606460043501614ff3565b610572608460043501614ff3565b9d6040519e8f9261058284614a78565b60048035908101358552602481013560208601526044013560408501526001600160401b0390811660608501521660808301526001600160a01b0390811660a09092019190915290811660c08e015290811660e08d0152166101008b01526105ec91369190614c55565b61012089015236906105fd92614c55565b610140870152369061060e92614c55565b610160850152369061061f92614c55565b61018083015263ffffffff166101a082015280518355602081015160015560408082015160025560608201516003805460808501516001600160801b03199091166001600160401b0393841617931b67ffffffffffffffff60401b169290921790915560a0820151600480546001600160a01b03199081166001600160a01b039384161790915560c084015160058054831691841691909117905560e084015160068054831691841691909117905561010084015160078054909216921691909117905561012082015180519094918111610ce2576106ff600854614988565b601f8111610c94575b50602094601f8211600114610c315782939495829161073b94926109fb575b50508160011b915f199060031b1c19161790565b6008555b6101408201519283516001600160401b038111610c1d57610761600954614988565b601f8111610be2575b50602094601f8211600114610b7f57839495829161079c9495926109fb5750508160011b915f199060031b1c19161790565b6009555b6101608301519283516001600160401b038111610b6b576107c2600a54614988565b601f8111610b30575b50602094601f8211600114610acd57849582916107fd949596926109fb5750508160011b915f199060031b1c19161790565b600a555b6101808101518051906001600160401b038211610ab957610823600b54614988565b601f8111610a73575b50602090601f8311600114610a0657826101a09363ffffffff95936108659389926109fb5750508160011b915f199060031b1c19161790565b600b555b01511663ffffffff19600c541617600c556001600160401b0342166001600160401b036014548160401b4260401b16908260801b16178160c01b4260c01b168184171760145516178252600d602052670de0b6b3a7640000604083205563ffffffff600160a01b60018060801b0177ffffffffffffffff0000000000000000ffffffffffffffff196013541617178060135560801c166040519061090c82614a5d565b83825263ffffffff8060046020850194878652604081018881526060820190898252608083019787895260a08401978b89528b52600f60205260408b2093518455516001840155516002830155516003820155019351161663ffffffff19835416178255519060048210156109e75760ff929161098891614cab565b60401c16156109945780f35b60ff60401b195f516020615b5f5f395f51905f5254165f516020615b5f5f395f51905f52557fc7f505b2f371ae2175ee4913f4499e1f2633a7b5936321eed1cdaeb6115181d2602060405160018152a180f35b634e487b7160e01b84526021600452602484fd5b015190505f80610727565b600b86528186209190601f198416875b818110610a5b57509260019285926101a09663ffffffff989610610a43575b505050811b01600b55610869565b01515f1960f88460031b161c191690555f8080610a35565b92936020600181928786015181550195019301610a16565b600b8652610aa9905f516020615aff5f395f51905f52601f850160051c81019160208610610aaf575b601f0160051c0190614e88565b5f61082c565b9091508190610a9c565b634e487b7160e01b85526041600452602485fd5b601f19821695600a865280862091865b888110610b1857508360019596979810610b00575b505050811b01600a55610801565b01515f1960f88460031b161c191690555f8080610af2565b91926020600181928685015181550194019201610add565b600a8552610b65905f516020615a7f5f395f51905f52601f840160051c81019160208510610aaf57601f0160051c0190614e88565b5f6107cb565b634e487b7160e01b84526041600452602484fd5b601f198216956009855280852091855b888110610bca57508360019596979810610bb2575b505050811b016009556107a0565b01515f1960f88460031b161c191690555f8080610ba4565b91926020600181928685015181550194019201610b8f565b60098452610c17905f516020615adf5f395f51905f52601f840160051c81019160208510610aaf57601f0160051c0190614e88565b5f61076a565b634e487b7160e01b83526041600452602483fd5b601f198216956008845280842091845b888110610c7c57508360019596979810610c64575b505050811b0160085561073f565b01515f1960f88460031b161c191690555f8080610c56565b91926020600181928685015181550194019201610c41565b60088352610cdc907ff3f7a9fe364faab93b216da50a3214154f22a0a2b415b23a84c8169e8b636ee3601f840160051c81019160208510610aaf57601f0160051c0190614e88565b5f610708565b634e487b7160e01b82526041600452602482fd5b8680fd5b631e4fbdf760e01b87526004879052602487fd5b8580fd5b8480fd5b8380fd5b8280fd5b5f516020615b5f5f395f51905f52805460ff60401b1916600160401b1790556103ef565b63f92ee8a960e01b8252600482fd5b9050155f6103b2565b303b1591506103aa565b604083901c60ff161591506103a0565b503461020e578060031936011261020e57610d8d6155fd565b60055481906001600160a01b0316803b15610de3578180916004604051809481936379ba509760e01b83525af18015610dd857610dc75750f35b81610dd191614a94565b61020e5780f35b6040513d84823e3d90fd5b50fd5b503461020e578060031936011261020e57610e2e604051610e08604082614a94565b60058152640352e302e360dc1b6020820152604051918291602083526020830190614b62565b0390f35b503461020e57602036600319011261020e5760043590610e50615025565b610e5861505d565b610ef060206001600160401b0360145460401c16610eeb603b610ea06001600160401b03610e9a816003541682610e8f8289614cce565b168342161196614cce565b1661569b565b6040519485917f6e6578742062617463682073686f756c64206265206166746572200000000000828401528051918291018484015e810187838201520301601f198101845283614a94565b614cee565b63ffffffff60135460801c168152600f60205260408120600481019260ff845460201c1660048110156109e75761168b5764010000000060ff60201b1985541617845560028201805463ffffffff60135460a01c1685526010602052610f5b60408620918254614daa565b905560135463ffffffff8160801c16918454600186015491549760ff6003880154915460201c16906004821015611677578590604051904382528460208301528560408301528b6060830152608082015260a07ff1f59dc63e4f81933110ff6bf6e18e733b5015cb325e16112cea13984807325e91a3610fda9061569b565b96610fe49061569b565b90610fee9061569b565b90610ff88461569b565b9161100286615095565b91604051998a94733d91343ab12fb130ba31b4111d103d9134b2111d60611b602087015280516020819201603488015e85017316113232b632b3b0ba32afb0b6b7bab73a111d1160611b603482015281516020819301604883015e01603401731116113ab739ba30b5b2afb0b6b7bab73a111d1160611b601482015281516020819301602883015e016014017011161136b4b73a2fb0b6b7bab73a111d1160791b601482015281516020819301602583015e016014016911161139b0b63a111d1160b11b601182015281516020819301601b83015e0160110162227d7d60e81b600a82015203600a01601c19810187526003016110ff9087614a94565b60a01c63ffffffff168452601260205260408420805490600160401b821015611663578161113591600161115094018155614b93565b819391549063ffffffff809160031b9316831b921b19161790565b905563ffffffff6013548160801b61116c838360801c16614e5e565b60801b16908260801b1916178060135560801c166040519061118d82614a5d565b84825263ffffffff80600460208501948886526040810189815260608201908a8252608083019787895260a08401978c89528c52600f60205260408c2093518455516001840155516002830155516003820155019351161663ffffffff198354161782555190600482101561164f579061120691614cab565b617a694603611225575b8260015f516020615b3f5f395f51905f525580f35b60065460048054845460405163095ea7b360e01b81529360209385936001600160a01b039283169385938b938593611261939216908401614ddb565b03925af1801561164457611617575b5062093a804201804211611603576001600160401b036112909116614db7565b60018060a01b03600454169063ffffffff600c54169354956112b061520b565b506040513060601b6020820152601481526112cc603482614a94565b6040519787600b546112dd81614988565b90600181169081156115e157506001146115a0575b5090896113126113b69b8b9a99989796959403601f198101835282614a94565b600654604051906001600160601b03199060601b1660208201526014815261133b603482614a94565b6040519161135d8361134f60208201615808565b03601f198101855284614a94565b6113ab604051611381816113736020820161587c565b03601f198101835282614a94565b6040519061138e82614a0b565b815260405160209d6113a08f83614a94565b81528d8201526158de565b946040519d8e614a26565b8d528a8d015260408c01528160608c015260808b015260a08a0152600360c08a015260e0890152604051976113ec60608a614a94565b60028952604087895b828110611589575050509061140c61145992615918565b6040519061141982614a42565b6002825260038983015260408201526114318a614f64565b5261143b89614f64565b506040516114538161144c81614d1e565b0382614a94565b3061522a565b61146288614f71565b5261146c87614f71565b5061147561520b565b506040518581018181106001600160401b038211176115755790889160405252604051966040880186808a0152815180915260608901908760608260051b8c010193019189905b82821061154a5750505050966114dc81889903601f198101835282614a94565b6002604051966114eb88614a42565b8888528701526040860152813b15610d0e578580946115206040519788968795869463ff0d7c2f60e01b865260048601614e26565b03925af18015610dd857611535575b80611210565b8161153f91614a94565b61020e57805f61152f565b9091929389806115676001938f605f199082030186528851614df6565b9601920192019092916114bc565b634e487b7160e01b88526041600452602488fd5b8b828261159461520b565b920101520188906113f5565b600b8a529050885f516020615aff5f395f51905f525b8282106115ca5750508901602001896112f2565b6001818d60208581955492010152019101906115b6565b60ff19166020808e01919091528215159092028c0190910191508a90506112f2565b634e487b7160e01b84526011600452602484fd5b6116389060203d60201161163d575b6116308183614a94565b810190614f95565b611270565b503d611626565b6040513d86823e3d90fd5b634e487b7160e01b85526021600452602485fd5b634e487b7160e01b86526041600452602486fd5b634e487b7160e01b89526021600452602489fd5b60405162461bcd60e51b8152602060048201526019602482015278626174636820697320657865637574656420616c726561647960381b6044820152606490fd5b503461020e578060031936011261020e576116e5615025565b63ffffffff60135460c01c16908115611c3257818152601060205260ff6003604083200154166006811015611c1e57600403611bd95781815260106020526040812091815260126020526040812090604051808360208295549384815201908452602084209284905b806007830110611b52576117a4945491818110611b3b575b818110611b22575b818110611b08575b818110611aee575b818110611ad4575b818110611aba575b818110611aa0575b10611a92575b500383614a94565b8151815b63ffffffff811682811015611a5e576117c663ffffffff9186614f81565b51168352600f6020526040832063ffffffff600482015416845260116020526040842090604051808360208295549384815201908852602088209288905b806003830110611a0c576118399454918181106119f2575b8181106119d5575b8181106119b8575b106119aa57500383614a94565b815191855b838110611857575050505061185290614e5e565b6117a8565b6001600160401b036118698284614f81565b51168752600e6020526040872060048101908a8254158061199d575b611895575b50505060010161183e565b6020600993926118b8836103096002611917960154916003850154905492614e75565b948591016118c68154614988565b9080601f8311611991575b50546001600160601b03198116919060148210611971575b505060018060a01b0360065416908d60405180968195829463a9059cbb60e01b845260601c60048401614ddb565b03925af180156119665791839291600195949261194a575b505561194060038601918254614daa565b9055905f8a61188a565b6119619060203d811161163d576116308183614a94565b61192f565b6040513d8c823e3d90fd5b6001600160601b031960149290920360031b82901b161690505f806118e9565b8e5250828d205f6118d1565b5060038201541515611885565b60c01c81526020015f61179c565b9260206001916001600160401b038560801c16815201930161182c565b9260206001916001600160401b038560401c168152019301611824565b9260206001916001600160401b038516815201930161181c565b916004919350608060019186546001600160401b03811682526001600160401b038160401c1660208301526001600160401b0381841c16604083015260c01c6060820152019401920185929391611804565b60038601805460ff191660051790556013805463ffffffff60c01b1916905560015f516020615b3f5f395f51905f52558380f35b60e01c81526020015f61179c565b92602060019163ffffffff8560c01c168152019301611796565b92602060019163ffffffff8560a01c16815201930161178e565b92602060019163ffffffff8560801c168152019301611786565b92602060019163ffffffff8560601c16815201930161177e565b92602060019163ffffffff8560401c168152019301611776565b92602060019163ffffffff85831c16815201930161176e565b92602060019163ffffffff85168152019301611766565b916008919350610100600191865463ffffffff8116825263ffffffff8160201c16602083015263ffffffff8160401c16604083015263ffffffff8160601c16606083015263ffffffff8160801c16608083015263ffffffff8160a01c1660a083015263ffffffff8160c01c1660c083015260e01c60e082015201940192018592939161174e565b60405162461bcd60e51b815260206004820152601f60248201527f6261746368206e6f74207965742072656c6561736564206f6e20756e696f6e006044820152606490fd5b634e487b7160e01b82526021600452602482fd5b60405162461bcd60e51b815260206004820152601a60248201527f6e6f2070656e64696e6720756e626f6e64696e672062617463680000000000006044820152606490fd5b503461020e578060031936011261020e575f516020615a9f5f395f51905f52546040516001600160a01b039091168152602090f35b503461020e57602036600319011261020e576004356001600160401b038116809103611ef5576060610180604051611ce3816149ef565b84815284602082015284604082015284838201528460808201528460a08201528460c08201528460e08201528461010082015284610120820152826101408201528261016082015201528152600e602052604081209060405190611d46826149ef565b82549060ff8216906002821015611ee15750825260208201928160081c63ffffffff16845260408301918060281c6001600160401b03168352606084019060681c63ffffffff168152600182015460808501908152600283015460a08601908152600384015460c0870190815260048501549060e08801918252600586015492610100890193845260068701546001600160401b0316946101208a0195865260078801611df290614ab5565b6101408b0190815296611e0760088a01614ab5565b986101608c01998a52600901611e1c90614ab5565b996101808c019a8b526040519c8d9c8d60208152602001905190611e3f91614b55565b5163ffffffff1660408d0152516001600160401b031660608c01525163ffffffff1660808b01525160a08a01525160c08901525160e08801525161010087015251610120860152516001600160401b03166101408501525161016084016101a090526101c08401611eaf91614b62565b9051838203601f1901610180850152611ec89190614b62565b9051828203601f19016101a0840152610e2e9190614b62565b634e487b7160e01b81526021600452602490fd5b5080fd5b503461020e57611f08366148c6565b5050505050505050505050611f1b615025565b611f2361505d565b6004546001600160a01b03163303611f495760015f516020615b3f5f395f51905f525580f35b636609677b60e11b8152600490fd5b503461020e578060031936011261020e57806080604051611f78816149c0565b828152826020820152826040820152826060820152015263ffffffff60135460a01c1681526010602052604081209060405190611fb4826149c0565b825482526001830154926020830193845260036002820154916040850192835201549360ff851660608501936006821015611ee157509260a095926120259263ffffffff95835285608088019560081c16855260405196518752516020870152516040860152516060850190614b86565b51166080820152f35b503461020e578060031936011261020e576120476155fd565b5f516020615b1f5f395f51905f525460ff8116156120c757505f516020615b1f5f395f51905f525460ff8116156120b85760ff19165f516020615b1f5f395f51905f52557f5db9ee0a495bf2e6ff9c91a7834c1ba4fdd244a5e8aa4e537bd38aeae4b073aa6020604051338152a180f35b638dfc202b60e01b8252600482fd5b6001906120d261505d565b60ff1916175f516020615b1f5f395f51905f52557f62e78cea01bee320cd4e420270b5ea74000d11b0c9f74754ebdbfc544b05a2586020604051338152a180f35b503461020e578060031936011261020e575f516020615b7f5f395f51905f5254336001600160a01b03909116036121505761214d33615630565b80f35b63118cdaa760e01b815233600452602490fd5b503461020e578060031936011261020e57806101a060405161218481614a78565b8281528260208201528260408201528260608201528260808201528260a08201528260c08201528260e082015282610100820152606061012082015260606101408201526060610160820152606061018082015201526040516121e681614a78565b815481526001546020820190815260025460408084019182526003546001600160401b038082166060870190815291831c16608086019081526004546001600160a01b0390811660a08801908152600554821660c08901908152600654831660e08a019081526007549093166101008a019081529551600854989a979895979694959094939290858861227883614988565b8083529260018116908115612578575060011461251a575b61229c92500386614a94565b6101208a01948552604051958787600954916122b783614988565b80835292600181169081156124fb57506001146124b1575b6122db92500388614a94565b6101408b0196875260405188819990600a54906122f782614988565b8085529160018116908115612493575060011461244e575b50500361231c9089614a94565b6101608b01978852604051988961233281614d1e565b0361233d908b614a94565b6101808c01998a52600c5463ffffffff169a6101a08d019b8c52604051809e819e602083525160208301525190604001525160608d0152516001600160401b031660808c0152516001600160401b031660a08b0152600160a01b6001900390511660c08a0152600160a01b6001900390511660e0890152600160a01b60019003905116610100880152600160a01b600190039051166101208701525161014086016101c090526101e086016123f191614b62565b9051858203601f190161016087015261240a9190614b62565b9051848203601f19016101808601526124239190614b62565b9051838203601f19016101a085015261243c9190614b62565b905163ffffffff166101c08301520390f35b600a815291505f516020615a7f5f395f51905f525b81831061247857505081016020015f8061230f565b80602092948385600194549201015201910190918a92612463565b9150506020925060ff191682840152151560051b8201015f8061230f565b5060098a529089905f516020615adf5f395f51905f525b8183106124e05750509060206122db928201016122cf565b806020929483856001945492010152019101909189926124c8565b602092506122db94915060ff191682840152151560051b8201016122cf565b50600889529088907ff3f7a9fe364faab93b216da50a3214154f22a0a2b415b23a84c8169e8b636ee35b81831061255c57505090602061229c92820101612290565b6020919350806001915483858c01015201910190918792612544565b6020925061229c94915060ff191682840152151560051b820101612290565b503461020e578060031936011261020e576125b06155fd565b5f516020615b7f5f395f51905f5280546001600160a01b03199081169091555f516020615a9f5f395f51905f528054918216905581906001600160a01b03167f8be0079c531659141344cd1fd0a4f28419497f9722a3daafe3b4186f6b6457e08280a380f35b503461020e578060031936011261020e576020604051617a6946148152f35b503461020e578060031936011261020e57602060ff5f516020615b1f5f395f51905f5254166040519015158152f35b503461020e578060031936011261020e57602063ffffffff60135460c01c16604051908152f35b503461020e57602036600319011261020e5763ffffffff6126aa614886565b8260a06040516126b981614a5d565b8281528260208201528260408201528260608201528260808201520152168152600f60205260408120604051906126ef82614a5d565b805482526001810154906020830191825260028101546040840190815260046003830154926060860193845201549260ff608086019463ffffffff8116865260201c1660a08601966004821015611ee157509263ffffffff9261277e9592889560c0995260405197518852516020880152516040870152516060860152511660808401525160a0830190614c0c565bf35b503461020e578060031936011261020e577f00000000000000000000000000000000000000000000000000000000000000006001600160a01b031630036127d85760206040515f516020615abf5f395f51905f528152f35b63703e46dd60e11b8152600490fd5b50604036600319011261020e576127fc614870565b906024356001600160401b038111611ef55736602382011215611ef55761282d903690602481600401359101614c55565b916001600160a01b037f0000000000000000000000000000000000000000000000000000000000000000163081149081156129aa575b5061299b576128706155fd565b6040516352d1902d60e01b8152926001600160a01b0382169190602085600481865afa80958596612967575b506128b557634c9c8ce360e01b84526004839052602484fd5b9091845f516020615abf5f395f51905f5281036129555750823b15612943575f516020615abf5f395f51905f5280546001600160a01b031916821790557fbc7cd75a20ee27fd9adebab32041f755214dbc6bffa90cc0225b39da2e5c2d3b8480a280511561292a57612926916159f2565b5080f35b5050346129345780f35b63b398979f60e01b8152600490fd5b634c9c8ce360e01b8452600452602483fd5b632a87526960e21b8552600452602484fd5b9095506020813d602011612993575b8161298360209383614a94565b81010312610d125751945f61289c565b3d9150612976565b63703e46dd60e11b8252600482fd5b5f516020615abf5f395f51905f52546001600160a01b0316141590505f612863565b503461020e578060031936011261020e57602060145460c01c604051908152f35b503461020e576129fc36614bc8565b90919392612a08615025565b612a1061505d565b604092612a3c8451612a228682614a94565b60058152647374616b6560d81b6020820152838389615321565b612a4533615150565b92670de0b6b3a7640000830296838804670de0b6b3a7640000148415171561339157612a896001600160401b036014541698898952600d6020528789205490615007565b936013546001600160401b038116998851903360601b602083015260148252612ab3603483614a94565b8951903360601b602083015260148252612ace603483614a94565b8b52600d602052898b20549b63ffffffff8b5194612aeb866149ef565b8d865260801c166020850152808b85015263ffffffff871660608501528460808501528860a08501528b60c08501528b60e085015261010084019c8d526101208401916001600160401b03421683526101408501938452610160850152612b53368988614c55565b6101808501528b52600e602052898b209b8351600281101561337d578d5460208601518d87015160608801516001600160881b031990931660ff949094169390931760089190911b64ffffffff00161760289290921b67ffffffffffffffff60281b169190911760689190911b63ffffffff60681b16178d55608084015160018e015560a084015160028e015560c084015160038e015560e084015160048e01555160058d01555160068c01805467ffffffffffffffff19166001600160401b03928316179055905180519091811161329b57612c40818d6007612c3981830154614988565b9101614e9e565b60208c601f831160011461331657508190612c6f938d926109fb5750508160011b915f199060031b1c19161790565b60078b01555b61016081015180516001600160401b03811161329b57612c9e818d6008612c3981830154614988565b60208c601f83116001146132af57508190612ccd938d926109fb5750508160011b915f199060031b1c19161790565b60088b01555b610180810151998a516001600160401b03811161329b57612d0481612cfb6009850154614988565b60098501614e9e565b6020601f821160011461322c5781600992612d38928e9f8f9d9e9f926109fb5750508160011b915f199060031b1c19161790565b9101555b60135460801c63ffffffff168752600f60205288872082815490612d5f91614daa565b815560010186815490612d7191614daa565b905560135460801c63ffffffff1687526011602052888088209101516001600160401b0316612d9f91614ed6565b612da98483614f11565b60601c96612db688615150565b60135490878b80516020810190808d88518060208b01865e820190602082015203602001601f1981018252612deb9082614a94565b519020946014546001600160401b03168c52600d602052818c2054825193849363ffffffff8c1685528960208601528401526060830152426001600160401b0316608083015260a0820161010090526101008201612e499082614b62565b82810360c0840152612e5a91614b62565b9281840360e08301528460801c63ffffffff16946001600160401b031693612e8191614b62565b037f68c15becb456983ccd0bb91ee412f7ac1f7067f4db3cd691c0b1ce14eab4d6e491a4600654612ebb91906001600160a01b03166154ad565b63ffffffff8216612f7a5750506005546001600160a01b03169050803b15610d1a57612efd938386518096819582946340c10f1960e01b845260048401614ddb565b03925af18015612f6e57612f59575b50602091505b601354906001600160401b038216916001600160401b03612f3284614f47565b16906001600160401b0319161760135560015f516020615b3f5f395f51905f525551908152f35b612f64838092614a94565b611ef55781612f0c565b505051903d90823e3d90fd5b9194509250845160208101904282523360601b8782015260348152612fa0605482614a94565b5190209360018060a01b036005541692833b1561321e5786516340c10f1960e01b81528890818180612fd6863060048401614ddb565b0381838a5af1801561322257613209575b50506020816130179560018060a01b03600454168b8b5180998195829463095ea7b360e01b845260048401614ddb565b03925af19384156131ff57613119946131e2575b5061303461520b565b508651923060601b602085015260148452613050603485614a94565b6006548851906001600160601b03199060601b16602082015260148152613078603482614a94565b6130ef89519261309c8461308e60208201615808565b03601f198101865285614a94565b6130d98b516130b1816113736020820161587c565b8c51906130bd82614a0b565b81528c518e6130cd602083614a94565b815260208201526158de565b958b51976130e689614a26565b88523691614c55565b602086015288850152816060850152608084015260a0830152600360c083015260e0820152615918565b83519061312582614a42565b60028252600360208301528482015262093a8042018042116131ce57633b9aca00810290808204633b9aca0014901517156131ce576004548693926001600160a01b039091169190823b15610d12576001600160401b03916131a0869289519889978896879563ff0d7c2f60e01b8752169060048601614e26565b03925af18015612f6e576131b9575b5060209150612f12565b6131c4838092614a94565b611ef557816131af565b634e487b7160e01b86526011600452602486fd5b6131fa9060203d60201161163d576116308183614a94565b61302b565b87513d8a823e3d90fd5b8161321391614a94565b61321e57875f612fe7565b8780fd5b89513d84823e3d90fd5b600983018c52808c209c8c5b601f19841681106132835750918c9d6001926009949d9e9c9d83601f1981161061326b575b505050811b01910155612d3c565b01515f1960f88460031b161c191690555f808061325d565b828201518f556001909e019d60209283019201613238565b634e487b7160e01b8b52604160045260248bfd5b6008018c52808c209192601f1984168d5b8181106132fe57509084600195949392106132e6575b505050811b0160088b0155612cd3565b01515f1960f88460031b161c191690555f80806132d6565b929360206001819287860151815501950193016132c0565b6007018c52808c209192601f1984168d5b818110613365575090846001959493921061334d575b505050811b0160078b0155612c75565b01515f1960f88460031b161c191690555f808061333d565b92936020600181928786015181550195019301613327565b634e487b7160e01b8d52602160045260248dfd5b634e487b7160e01b87526011600452602487fd5b503461020e57604036600319011261020e576133bf614886565b63ffffffff1681526011602052604081208054602435929083101561020e5760206001600160401b036133f28585614c19565b90549060031b1c16604051908152f35b503461020e578060031936011261020e5760206001600160401b0360145460801c16604051908152f35b503461020e57602036600319011261020e57604060c09163ffffffff613450614886565b168152600f6020522061277e8154916001810154906002810154600460038301549201549260405195865260208601526040850152606084015263ffffffff8116608084015260ff60a084019160201c16614c0c565b503461020e578060031936011261020e5760206001600160401b0360135460401c16604051908152f35b503461020e576134df36614bc8565b91936134ec939193615025565b6134f461505d565b60409261352284516135068682614a94565b6007815266756e7374616b6560c81b6020820152848789615321565b61352b33615150565b90601354966001600160401b0388169786513360601b80602083015260148252613556603483614a94565b88519060208201526014815261356d603482614a94565b63ffffffff89519361357e856149ef565b6001855260801c1660208401528a8984015263ffffffff85166060840152608083019a878c5260a084019088825260c08501928a845260e08601948a86528a6101008801526001600160401b0342166101208801526101408701526101608601526135ea368d88614c55565b6101808601528852600e6020528988209b84516002811015613ac7578d54602087015164ffffffff0060089190911b1660ff9290921664ffffffffff1990911617178d558a8501518d5467ffffffffffffffff60281b63ffffffff60681b606089015160681b169260281b169070ffffffffffffffffffffffff0000000000191617178d555160018d01555160028c01555160038b01555160048a015561010081015160058a01556001600160401b03610120820151166001600160401b0360068b0191166001600160401b0319825416179055600789016101408201518051906001600160401b038211611575576136ed826136e78554614988565b85614e9e565b602090601f8311600114613a655761371b92918991836109fb5750508160011b915f199060031b1c19161790565b90555b600889016101608201518051906001600160401b03821161157557613747826136e78554614988565b602090601f8311600114613a035761377592918991836109fb5750508160011b915f199060031b1c19161790565b90555b6101808101519889516001600160401b0381116139ef5760209a6137ac826137a36009860154614988565b60098601614e9e565b8b90601f8311600114613938579461386463ffffffff956001600160401b038d9e949d8d612f129f60028f806138719c7fbd12d1f018525dbd91b3185d055f7adc0a2049f9138672a47851ad0e19a8d2669f6138288e6138699f613846986009948c98926109fb5750508160011b915f199060031b1c19161790565b9101555b8d60135460801c1681526020600f90522001918254614daa565b905560135460801c89168d526011602052808d209201511690614ed6565b614f11565b60601c615150565b92613924613902601354968b8981518f80826138a892810194875180848a01885e820190838201520301601f198101835282614a94565b519020996001600160401b03601454168152600d8f5220548c519586951685528a8e8601528c8501526001600160401b034216606085015260e060808501526138f460e0850182614b62565b9084820360a0860152614b62565b82810360c08401526001600160401b0363ffffffff8860801c16971695614b62565b0390a46005546001600160a01b03166154ad565b9060098401895280892091895b601f19851681106139d8575063ffffffff956001600160401b038d9e949d8d612f129f60028f84906138719c7fbd12d1f018525dbd91b3185d055f7adc0a2049f9138672a47851ad0e19a8d2669f9a60018e6138699f976009936138649e6138469a601f198116106139c0575b505050811b0191015561382c565b01515f1960f88460031b161c191690555f80806139b2565b91928e600181928685015181550194019201613945565b634e487b7160e01b87526041600452602487fd5b8389528189209190601f1984168a5b818110613a4d5750908460019594939210613a35575b505050811b019055613778565b01515f1960f88460031b161c191690555f8080613a28565b92936020600181928786015181550195019301613a12565b8389528189209190601f1984168a5b818110613aaf5750908460019594939210613a97575b505050811b01905561371e565b01515f1960f88460031b161c191690555f8080613a8a565b92936020600181928786015181550195019301613a74565b634e487b7160e01b8a52602160045260248afd5b503461020e57604036600319011261020e57613af5614886565b63ffffffff1681526012602052604081208054602435929083101561020e57602063ffffffff6133f28585614b93565b503461020e578060031936011261020e5760206001600160401b0360145460401c16604051908152f35b503461400d57602036600319011261400d5760043590613b6d615025565b613b8b60145460c01c6001600160401b0360035460401c1690614cce565b91613c346040517f6e6f742079657420756e626f6e64696e672062617463682074696d652c206e656020820152723c3a103130ba31b4103a34b6b2b9ba30b6b81d60691b60408201526001600160401b0360c01b8560c01b1660538201526901031bab93932b73a1d160b51b605b8201526001600160401b038060c01b4260c01b1695866065840152604d8352613c23606d84614a94565b166001600160401b03421611614cee565b613cab6020613c9b6003603a613c4986615095565b6040519485917f7b227375626d69745f6261746368223a207b2273616c74223a22000000000000828401528051918291018484015e810162227d7d60e81b838201520301601c19810184520182614a94565b6040516114538161144c81614d1e565b9062093a804201804211614011576001600160401b03613ccb9116614db7565b9063ffffffff60135460a01c165f526010602052600360405f2001600160ff1982541617905560018060a01b03600554169463ffffffff60135460a01c165f52601060205260405f205495803b1561400d57604051632770a7eb60e21b8152965f918891829084908290613d43903060048401614ddb565b03925af1801561400257613fec575b84955060018060c01b03601454161760145560018060a01b036004541663ffffffff600c541692813b15610d0e57858094613da36040519788968795869463ff0d7c2f60e01b865260048601614e26565b03925af18015610dd857613fd7575b505063ffffffff6013548160a01b613dce838360a01c16614e5e565b60a01b16908260a01b1916178060135560a01c1660405190613def826149c0565b82825260036020830192848452604081018581526060820194868652608083019480865287526010602052604087209251835551600183015551600282015501915160068110156109e7578254915164ffffffffff1990921660ff9091161760089190911b64ffffffff00161790556040516020613e6d8183614a94565b8282525f36813763ffffffff60135460a01c1683526012815260408320918051906001600160401b038211610ab957600160401b8211610ab95782908454838655808410613f89575b5001928452818420908060031c92855b848110613f48575060071982169091039081613ef2575b8560015f516020615b3f5f395f51905f525580f35b93908594865b828110613f0f575050505001555f80808080613edd565b9091929582613f3d60019263ffffffff8a5116908560021b63ffffffff809160031b9316831b921b19161790565b970193929101613ef8565b86875b60088110613f60575084820155600101613ec6565b8751909791600191859163ffffffff60058c901b81811b199092169216901b1792019701613f4b565b613fb790868852838820600780870160031c820192601c8860021b1680613fbd575b500160031c0190614e88565b5f613eb6565b5f198501908154905f19908a0360031b1c1690555f613fab565b81613fe191614a94565b61020e57805f613db2565b9350935f613ff991614a94565b5f928490613d52565b6040513d5f823e3d90fd5b5f80fd5b634e487b7160e01b5f52601160045260245ffd5b3461400d575f36600319011261400d5760206001600160401b0360145416604051908152f35b3461400d57602036600319011261400d5763ffffffff614069614886565b165f52601060205260a060405f2063ffffffff8154916001810154906003600282015491015491604051948552602085015260408401526140b06060840160ff8316614b86565b60081c166080820152f35b3461400d57602036600319011261400d576004356001600160401b03811680910361400d575f52600e602052606063ffffffff610e2e60405f206141c98154916141ba60018201546002830154600384015460048501546005860154916001600160401b036006880154169361413360078901614ab5565b9561414c600961414560088c01614ab5565b9a01614ab5565b9a6040519e8f9e8f926141628460ff8316614b55565b818160081c1660208501526001600160401b038160281c16604085015260681c1691015260808d015260a08c015260c08b015260e08a01526101008901526101208801526101a06101408801526101a0870190614b62565b90858203610160870152614b62565b90838203610180850152614b62565b3461400d575f36600319011261400d57602060405160018152f35b3461400d575f36600319011261400d57602063ffffffff60135460a01c16604051908152f35b3461400d57614227366148c6565b505050919493959290965061423a615025565b61424261505d565b6004546001600160a01b0316330361483f576001600160401b034216946014546001600160401b0360801b4260801b16906001600160401b0360801b1916176014556040519663e5c5e9a360e01b8852602060048901525f88806142ab8c886024840191614c8b565b038173__$f199205d1aa6c8e0e27d1f2cac7a8250ba$__5af4978815614002575f98614741575b507f1315a25151b31341e6603bf2f9fbf1be7bf78431415a1a0dd182d49a2017406b9697989261433a949263ffffffff61432c93816040519a8b9a8b521660208a015216604088015260a0606088015260a0870191614c8b565b918483036080860152614c8b565b0390a1608082016001600160401b0381511661466c575b505080516040516143816020828180820195805191829101875e81015f838201520301601f198101835282614a94565b51902060405160208101906c6875625f62617463685f61636b60981b8252600d81526143ae602d82614a94565b5190208103614440575060200163ffffffff8151165f52600f60205260ff600460405f20015460201c16600481101561442c576001146143fe575b505b60015f516020615b3f5f395f51905f5255005b63ffffffff9051165f52600f602052600460405f200164020000000060ff60201b19825416179055806143e9565b634e487b7160e01b5f52602160045260245ffd5b6040516020810190766875625f62617463685f756e626f6e64696e675f61636b60481b825260178152614474603782614a94565b51902081036144f55750602081019063ffffffff8251165f52601060205260ff600360405f20015416600681101561442c576001146144b5575b50506143eb565b606063ffffffff91828451165f526010602052600360405f2001600260ff1982541617905501519151165f526010602052600160405f20015580806144ae565b60405160208101907f6875625f62617463685f756e626f6e64696e675f7265636569766564000000008252601c815261452f603c82614a94565b51902081036145ae5750602081019063ffffffff8251165f52601060205260ff600360405f20015416600681101561442c5760021461456f5750506143eb565b604063ffffffff91828451165f5260106020526003825f2001600360ff1982541617905501519151165f526010602052600260405f20015580806144ae565b60405160208101907f6875625f62617463685f756e626f6e64696e675f72656c6561736564000000008252601c81526145e8603c82614a94565b519020146145f7575b506143eb565b60200163ffffffff8151165f52601060205260ff600360405f20015416600681101561442c576003036145f15763ffffffff8151165f526010602052600360405f2001600460ff19825416179055516013549063ffffffff60c01b9060c01b169063ffffffff60c01b191617601355806145f1565b60608301918251815f52600d60205260405f20556001600160401b0319601454161760145551601354906001600160401b0360401b9060401b16906001600160401b0360401b19161760135563ffffffff6020830151167fa554da64c10255ff8ffb58ba2efc014f2f4bf466d2bdc09896ef517d2de17ec361473184516040516147156020828180820195805191829101875e81015f838201520301601f198101835282614a94565b5190209385519051604051928392604084526040840190614b62565b9060208301520390a38180614351565b90989293919697503d805f833e6147588183614a94565b81019060208183031261400d578051906001600160401b03821161400d570160a08183031261400d576040519161478e836149c0565b81516001600160401b03811161400d57820181601f8201121561400d578051906147b782614c3a565b926147c56040519485614a94565b8284526020838301011161400d57815f9260208093018386015e83010152825260208101519063ffffffff8216820361400d57608091602084015260408101516040840152606081015160608401520151936001600160401b038516850361400d576080820194909452919791969590929161432c6142d2565b60405162461bcd60e51b81526020600482015260096024820152684f6e6c79207a6b676d60b81b6044820152606490fd5b600435906001600160a01b038216820361400d57565b6004359063ffffffff8216820361400d57565b9181601f8401121561400d578235916001600160401b03831161400d576020838186019501011161400d57565b9061010060031983011261400d576004356001600160a01b038116810361400d57916024359160443563ffffffff8116810361400d579160643563ffffffff8116810361400d57916084356001600160401b03811161400d578261492c91600401614899565b9290929160a4356001600160401b03811161400d578261494e91600401614899565b9092909160c4356001600160a01b038116810361400d579160e435906001600160401b03821161400d5761498491600401614899565b9091565b90600182811c921680156149b6575b60208310146149a257565b634e487b7160e01b5f52602260045260245ffd5b91607f1691614997565b60a081019081106001600160401b038211176149db57604052565b634e487b7160e01b5f52604160045260245ffd5b6101a081019081106001600160401b038211176149db57604052565b604081019081106001600160401b038211176149db57604052565b61010081019081106001600160401b038211176149db57604052565b606081019081106001600160401b038211176149db57604052565b60c081019081106001600160401b038211176149db57604052565b6101c081019081106001600160401b038211176149db57604052565b90601f801991011681019081106001600160401b038211176149db57604052565b9060405191825f825492614ac884614988565b8084529360018116908115614b335750600114614aef575b50614aed92500383614a94565b565b90505f9291925260205f20905f915b818310614b17575050906020614aed928201015f614ae0565b6020919350806001915483858901015201910190918492614afe565b905060209250614aed94915060ff191682840152151560051b8201015f614ae0565b90600282101561442c5752565b805180835260209291819084018484015e5f828201840152601f01601f1916010190565b90600682101561442c5752565b9190918054831015614bb4575f52601c60205f208360031c019260021b1690565b634e487b7160e01b5f52603260045260245ffd5b90606060031983011261400d5760043591602435906001600160401b03821161400d57614bf791600401614899565b909160443563ffffffff8116810361400d5790565b90600482101561442c5752565b9190918054831015614bb4575f52601860205f208360021c019260031b1690565b6001600160401b0381116149db57601f01601f191660200190565b929192614c6182614c3a565b91614c6f6040519384614a94565b82948184528183011161400d578281602093845f960137010152565b908060209392818452848401375f828201840152601f01601f1916010190565b90600481101561442c5760ff60201b82549160201b169060ff60201b1916179055565b906001600160401b03809116911601906001600160401b03821161401157565b15614cf65750565b60405162461bcd60e51b815260206004820152908190614d1a906024830190614b62565b0390fd5b600b545f9291614d2d82614988565b8082529160018116908115614d8e5750600114614d48575050565b600b5f9081529293509091905f516020615aff5f395f51905f525b838310614d74575060209250010190565b600181602092949394548385870101520191019190614d63565b9050602093945060ff929192191683830152151560051b010190565b9190820180921161401157565b6001600160401b03633b9aca00911602906001600160401b03821691820361401157565b6001600160a01b039091168152602081019190915260400190565b9060606040614e239360ff815116845260ff60208201511660208501520151918160408201520190614b62565b90565b90926001600160401b0360a09363ffffffff614e2397961684525f602085015216604083015260608201528160808201520190614df6565b63ffffffff1663ffffffff81146140115760010190565b8181029291811591840414171561401157565b818110614e93575050565b5f8155600101614e88565b9190601f8111614ead57505050565b614aed925f5260205f20906020601f840160051c83019310610aaf57601f0160051c0190614e88565b8054600160401b8110156149db57614ef391600182018155614c19565b6001600160401b0380839493549260031b9316831b921b1916179055565b356001600160601b0319811692919060148210614f2c575050565b6001600160601b031960149290920360031b82901b16169150565b6001600160401b03166001600160401b0381146140115760010190565b805115614bb45760200190565b805160011015614bb45760400190565b8051821015614bb45760209160051b010190565b9081602091031261400d5751801515810361400d5790565b356001600160a01b038116810361400d5790565b903590601e198136030182121561400d57018035906001600160401b03821161400d5760200191813603831361400d57565b356001600160401b038116810361400d5790565b8115615011570490565b634e487b7160e01b5f52601260045260245ffd5b60025f516020615b3f5f395f51905f52541461504e5760025f516020615b3f5f395f51905f5255565b633ee5aeb560e01b5f5260045ffd5b60ff5f516020615b1f5f395f51905f52541661507557565b63d93c066560e01b5f5260045ffd5b908151811015614bb4570160200190565b806150a06042614c3a565b916150ae6040519384614a94565b604283526150bc6042614c3a565b6020840190601f1901368237835115614bb45760309053825160011015614bb4576078602184015360415b6001811161510f57506150f8575090565b63e22e27eb60e01b5f52600452602060245260445ffd5b90600f81166010811015614bb4576f181899199a1a9b1b9c1cb0b131b232b360811b901a61513d8386615084565b5360041c908015614011575f19016150e7565b8061515b602a614c3a565b916151696040519384614a94565b602a8352615177602a614c3a565b6020840190601f1901368237835115614bb45760309053825160011015614bb4576078602184015360295b600181116151ca57506151b3575090565b63e22e27eb60e01b5f52600452601460245260445ffd5b90600f81166010811015614bb4576f181899199a1a9b1b9c1cb0b131b232b360811b901a6151f88386615084565b5360041c908015614011575f19016151a2565b6040519061521882614a42565b60606040835f81525f60208201520152565b61523261520b565b50604051906001600160601b03199060601b16602082015260148152615259603482614a94565b60405160808101938185106001600160401b038611176149db576152c86152da94826060611373956152b0996040528781525f602082015283604082015201526040519687956080602088015260a0870190614b62565b5f6040870152858103601f1901606087015290614b62565b838103601f1901608085015290614b62565b604051906152e782614a42565b5f825260016020830152604082015290565b6040516020810190647374616b6560d81b82526005815261531b602582614a94565b51902090565b9092919280156154685761533491614f11565b60601c15615424576040516153686020828180820195805191829101875e81015f838201520301601f198101835282614a94565b5190206153736152f9565b81146153d9575b6153826152f9565b1461538a5750565b6002541161539457565b60405162461bcd60e51b815260206004820152601b60248201527f756e7374616b6520616d6f756e7420697320746f6f20736d616c6c00000000006044820152606490fd5b60015482101561537a5760405162461bcd60e51b81526020600482015260196024820152781cdd185ad948185b5bdd5b9d081a5cc81d1bdbc81cdb585b1b603a1b6044820152606490fd5b606460405162461bcd60e51b815260206004820152602060248201527f726563697069656e742063616e6e6f74206265207a65726f20616464726573736044820152fd5b60405162461bcd60e51b815260206004820152601d60248201527f726563697069656e74206d757374206e6f7420626520302062797465730000006044820152606490fd5b604051636eb1769f60e11b81523360048201523060248201526001600160a01b03919091169190602081604481865afa80156140025782915f916155c8575b501061558a575f91606460209260405194859384926323b872dd60e01b845233600485015230602485015260448401525af1908115614002575f9161556b575b501561553457565b60405162461bcd60e51b815260206004820152600f60248201526e151c985b9cd9995c8819985a5b1959608a1b6044820152606490fd5b615584915060203d60201161163d576116308183614a94565b5f61552c565b60405162461bcd60e51b8152602060048201526016602482015275496e73756666696369656e7420616c6c6f77616e636560501b6044820152606490fd5b9150506020813d6020116155f5575b816155e460209383614a94565b8101031261400d578190515f6154ec565b3d91506155d7565b5f516020615a9f5f395f51905f52546001600160a01b0316330361561d57565b63118cdaa760e01b5f523360045260245ffd5b5f516020615b7f5f395f51905f5280546001600160a01b03199081169091555f516020615a9f5f395f51905f5280549182166001600160a01b0393841690811790915591167f8be0079c531659141344cd1fd0a4f28419497f9722a3daafe3b4186f6b6457e05f80a3565b5f908072184f03e93ff9f4daa797ed6e38ed64bf6a1f0160401b8110156157e5575b806d04ee2d6d415b85acef8100000000600a9210156157ca575b662386f26fc100008110156157b6575b6305f5e1008110156157a5575b612710811015615796575b6064811015615788575b101561577d575b600a6021600184019361572285614c3a565b946157306040519687614a94565b80865261573f601f1991614c3a565b013660208701378401015b5f1901916f181899199a1a9b1b9c1cb0b131b232b360811b8282061a835304801561577857600a909161574a565b505090565b600190910190615710565b606460029104930192615709565b612710600491049301926156ff565b6305f5e100600891049301926156f4565b662386f26fc10000601091049301926156e7565b6d04ee2d6d415b85acef8100000000602091049301926156d7565b506040915072184f03e93ff9f4daa797ed6e38ed64bf6a1f0160401b81046156bd565b6009545f929161581782614988565b916001811690811561586a575060011461582f575050565b60095f90815292935090915f516020615adf5f395f51905f525b8382106158565750500190565b600181602092548486015201910190615849565b60ff1916825250811515909102019150565b600a545f929161588b82614988565b916001811690811561586a57506001146158a3575050565b600a5f90815292935090915f516020615a7f5f395f51905f525b8382106158ca5750500190565b6001816020925484860152019101906158bd565b614e236159069161137360208251920151604051948593604060208601526060850190614b62565b838103601f1901604085015290614b62565b614e2361012061137383519360208101516040820151916159aa6060820151608083015161599360a08501519661598160e060ff60c0890151169701519761596f6040519e8f9d8e61010060208201520190614b62565b8c8103601f190160408e015290614b62565b8a8103601f190160608c015290614b62565b916080890152601f198883030160a0890152614b62565b9260c086015260e0850152601f1984830301610100850152614b62565b60ff5f516020615b5f5f395f51905f525460401c16156159e357565b631afcd79f60e31b5f5260045ffd5b905f8091602081519101845af48080615a6b575b15615a265750506040513d81523d5f602083013e60203d82010160405290565b15615a4b57639996b31560e01b5f9081526001600160a01b0391909116600452602490fd5b3d15615a5c576040513d5f823e3d90fd5b63d6bda27560e01b5f5260045ffd5b503d151580615a065750813b1515615a0656fec65a7bb8d6351c1cf70c95a316cc6a92839c986682d98bc35f958f4883f9d2a89016d09d72d40fdae2fd8ceac6b6234c7706214fd39c1cd1e609a0528c199300360894a13ba1a3210667c828492db98dca3e2076cc3735a920a3ca505d382bbc6e1540171b6c0c960b71a7020d9f60077f6af931a8bbf590da0223dacf75c7af0175b7a638427703f0dbe7bb9bbf987a2551717b34e79f33b5b1008d1fa01db9cd5ed15c6e187e77e9aee88184c21f4f2182ab5827cb3b7e07fbedcd63f033009b779b17422d0df92223018b32b4d1fa46e071723d6817e2486d003becc55f00f0c57e16840df040f15088dc2f81fe391c3923bec73e23a9662efc9c229c6a00237e158222e3e6968b72b9db0d8043aacf074ad9f650f0d1606b4d82ee432c00a26469706673582212205266c133ecb2db01b5239a3fde5cccf010c6ea156f16c48965cc7e2cc1026ec064736f6c634300081c0033f0c57e16840df040f15088dc2f81fe391c3923bec73e23a9662efc9c229c6a00","linkReferences":{"src/core/Zkgm.sol":{"ZkgmLstLib":[{"start":17270,"length":20}]}}},"methodIdentifiers":{"SCALING_FACTOR()":"ef4cadc5","UPGRADE_INTERFACE_VERSION()":"ad3cb1cc","acceptOwnership()":"79ba5097","acceptOwnershipTransfer()":"b842e87f","batchHubRecordIds(uint32,uint256)":"495f23de","batchWithdrawal()":"8dc32360","batches(uint32)":"3fef78cb","calculateReleaseAmount(uint256,uint256,uint256)":"e3eaf1a7","config()":"79502c55","currentHubBatchId()":"f1be61a9","currentRate()":"f9f8bdb7","currentUnbondingBatchId()":"0d6d6dd2","getHubBatch(uint32)":"54f3b3da","getHubRecord(uint64)":"8ce102d6","getVersion()":"0d8e6e2c","hubRecords(uint64)":"0fae3c52","initialize((uint256,uint256,uint256,uint64,uint64,address,address,address,address,string,string,string,string,bytes,address,uint32))":"bfae6991","isTestMode()":"60efe48c","lastHubBatchTimestamp()":"346c2e45","lastUnbondingBatchTimestamp()":"4cce123d","lastUnionBlockRecorded()":"3d07716b","lastUpdateTimestamp()":"14bcec9f","lastZkgmTimestamp()":"4172f1fb","onIntentZkgm(address,uint256,uint32,uint32,bytes,bytes,address,bytes)":"8c81dd76","onZkgm(address,uint256,uint32,uint32,bytes,bytes,address,bytes)":"0bf1e375","owner()":"8da5cb5b","pauseToggle()":"834307d9","paused()":"5c975abb","pendingOwner()":"e30c3978","pendingReleasedUnbondingBatchId()":"5c24e4f6","proxiableUUID()":"52d1902d","renounceOwnership()":"715018a6","stake(uint256,bytes,uint32)":"4b4f37cd","submitBatch(bytes32)":"a23f6c50","submitUnbondingBatch(bytes32)":"2ce76287","transferOwnership(address)":"f2fde38b","unbondingBatch()":"87eca14c","unbondingBatches(uint32)":"114771b2","unbondingHubBatchIds(uint32,uint256)":"351e131c","unstake(uint256,bytes,uint32)":"381ac293","upgradeToAndCall(address,bytes)":"4f1ef286"},"storageLayout":{"storage":[{"astId":64712,"contract":"src/Lst.sol:Lst","label":"s_config","offset":0,"slot":"0","type":"t_struct(Config)66988_storage"},{"astId":64716,"contract":"src/Lst.sol:Lst","label":"exchangeRate","offset":0,"slot":"13","type":"t_mapping(t_uint64,t_uint256)"},{"astId":64721,"contract":"src/Lst.sol:Lst","label":"hubRecords","offset":0,"slot":"14","type":"t_mapping(t_uint64,t_struct(HubRecord)67019_storage)"},{"astId":64726,"contract":"src/Lst.sol:Lst","label":"batches","offset":0,"slot":"15","type":"t_mapping(t_uint32,t_struct(HubBatch)67038_storage)"},{"astId":64731,"contract":"src/Lst.sol:Lst","label":"unbondingBatches","offset":0,"slot":"16","type":"t_mapping(t_uint32,t_struct(UnbondingBatch)67057_storage)"},{"astId":64736,"contract":"src/Lst.sol:Lst","label":"batchHubRecordIds","offset":0,"slot":"17","type":"t_mapping(t_uint32,t_array(t_uint64)dyn_storage)"},{"astId":64741,"contract":"src/Lst.sol:Lst","label":"unbondingHubBatchIds","offset":0,"slot":"18","type":"t_mapping(t_uint32,t_array(t_uint32)dyn_storage)"},{"astId":64743,"contract":"src/Lst.sol:Lst","label":"hubRecordId","offset":0,"slot":"19","type":"t_uint64"},{"astId":64745,"contract":"src/Lst.sol:Lst","label":"lastUnionBlockRecorded","offset":8,"slot":"19","type":"t_uint64"},{"astId":64747,"contract":"src/Lst.sol:Lst","label":"currentHubBatchId","offset":16,"slot":"19","type":"t_uint32"},{"astId":64749,"contract":"src/Lst.sol:Lst","label":"currentUnbondingBatchId","offset":20,"slot":"19","type":"t_uint32"},{"astId":64751,"contract":"src/Lst.sol:Lst","label":"pendingReleasedUnbondingBatchId","offset":24,"slot":"19","type":"t_uint32"},{"astId":64753,"contract":"src/Lst.sol:Lst","label":"lastUpdateTimestamp","offset":0,"slot":"20","type":"t_uint64"},{"astId":64755,"contract":"src/Lst.sol:Lst","label":"lastHubBatchTimestamp","offset":8,"slot":"20","type":"t_uint64"},{"astId":64757,"contract":"src/Lst.sol:Lst","label":"lastZkgmTimestamp","offset":16,"slot":"20","type":"t_uint64"},{"astId":64759,"contract":"src/Lst.sol:Lst","label":"lastUnbondingBatchTimestamp","offset":24,"slot":"20","type":"t_uint64"}],"types":{"t_address":{"encoding":"inplace","label":"address","numberOfBytes":"20"},"t_array(t_uint32)dyn_storage":{"encoding":"dynamic_array","label":"uint32[]","numberOfBytes":"32","base":"t_uint32"},"t_array(t_uint64)dyn_storage":{"encoding":"dynamic_array","label":"uint64[]","numberOfBytes":"32","base":"t_uint64"},"t_bytes_storage":{"encoding":"bytes","label":"bytes","numberOfBytes":"32"},"t_enum(BatchStatus)67024":{"encoding":"inplace","label":"enum BatchStatus","numberOfBytes":"1"},"t_enum(RecordType)66991":{"encoding":"inplace","label":"enum RecordType","numberOfBytes":"1"},"t_enum(UnbondingBatchStatus)67045":{"encoding":"inplace","label":"enum UnbondingBatchStatus","numberOfBytes":"1"},"t_mapping(t_uint32,t_array(t_uint32)dyn_storage)":{"encoding":"mapping","key":"t_uint32","label":"mapping(uint32 => uint32[])","numberOfBytes":"32","value":"t_array(t_uint32)dyn_storage"},"t_mapping(t_uint32,t_array(t_uint64)dyn_storage)":{"encoding":"mapping","key":"t_uint32","label":"mapping(uint32 => uint64[])","numberOfBytes":"32","value":"t_array(t_uint64)dyn_storage"},"t_mapping(t_uint32,t_struct(HubBatch)67038_storage)":{"encoding":"mapping","key":"t_uint32","label":"mapping(uint32 => struct HubBatch)","numberOfBytes":"32","value":"t_struct(HubBatch)67038_storage"},"t_mapping(t_uint32,t_struct(UnbondingBatch)67057_storage)":{"encoding":"mapping","key":"t_uint32","label":"mapping(uint32 => struct UnbondingBatch)","numberOfBytes":"32","value":"t_struct(UnbondingBatch)67057_storage"},"t_mapping(t_uint64,t_struct(HubRecord)67019_storage)":{"encoding":"mapping","key":"t_uint64","label":"mapping(uint64 => struct HubRecord)","numberOfBytes":"32","value":"t_struct(HubRecord)67019_storage"},"t_mapping(t_uint64,t_uint256)":{"encoding":"mapping","key":"t_uint64","label":"mapping(uint64 => uint256)","numberOfBytes":"32","value":"t_uint256"},"t_string_storage":{"encoding":"bytes","label":"string","numberOfBytes":"32"},"t_struct(Config)66988_storage":{"encoding":"inplace","label":"struct Config","numberOfBytes":"416","members":[{"astId":66961,"contract":"src/Lst.sol:Lst","label":"feeRate","offset":0,"slot":"0","type":"t_uint256"},{"astId":66963,"contract":"src/Lst.sol:Lst","label":"minStake","offset":0,"slot":"1","type":"t_uint256"},{"astId":66965,"contract":"src/Lst.sol:Lst","label":"minUnstake","offset":0,"slot":"2","type":"t_uint256"},{"astId":66967,"contract":"src/Lst.sol:Lst","label":"hubBatchPeriod","offset":0,"slot":"3","type":"t_uint64"},{"astId":66969,"contract":"src/Lst.sol:Lst","label":"unbondingBatchPeriod","offset":8,"slot":"3","type":"t_uint64"},{"astId":66971,"contract":"src/Lst.sol:Lst","label":"zkgm","offset":0,"slot":"4","type":"t_address"},{"astId":66973,"contract":"src/Lst.sol:Lst","label":"lsToken","offset":0,"slot":"5","type":"t_address"},{"astId":66975,"contract":"src/Lst.sol:Lst","label":"baseToken","offset":0,"slot":"6","type":"t_address"},{"astId":66977,"contract":"src/Lst.sol:Lst","label":"feeReceiver","offset":0,"slot":"7","type":"t_address"},{"astId":66979,"contract":"src/Lst.sol:Lst","label":"baseTokenSymbol","offset":0,"slot":"8","type":"t_string_storage"},{"astId":66981,"contract":"src/Lst.sol:Lst","label":"baseTokenName","offset":0,"slot":"9","type":"t_string_storage"},{"astId":66983,"contract":"src/Lst.sol:Lst","label":"unionSolverAddress","offset":0,"slot":"10","type":"t_string_storage"},{"astId":66985,"contract":"src/Lst.sol:Lst","label":"unionLstContractAddress","offset":0,"slot":"11","type":"t_string_storage"},{"astId":66987,"contract":"src/Lst.sol:Lst","label":"unionChannelId","offset":0,"slot":"12","type":"t_uint32"}]},"t_struct(HubBatch)67038_storage":{"encoding":"inplace","label":"struct HubBatch","numberOfBytes":"160","members":[{"astId":67026,"contract":"src/Lst.sol:Lst","label":"stakeAmount","offset":0,"slot":"0","type":"t_uint256"},{"astId":67028,"contract":"src/Lst.sol:Lst","label":"mintAmount","offset":0,"slot":"1","type":"t_uint256"},{"astId":67030,"contract":"src/Lst.sol:Lst","label":"unstakeAmount","offset":0,"slot":"2","type":"t_uint256"},{"astId":67032,"contract":"src/Lst.sol:Lst","label":"releasedAmount","offset":0,"slot":"3","type":"t_uint256"},{"astId":67034,"contract":"src/Lst.sol:Lst","label":"id","offset":0,"slot":"4","type":"t_uint32"},{"astId":67037,"contract":"src/Lst.sol:Lst","label":"status","offset":4,"slot":"4","type":"t_enum(BatchStatus)67024"}]},"t_struct(HubRecord)67019_storage":{"encoding":"inplace","label":"struct HubRecord","numberOfBytes":"320","members":[{"astId":66994,"contract":"src/Lst.sol:Lst","label":"recordType","offset":0,"slot":"0","type":"t_enum(RecordType)66991"},{"astId":66996,"contract":"src/Lst.sol:Lst","label":"batchId","offset":1,"slot":"0","type":"t_uint32"},{"astId":66998,"contract":"src/Lst.sol:Lst","label":"id","offset":5,"slot":"0","type":"t_uint64"},{"astId":67000,"contract":"src/Lst.sol:Lst","label":"recipientChannelId","offset":13,"slot":"0","type":"t_uint32"},{"astId":67002,"contract":"src/Lst.sol:Lst","label":"stakeAmount","offset":0,"slot":"1","type":"t_uint256"},{"astId":67004,"contract":"src/Lst.sol:Lst","label":"mintAmount","offset":0,"slot":"2","type":"t_uint256"},{"astId":67006,"contract":"src/Lst.sol:Lst","label":"unstakeAmount","offset":0,"slot":"3","type":"t_uint256"},{"astId":67008,"contract":"src/Lst.sol:Lst","label":"releasedAmount","offset":0,"slot":"4","type":"t_uint256"},{"astId":67010,"contract":"src/Lst.sol:Lst","label":"exchangeRate","offset":0,"slot":"5","type":"t_uint256"},{"astId":67012,"contract":"src/Lst.sol:Lst","label":"timestamp","offset":0,"slot":"6","type":"t_uint64"},{"astId":67014,"contract":"src/Lst.sol:Lst","label":"sender","offset":0,"slot":"7","type":"t_bytes_storage"},{"astId":67016,"contract":"src/Lst.sol:Lst","label":"staker","offset":0,"slot":"8","type":"t_bytes_storage"},{"astId":67018,"contract":"src/Lst.sol:Lst","label":"recipient","offset":0,"slot":"9","type":"t_bytes_storage"}]},"t_struct(UnbondingBatch)67057_storage":{"encoding":"inplace","label":"struct UnbondingBatch","numberOfBytes":"128","members":[{"astId":67047,"contract":"src/Lst.sol:Lst","label":"unstakeAmount","offset":0,"slot":"0","type":"t_uint256"},{"astId":67049,"contract":"src/Lst.sol:Lst","label":"exchangeRate","offset":0,"slot":"1","type":"t_uint256"},{"astId":67051,"contract":"src/Lst.sol:Lst","label":"receivedAmount","offset":0,"slot":"2","type":"t_uint256"},{"astId":67054,"contract":"src/Lst.sol:Lst","label":"status","offset":0,"slot":"3","type":"t_enum(UnbondingBatchStatus)67045"},{"astId":67056,"contract":"src/Lst.sol:Lst","label":"id","offset":1,"slot":"3","type":"t_uint32"}]},"t_uint256":{"encoding":"inplace","label":"uint256","numberOfBytes":"32"},"t_uint32":{"encoding":"inplace","label":"uint32","numberOfBytes":"4"},"t_uint64":{"encoding":"inplace","label":"uint64","numberOfBytes":"8"}}},"id":118}