{"abi":[{"type":"function","name":"ACK_EMPTY","inputs":[],"outputs":[{"name":"","type":"bytes","internalType":"bytes"}],"stateMutability":"view"},{"type":"function","name":"ACK_ERR_ONLYMAKER","inputs":[],"outputs":[{"name":"","type":"bytes","internalType":"bytes"}],"stateMutability":"view"},{"type":"function","name":"ACK_ERR_ONLYMAKER_HASH","inputs":[],"outputs":[{"name":"","type":"bytes32","internalType":"bytes32"}],"stateMutability":"view"},{"type":"function","name":"ACK_FAILURE","inputs":[],"outputs":[{"name":"","type":"uint256","internalType":"uint256"}],"stateMutability":"view"},{"type":"function","name":"ACK_SUCCESS","inputs":[],"outputs":[{"name":"","type":"uint256","internalType":"uint256"}],"stateMutability":"view"},{"type":"function","name":"FILL_TYPE_MARKETMAKER","inputs":[],"outputs":[{"name":"","type":"uint256","internalType":"uint256"}],"stateMutability":"view"},{"type":"function","name":"FILL_TYPE_PROTOCOL","inputs":[],"outputs":[{"name":"","type":"uint256","internalType":"uint256"}],"stateMutability":"view"},{"type":"function","name":"FORWARD_SALT_MAGIC","inputs":[],"outputs":[{"name":"","type":"bytes32","internalType":"bytes32"}],"stateMutability":"view"},{"type":"function","name":"IBC_VERSION","inputs":[],"outputs":[{"name":"","type":"bytes32","internalType":"bytes32"}],"stateMutability":"view"},{"type":"function","name":"IBC_VERSION_STR","inputs":[],"outputs":[{"name":"","type":"string","internalType":"string"}],"stateMutability":"view"},{"type":"function","name":"INSTR_VERSION_0","inputs":[],"outputs":[{"name":"","type":"uint8","internalType":"uint8"}],"stateMutability":"view"},{"type":"function","name":"INSTR_VERSION_1","inputs":[],"outputs":[{"name":"","type":"uint8","internalType":"uint8"}],"stateMutability":"view"},{"type":"function","name":"INSTR_VERSION_2","inputs":[],"outputs":[{"name":"","type":"uint8","internalType":"uint8"}],"stateMutability":"view"},{"type":"function","name":"NATIVE_TOKEN_ERC_7528_ADDRESS","inputs":[],"outputs":[{"name":"","type":"address","internalType":"address"}],"stateMutability":"view"},{"type":"function","name":"OP_BATCH","inputs":[],"outputs":[{"name":"","type":"uint8","internalType":"uint8"}],"stateMutability":"view"},{"type":"function","name":"OP_CALL","inputs":[],"outputs":[{"name":"","type":"uint8","internalType":"uint8"}],"stateMutability":"view"},{"type":"function","name":"OP_FORWARD","inputs":[],"outputs":[{"name":"","type":"uint8","internalType":"uint8"}],"stateMutability":"view"},{"type":"function","name":"OP_TOKEN_ORDER","inputs":[],"outputs":[{"name":"","type":"uint8","internalType":"uint8"}],"stateMutability":"view"},{"type":"function","name":"TOKEN_ORDER_KIND_ESCROW","inputs":[],"outputs":[{"name":"","type":"uint8","internalType":"uint8"}],"stateMutability":"view"},{"type":"function","name":"TOKEN_ORDER_KIND_INITIALIZE","inputs":[],"outputs":[{"name":"","type":"uint8","internalType":"uint8"}],"stateMutability":"view"},{"type":"function","name":"TOKEN_ORDER_KIND_SOLVE","inputs":[],"outputs":[{"name":"","type":"uint8","internalType":"uint8"}],"stateMutability":"view"},{"type":"function","name":"TOKEN_ORDER_KIND_UNESCROW","inputs":[],"outputs":[{"name":"","type":"uint8","internalType":"uint8"}],"stateMutability":"view"},{"type":"function","name":"WRAPPED_TOKEN_KIND_PROTOCOL","inputs":[],"outputs":[{"name":"","type":"uint8","internalType":"uint8"}],"stateMutability":"view"},{"type":"function","name":"WRAPPED_TOKEN_KIND_THIRD_PARTY","inputs":[],"outputs":[{"name":"","type":"uint8","internalType":"uint8"}],"stateMutability":"view"},{"type":"event","name":"CreateProxyAccount","inputs":[{"name":"path","type":"uint256","indexed":false,"internalType":"uint256"},{"name":"channelId","type":"uint32","indexed":true,"internalType":"uint32"},{"name":"owner","type":"bytes","indexed":false,"internalType":"bytes"},{"name":"proxyAccount","type":"address","indexed":true,"internalType":"address"}],"anonymous":false},{"type":"event","name":"CreateWrappedToken","inputs":[{"name":"path","type":"uint256","indexed":false,"internalType":"uint256"},{"name":"channelId","type":"uint32","indexed":true,"internalType":"uint32"},{"name":"baseToken","type":"bytes","indexed":false,"internalType":"bytes"},{"name":"quoteToken","type":"address","indexed":true,"internalType":"address"},{"name":"metadata","type":"bytes","indexed":false,"internalType":"bytes"},{"name":"kind","type":"uint8","indexed":false,"internalType":"uint8"}],"anonymous":false},{"type":"error","name":"ErrAsyncCallUnsupported","inputs":[]},{"type":"error","name":"ErrBatchMustBeSync","inputs":[]},{"type":"error","name":"ErrCannotDeploy","inputs":[]},{"type":"error","name":"ErrChannelGovernanceTokenAlreadySet","inputs":[]},{"type":"error","name":"ErrChannelGovernanceTokenNotSet","inputs":[]},{"type":"error","name":"ErrInfiniteGame","inputs":[]},{"type":"error","name":"ErrInstructionCannotBeForwarded","inputs":[]},{"type":"error","name":"ErrInvalidAmount","inputs":[]},{"type":"error","name":"ErrInvalidAssetDecimals","inputs":[]},{"type":"error","name":"ErrInvalidAssetName","inputs":[]},{"type":"error","name":"ErrInvalidAssetOrigin","inputs":[]},{"type":"error","name":"ErrInvalidAssetSymbol","inputs":[]},{"type":"error","name":"ErrInvalidBatchInstruction","inputs":[]},{"type":"error","name":"ErrInvalidCallSender","inputs":[]},{"type":"error","name":"ErrInvalidFillType","inputs":[]},{"type":"error","name":"ErrInvalidForwardDestinationChannelId","inputs":[]},{"type":"error","name":"ErrInvalidForwardInstruction","inputs":[]},{"type":"error","name":"ErrInvalidHops","inputs":[]},{"type":"error","name":"ErrInvalidIBCVersion","inputs":[]},{"type":"error","name":"ErrInvalidMarketMakerOperation","inputs":[]},{"type":"error","name":"ErrInvalidMetadataImage","inputs":[]},{"type":"error","name":"ErrInvalidTokenOrderKind","inputs":[]},{"type":"error","name":"ErrInvalidUnescrow","inputs":[]},{"type":"error","name":"ErrInvalidUnwrappedGovernanceToken","inputs":[]},{"type":"error","name":"ErrMustBeUnwrap","inputs":[]},{"type":"error","name":"ErrMustBeWrap","inputs":[]},{"type":"error","name":"ErrOnlyMaker","inputs":[]},{"type":"error","name":"ErrStakingRewardNotWithdrawable","inputs":[]},{"type":"error","name":"ErrUnauthorized","inputs":[]},{"type":"error","name":"ErrUnknownOpcode","inputs":[]},{"type":"error","name":"ErrUnwrapBaseAmountSmallerThanQuoteAmount","inputs":[]},{"type":"error","name":"ErrWaitForUnstakingCompletion","inputs":[]}],"bytecode":{"object":"0x608080604052346019576103e2908161001e823930815050f35b5f80fdfe60806040526004361015610011575f80fd5b5f3560e01c806309002075146103145780631e0e04f514610121578063301553ef14610158578063356d71e3146101265780633a7fc8dc146102e55780633ecc2296146102d05780634d933aa5146102785780635a67253c146102395780636de49a5114610203578063714c4b5c146101eb578063715e71b9146101e65780637202b8c8146101cd57806374c32549146101ae5780637a2d131514610173578063890c998c146101265780638e36a11814610121578063ca9cfc4014610121578063cd04235114610158578063e0b7810d1461015d578063ea0fd4cf14610158578063ea76b5ee1461012b578063f031a60014610126578063f4b0bc2c146101265763f799421314610121575f80fd5b61015d565b6102d0565b5f36600319011261015457602060405173eeeeeeeeeeeeeeeeeeeeeeeeeeeeeeeeeeeeeeee8152f35b5f80fd5b61032a565b5f36600319011261015457602060405160018152f35b5f366003190112610154576101aa610189610340565b636f56e06f60e11b6020820152604051918291602083526020830190610388565b0390f35b5f3660031901126101545760405161babe61606f60f11b018152602090f35b5f36600319011261015457602060405163d1cec45e8152f35b610314565b5f36600319011261015457602060405162b0cad08152f35b5f366003190112610154576020610218610364565b818101906b075637330332d7a6b676d2d360a41b8252519020604051908152f35b5f366003190112610154576101aa61024f610364565b6b075637330332d7a6b676d2d360a41b6020820152604051918291602083526020830190610388565b5f36600319011261015457604051602081019080821067ffffffffffffffff8311176102bc576101aa916040525f8152604051918291602083526020830190610388565b634e487b7160e01b5f52604160045260245ffd5b5f3660031901126101545760206040515f8152f35b5f3660031901126101545760206102fa610340565b636f56e06f60e11b81830190815290519020604051908152f35b5f36600319011261015457602060405160038152f35b5f36600319011261015457602060405160028152f35b604051906040820182811067ffffffffffffffff8211176102bc5760405260048252565b604051906040820182811067ffffffffffffffff8211176102bc57604052600c8252565b805180835260209291819084018484015e5f828201840152601f01601f191601019056fea264697066735822122009100ea691572fb87e6737ebf285fbcfe62fd38ed6d436eada1d9630de707c4c64736f6c634300081c0033","linkReferences":{}},"methodIdentifiers":{"ACK_EMPTY()":"4d933aa5","ACK_ERR_ONLYMAKER()":"7a2d1315","ACK_ERR_ONLYMAKER_HASH()":"3a7fc8dc","ACK_FAILURE()":"3ecc2296","ACK_SUCCESS()":"e0b7810d","FILL_TYPE_MARKETMAKER()":"7202b8c8","FILL_TYPE_PROTOCOL()":"714c4b5c","FORWARD_SALT_MAGIC()":"74c32549","IBC_VERSION()":"6de49a51","IBC_VERSION_STR()":"5a67253c","INSTR_VERSION_0()":"356d71e3","INSTR_VERSION_1()":"8e36a118","INSTR_VERSION_2()":"301553ef","NATIVE_TOKEN_ERC_7528_ADDRESS()":"ea76b5ee","OP_BATCH()":"ea0fd4cf","OP_CALL()":"f7994213","OP_FORWARD()":"890c998c","OP_TOKEN_ORDER()":"715e71b9","TOKEN_ORDER_KIND_ESCROW()":"ca9cfc40","TOKEN_ORDER_KIND_INITIALIZE()":"f031a600","TOKEN_ORDER_KIND_SOLVE()":"09002075","TOKEN_ORDER_KIND_UNESCROW()":"cd042351","WRAPPED_TOKEN_KIND_PROTOCOL()":"f4b0bc2c","WRAPPED_TOKEN_KIND_THIRD_PARTY()":"1e0e04f5"},"storageLayout":{"storage":[],"types":{}},"id":98}