{"abi":[{"type":"constructor","inputs":[],"stateMutability":"nonpayable"},{"type":"function","name":"UPGRADE_INTERFACE_VERSION","inputs":[],"outputs":[{"name":"","type":"string","internalType":"string"}],"stateMutability":"view"},{"type":"function","name":"approve","inputs":[{"name":"to","type":"address","internalType":"address"},{"name":"tokenId","type":"uint256","internalType":"uint256"}],"outputs":[],"stateMutability":"nonpayable"},{"type":"function","name":"authority","inputs":[],"outputs":[{"name":"","type":"address","internalType":"address"}],"stateMutability":"view"},{"type":"function","name":"balanceOf","inputs":[{"name":"owner","type":"address","internalType":"address"}],"outputs":[{"name":"","type":"uint256","internalType":"uint256"}],"stateMutability":"view"},{"type":"function","name":"burn","inputs":[{"name":"tokenId","type":"uint256","internalType":"uint256"}],"outputs":[],"stateMutability":"nonpayable"},{"type":"function","name":"getApproved","inputs":[{"name":"tokenId","type":"uint256","internalType":"uint256"}],"outputs":[{"name":"","type":"address","internalType":"address"}],"stateMutability":"view"},{"type":"function","name":"gitRev","inputs":[],"outputs":[{"name":"","type":"string","internalType":"string"}],"stateMutability":"pure"},{"type":"function","name":"initialize","inputs":[{"name":"_authority","type":"address","internalType":"address"},{"name":"_minter","type":"address","internalType":"address"},{"name":"_name","type":"string","internalType":"string"},{"name":"_symbol","type":"string","internalType":"string"}],"outputs":[],"stateMutability":"nonpayable"},{"type":"function","name":"isApprovedForAll","inputs":[{"name":"owner","type":"address","internalType":"address"},{"name":"operator","type":"address","internalType":"address"}],"outputs":[{"name":"","type":"bool","internalType":"bool"}],"stateMutability":"view"},{"type":"function","name":"isConsumingScheduledOp","inputs":[],"outputs":[{"name":"","type":"bytes4","internalType":"bytes4"}],"stateMutability":"view"},{"type":"function","name":"mint","inputs":[{"name":"tokenId","type":"uint256","internalType":"uint256"},{"name":"to","type":"address","internalType":"address"}],"outputs":[],"stateMutability":"nonpayable"},{"type":"function","name":"name","inputs":[],"outputs":[{"name":"","type":"string","internalType":"string"}],"stateMutability":"view"},{"type":"function","name":"ownerOf","inputs":[{"name":"tokenId","type":"uint256","internalType":"uint256"}],"outputs":[{"name":"","type":"address","internalType":"address"}],"stateMutability":"view"},{"type":"function","name":"proxiableUUID","inputs":[],"outputs":[{"name":"","type":"bytes32","internalType":"bytes32"}],"stateMutability":"view"},{"type":"function","name":"safeTransferFrom","inputs":[{"name":"from","type":"address","internalType":"address"},{"name":"to","type":"address","internalType":"address"},{"name":"tokenId","type":"uint256","internalType":"uint256"}],"outputs":[],"stateMutability":"nonpayable"},{"type":"function","name":"safeTransferFrom","inputs":[{"name":"from","type":"address","internalType":"address"},{"name":"to","type":"address","internalType":"address"},{"name":"tokenId","type":"uint256","internalType":"uint256"},{"name":"data","type":"bytes","internalType":"bytes"}],"outputs":[],"stateMutability":"nonpayable"},{"type":"function","name":"setApprovalForAll","inputs":[{"name":"operator","type":"address","internalType":"address"},{"name":"approved","type":"bool","internalType":"bool"}],"outputs":[],"stateMutability":"nonpayable"},{"type":"function","name":"setAuthority","inputs":[{"name":"newAuthority","type":"address","internalType":"address"}],"outputs":[],"stateMutability":"nonpayable"},{"type":"function","name":"supportsInterface","inputs":[{"name":"interfaceId","type":"bytes4","internalType":"bytes4"}],"outputs":[{"name":"","type":"bool","internalType":"bool"}],"stateMutability":"view"},{"type":"function","name":"symbol","inputs":[],"outputs":[{"name":"","type":"string","internalType":"string"}],"stateMutability":"view"},{"type":"function","name":"tokenURI","inputs":[{"name":"tokenId","type":"uint256","internalType":"uint256"}],"outputs":[{"name":"","type":"string","internalType":"string"}],"stateMutability":"view"},{"type":"function","name":"transferFrom","inputs":[{"name":"from","type":"address","internalType":"address"},{"name":"to","type":"address","internalType":"address"},{"name":"tokenId","type":"uint256","internalType":"uint256"}],"outputs":[],"stateMutability":"nonpayable"},{"type":"function","name":"upgradeToAndCall","inputs":[{"name":"newImplementation","type":"address","internalType":"address"},{"name":"data","type":"bytes","internalType":"bytes"}],"outputs":[],"stateMutability":"payable"},{"type":"event","name":"Approval","inputs":[{"name":"owner","type":"address","indexed":true,"internalType":"address"},{"name":"approved","type":"address","indexed":true,"internalType":"address"},{"name":"tokenId","type":"uint256","indexed":true,"internalType":"uint256"}],"anonymous":false},{"type":"event","name":"ApprovalForAll","inputs":[{"name":"owner","type":"address","indexed":true,"internalType":"address"},{"name":"operator","type":"address","indexed":true,"internalType":"address"},{"name":"approved","type":"bool","indexed":false,"internalType":"bool"}],"anonymous":false},{"type":"event","name":"AuthorityUpdated","inputs":[{"name":"authority","type":"address","indexed":false,"internalType":"address"}],"anonymous":false},{"type":"event","name":"BatchMetadataUpdate","inputs":[{"name":"_fromTokenId","type":"uint256","indexed":false,"internalType":"uint256"},{"name":"_toTokenId","type":"uint256","indexed":false,"internalType":"uint256"}],"anonymous":false},{"type":"event","name":"Initialized","inputs":[{"name":"version","type":"uint64","indexed":false,"internalType":"uint64"}],"anonymous":false},{"type":"event","name":"MetadataUpdate","inputs":[{"name":"_tokenId","type":"uint256","indexed":false,"internalType":"uint256"}],"anonymous":false},{"type":"event","name":"Transfer","inputs":[{"name":"from","type":"address","indexed":true,"internalType":"address"},{"name":"to","type":"address","indexed":true,"internalType":"address"},{"name":"tokenId","type":"uint256","indexed":true,"internalType":"uint256"}],"anonymous":false},{"type":"event","name":"Upgraded","inputs":[{"name":"implementation","type":"address","indexed":true,"internalType":"address"}],"anonymous":false},{"type":"error","name":"AccessManagedInvalidAuthority","inputs":[{"name":"authority","type":"address","internalType":"address"}]},{"type":"error","name":"AccessManagedRequiredDelay","inputs":[{"name":"caller","type":"address","internalType":"address"},{"name":"delay","type":"uint32","internalType":"uint32"}]},{"type":"error","name":"AccessManagedUnauthorized","inputs":[{"name":"caller","type":"address","internalType":"address"}]},{"type":"error","name":"AddressEmptyCode","inputs":[{"name":"target","type":"address","internalType":"address"}]},{"type":"error","name":"ERC1967InvalidImplementation","inputs":[{"name":"implementation","type":"address","internalType":"address"}]},{"type":"error","name":"ERC1967NonPayable","inputs":[]},{"type":"error","name":"ERC721IncorrectOwner","inputs":[{"name":"sender","type":"address","internalType":"address"},{"name":"tokenId","type":"uint256","internalType":"uint256"},{"name":"owner","type":"address","internalType":"address"}]},{"type":"error","name":"ERC721InsufficientApproval","inputs":[{"name":"operator","type":"address","internalType":"address"},{"name":"tokenId","type":"uint256","internalType":"uint256"}]},{"type":"error","name":"ERC721InvalidApprover","inputs":[{"name":"approver","type":"address","internalType":"address"}]},{"type":"error","name":"ERC721InvalidOperator","inputs":[{"name":"operator","type":"address","internalType":"address"}]},{"type":"error","name":"ERC721InvalidOwner","inputs":[{"name":"owner","type":"address","internalType":"address"}]},{"type":"error","name":"ERC721InvalidReceiver","inputs":[{"name":"receiver","type":"address","internalType":"address"}]},{"type":"error","name":"ERC721InvalidSender","inputs":[{"name":"sender","type":"address","internalType":"address"}]},{"type":"error","name":"ERC721NonexistentToken","inputs":[{"name":"tokenId","type":"uint256","internalType":"uint256"}]},{"type":"error","name":"FailedCall","inputs":[]},{"type":"error","name":"InvalidInitialization","inputs":[]},{"type":"error","name":"NotInitializing","inputs":[]},{"type":"error","name":"UUPSUnauthorizedCallContext","inputs":[]},{"type":"error","name":"UUPSUnsupportedProxiableUUID","inputs":[{"name":"slot","type":"bytes32","internalType":"bytes32"}]},{"type":"error","name":"ZkgmERC721_Unauthorized","inputs":[]}],"bytecode":{"object":"0x60a080604052346100c257306080525f516020611b915f395f51905f525460ff8160401c166100b3576002600160401b03196001600160401b03821601610060575b604051611aca90816100c7823960805181818161066701526106fa0152f35b6001600160401b0319166001600160401b039081175f516020611b915f395f51905f525581527fc7f505b2f371ae2175ee4913f4499e1f2633a7b5936321eed1cdaeb6115181d290602090a15f80610041565b63f92ee8a960e01b5f5260045ffd5b5f80fdfe6080806040526004361015610012575f80fd5b5f905f358060e01c91826301ffc9a7146111db5750816306fdde03146110f9578163081812fc146110d1578163095ea7b314610fe55781630d27062c14610f9e5781632016a0d214610afd57816323b872dd14610ae657816342842e0e14610abb57816342966c68146109f05781634f1ef286146106bb5750806352d1902d146106545780636352211e1461062357806370a08231146105d15780637a9e5e4b1461055c5780638fb360371461050a57806394bf804d146103fe57806395d89b4114610317578063a22cb46514610278578063ad3cb1cc14610230578063b88d4fde146101da578063bf7e214f146101a5578063c87b56dd1461016d5763e985e9c51461011d575f80fd5b3461016a57604036600319011261016a57610148610139611284565b61014161129a565b9250611553565b9060018060a01b03165f52602052602060ff60405f2054166040519015158152f35b80fd5b503461016a57602036600319011261016a576101a161018d6004356116cb565b604051918291602083526020830190611260565b0390f35b503461016a578060031936011261016a575f5160206119955f395f51905f52546040516001600160a01b039091168152602090f35b503461016a57608036600319011261016a576101f4611284565b6101fc61129a565b606435916001600160401b03831161022c5761021f6102299336906004016112ec565b916044359161158b565b80f35b8380fd5b503461016a578060031936011261016a576101a16040516102526040826112b0565b60058152640352e302e360dc1b6020820152604051918291602083526020830190611260565b503461016a57604036600319011261016a57610292611284565b60243590811515809203610313576001600160a01b03169081156102ff576102b933611553565b825f5260205260405f2060ff1981541660ff83161790556040519081527f17307eab39ab6107e8899845ad3d59bd9653f200f220920489ca2b5937696c3160203392a380f35b630b61174360e31b83526004829052602483fd5b8280fd5b503461016a578060031936011261016a5760405190805f516020611a755f395f51905f5254906103468261136a565b80855291600181169081156103d7575060011461036e575b6101a18461018d818603826112b0565b5f516020611a755f395f51905f5281527ff4bad0a69248f59680a4f2b3000328cec71a413447c96781cfe5996daa8c456e939250905b8082106103bd5750909150810160200161018d8261035e565b9192600181602092548385880101520191019092916103a4565b60ff191660208087019190915292151560051b8501909201925061018d915083905061035e565b503461016a57604036600319011261016a5760043561041b61129a565b906001600160a01b0361042c6117f2565b541633036104fb576001600160a01b0382169081156104e75761044e8161188e565b6001600160a01b0381168015159491939161046d90866104c95761151b565b805460010190558286525f516020611a155f395f51905f526020526040862080546001600160a01b031916831790555f5160206119f55f395f51905f528680a4506104b55780f35b6339e3563760e11b81526004819052602490fd5b6104d2856118b4565b6104db8661151b565b80545f1901905561151b565b633250574960e11b84526004849052602484fd5b636872b8e360e11b8352600483fd5b503461016a578060031936011261016a575f5160206119955f395f51905f525460a01c60ff161561055457506020638fb3603760e01b5b6040516001600160e01b03199091168152f35b602090610541565b503461016a57602036600319011261016a57610576611284565b5f5160206119955f395f51905f52546001600160a01b031633036105bf57803b156105a45761022990611836565b6361798f2f60e11b82526001600160a01b0316600452602490fd5b62d1953b60e31b825233600452602482fd5b503461016a57602036600319011261016a576105eb611284565b906001600160a01b0382161561060f5760206106068361151b565b54604051908152f35b6322718ad960e21b81526004819052602490fd5b503461016a57602036600319011261016a5760206106426004356117af565b6040516001600160a01b039091168152f35b503461016a578060031936011261016a577f00000000000000000000000000000000000000000000000000000000000000006001600160a01b031630036106ac5760206040515f5160206119d55f395f51905f528152f35b63703e46dd60e11b8152600490fd5b826040366003190112610996576106d0611284565b6024356001600160401b038111610996576106ef9036906004016112ec565b926001600160a01b037f0000000000000000000000000000000000000000000000000000000000000000163081149081156109ce575b506109bf575f5160206119955f395f51905f52546001600160a01b0381169136600411610996575f60405f80938251602081019163b700961360e01b835233602483015230604483015263ffffffff60e01b1660648201526064815261078c6084826112b0565b828052826020525190875afa6109ac575b156108d5575b50506040516352d1902d60e01b8152936001600160a01b038316929150602085600481865afa8095859661089d575b506107eb57634c9c8ce360e01b84526004839052602484fd5b9091845f5160206119d55f395f51905f52810361088b5750823b15610879575f5160206119d55f395f51905f5280546001600160a01b031916821790557fbc7cd75a20ee27fd9adebab32041f755214dbc6bffa90cc0225b39da2e5c2d3b8480a28051156108605761085c91611908565b5080f35b50503461086a5780f35b63b398979f60e01b8152600490fd5b634c9c8ce360e01b8452600452602483fd5b632a87526960e21b8552600452602484fd5b9095506020813d6020116108cd575b816108b9602093836112b0565b810103126108c9575194866107d2565b8480fd5b3d91506108ac565b63ffffffff161561099a5760ff60a01b1916600160a01b175f5160206119955f395f51905f5255803b15610996575f6040518092634a63ebf760e11b8252336004830152604060248301523660448301523683606484013782606436840101528183606482601f19601f36011681010301925af1801561098b57610976575b505f5160206119955f395f51905f52805460ff60a01b191690558380806107a3565b6109839192505f906112b0565b5f9083610954565b6040513d5f823e3d90fd5b5f80fd5b62d1953b60e31b5f523360045260245ffd5b50505f516020518060201c15029061079d565b63703e46dd60e11b5f5260045ffd5b5f5160206119d55f395f51905f52546001600160a01b03161415905085610725565b34610996576020366003190112610996576004356001600160a01b03610a146117f2565b54163303610aac57610a258161188e565b6001600160a01b0381168015919083905f908415610a8e575b8282525f516020611a155f395f51905f526020526040822080546001600160a01b03191690555f5160206119f55f395f51905f528280a450610a7c57005b637e27328960e01b5f5260045260245ffd5b610a97836118b4565b610aa08461151b565b82198154019055610a3e565b636872b8e360e11b5f5260045ffd5b3461099657610ae4610acc36611330565b9060405192610adc6020856112b0565b5f845261158b565b005b3461099657610ae4610af736611330565b916113a2565b3461099657608036600319011261099657610b16611284565b610b1e61129a565b6044356001600160401b03811161099657610b3d9036906004016112ec565b916064356001600160401b03811161099657610b5d9036906004016112ec565b915f516020611a555f395f51905f525460ff8160401c1615926001600160401b03821680159081610f96575b6001149081610f8c575b159081610f83575b50610f745767ffffffffffffffff1982166001175f516020611a555f395f51905f5255610bde9184610f48575b50610bd16118dd565b610bd96118dd565b611836565b610be66118dd565b610bee6118dd565b610bf66118dd565b83516001600160401b038111610e3f57610c1d5f5160206119b55f395f51905f525461136a565b601f8111610ed9575b50602094601f8211600114610e5e579481929394955f92610e53575b50508160011b915f199060031b1c1916175f5160206119b55f395f51905f52555b82516001600160401b038111610e3f57610c8a5f516020611a755f395f51905f525461136a565b601f8111610dd0575b506020601f8211600114610d5557819293945f92610d4a575b50508160011b915f199060031b1c1916175f516020611a755f395f51905f52555b610cd56117f2565b80546001600160a01b0319166001600160a01b03909216919091179055610cf857005b60ff60401b195f516020611a555f395f51905f5254165f516020611a555f395f51905f52557fc7f505b2f371ae2175ee4913f4499e1f2633a7b5936321eed1cdaeb6115181d2602060405160018152a1005b015190508480610cac565b601f198216905f516020611a755f395f51905f525f52805f20915f5b818110610db857509583600195969710610da0575b505050811b015f516020611a755f395f51905f5255610ccd565b01515f1960f88460031b161c19169055848080610d86565b9192602060018192868b015181550194019201610d71565b5f516020611a755f395f51905f525f527ff4bad0a69248f59680a4f2b3000328cec71a413447c96781cfe5996daa8c456e601f830160051c81019160208410610e35575b601f0160051c01905b818110610e2a5750610c93565b5f8155600101610e1d565b9091508190610e14565b634e487b7160e01b5f52604160045260245ffd5b015190508580610c42565b601f198216955f5160206119b55f395f51905f525f52805f20915f5b888110610ec157508360019596979810610ea9575b505050811b015f5160206119b55f395f51905f5255610c63565b01515f1960f88460031b161c19169055858080610e8f565b91926020600181928685015181550194019201610e7a565b5f5160206119b55f395f51905f525f527f37c58c799b6609234b945e882912ee9ad34948a1dfaa20a97485e1a7752bbf81601f830160051c81019160208410610f3e575b601f0160051c01905b818110610f335750610c26565b5f8155600101610f26565b9091508190610f1d565b68ffffffffffffffffff191668010000000000000001175f516020611a555f395f51905f525586610bc8565b63f92ee8a960e01b5f5260045ffd5b90501587610b9b565b303b159150610b93565b859150610b89565b34610996575f366003190112610996576101a1604051610fbf6040826112b0565b6005815264646972747960d81b6020820152604051918291602083526020830190611260565b3461099657604036600319011261099657610ffe611284565b60243561100a816117af565b331515806110be575b8061109b575b6110885781906001600160a01b0384811691167f8c5be1e5ebec7d5bd14f71427d1e84f3dd0314c0f7b2291e5b200ac8c7c3b9255f80a45f9081525f516020611a355f395f51905f526020526040902080546001600160a01b0319166001600160a01b03909216919091179055005b63a9fbf51f60e01b5f523360045260245ffd5b506110a581611553565b335f908152602091909152604090205460ff1615611019565b506001600160a01b038116331415611013565b346109965760203660031901126109965760206106426004356110f3816117af565b506117cc565b34610996575f366003190112610996576040515f5f5160206119b55f395f51905f52546111258161136a565b80845290600181169081156111b7575060011461114d575b6101a18361018d818503826112b0565b5f5160206119b55f395f51905f525f9081527f37c58c799b6609234b945e882912ee9ad34948a1dfaa20a97485e1a7752bbf81939250905b80821061119d5750909150810160200161018d61113d565b919260018160209254838588010152019101909291611185565b60ff191660208086019190915291151560051b8401909101915061018d905061113d565b34610996576020366003190112610996576004359063ffffffff60e01b821680920361099657602091632483248360e11b811490811561121d575b5015158152f35b6380ac58cd60e01b81149150811561124f575b811561123e575b5083611216565b6301ffc9a760e01b14905083611237565b635b5e139f60e01b81149150611230565b805180835260209291819084018484015e5f828201840152601f01601f1916010190565b600435906001600160a01b038216820361099657565b602435906001600160a01b038216820361099657565b90601f801991011681019081106001600160401b03821117610e3f57604052565b6001600160401b038111610e3f57601f01601f191660200190565b81601f8201121561099657602081359101611306826112d1565b9261131460405194856112b0565b8284528282011161099657815f92602092838601378301015290565b6060906003190112610996576004356001600160a01b038116810361099657906024356001600160a01b0381168103610996579060443590565b90600182811c92168015611398575b602083101461138457565b634e487b7160e01b5f52602260045260245ffd5b91607f1691611379565b9091906001600160a01b038316801561150857826113bf8161188e565b9133151580611466575b506001600160a01b038316956113e390876114545761151b565b805460010190555f8281525f516020611a155f395f51905f526020526040812080546001600160a01b0319168317905586905f5160206119f55f395f51905f529080a4506001600160a01b031680830361143c57505050565b6364283d7b60e01b5f5260045260245260445260645ffd5b61145d846118b4565b6104db8561151b565b909150806114b3575b1561147c5783905f6113c9565b836001600160a01b03831661149d57637e27328960e01b5f5260045260245ffd5b63177e802f60e01b5f523360045260245260445ffd5b506001600160a01b038216331480156114e6575b8061146f5750336001600160a01b036114df866117cc565b161461146f565b506114f082611553565b335f908152602091909152604090205460ff166114c7565b633250574960e11b5f525f60045260245ffd5b6001600160a01b03165f9081527f80bb2b638cc20bc4d0a60d66940f3ab4a00c1d7b313497ca82fb0b4ab00793036020526040902090565b6001600160a01b03165f9081527f80bb2b638cc20bc4d0a60d66940f3ab4a00c1d7b313497ca82fb0b4ab00793056020526040902090565b92916115988183866113a2565b813b6115a5575b50505050565b604051630a85bd0160e11b81523360048201526001600160a01b03948516602482015260448101919091526080606482015292169190602090829081906115f0906084830190611260565b03815f865af15f9181611686575b5061165357503d1561164c573d611614816112d1565b9061162260405192836112b0565b81523d5f602083013e5b805190816116475782633250574960e11b5f5260045260245ffd5b602001fd5b606061162c565b6001600160e01b03191663757a42ff60e11b0161167457505f80808061159f565b633250574960e11b5f5260045260245ffd5b9091506020813d6020116116c3575b816116a2602093836112b0565b8101031261099657516001600160e01b03198116810361099657905f6115fe565b3d9150611695565b6116d4816117af565b505f527f0542a41881ee128a365a727b282c86fa859579490b9bb45aab8503648c8e790060205260405f2060405190815f8254926117118461136a565b808452936001811690811561178d5750600114611749575b50611736925003826112b0565b5f6040516117456020826112b0565b5290565b90505f9291925260205f20905f915b818310611771575050906020611736928201015f611729565b6020919350806001915483858801015201910190918392611758565b90506020925061173694915060ff191682840152151560051b8201015f611729565b6117b88161188e565b906001600160a01b03821615610a7c575090565b5f9081525f516020611a355f395f51905f5260205260409020546001600160a01b031690565b604051602081017fac21394bbf377d3de459d1dc1399dc8bf57fb74657068d6ae715b2e8b80c59c281526020825261182b6040836112b0565b9051902060ff191690565b5f5160206119955f395f51905f5280546001600160a01b0319166001600160a01b0390921691821790556040519081527f2f658b440c35314f52658ea8a740e05b284cdc84dc9ae01e891f21b8933e7cad90602090a1565b5f9081525f516020611a155f395f51905f5260205260409020546001600160a01b031690565b5f9081525f516020611a355f395f51905f526020526040902080546001600160a01b0319169055565b60ff5f516020611a555f395f51905f525460401c16156118f957565b631afcd79f60e31b5f5260045ffd5b905f8091602081519101845af48080611981575b1561193c5750506040513d81523d5f602083013e60203d82010160405290565b1561196157639996b31560e01b5f9081526001600160a01b0391909116600452602490fd5b3d15611972576040513d5f823e3d90fd5b63d6bda27560e01b5f5260045ffd5b503d15158061191c5750813b151561191c56fef3177357ab46d8af007ab3fdb9af81da189e1068fefdc0073dca88a2cab40a0080bb2b638cc20bc4d0a60d66940f3ab4a00c1d7b313497ca82fb0b4ab0079300360894a13ba1a3210667c828492db98dca3e2076cc3735a920a3ca505d382bbcddf252ad1be2c89b69c2b068fc378daa952ba7f163c4a11628f55a4df523b3ef80bb2b638cc20bc4d0a60d66940f3ab4a00c1d7b313497ca82fb0b4ab007930280bb2b638cc20bc4d0a60d66940f3ab4a00c1d7b313497ca82fb0b4ab0079304f0c57e16840df040f15088dc2f81fe391c3923bec73e23a9662efc9c229c6a0080bb2b638cc20bc4d0a60d66940f3ab4a00c1d7b313497ca82fb0b4ab0079301a2646970667358221220e8a04be0fefebc5712766c9271b66e5a3ca6bd35f1a10cabeb568b0e2e8c235864736f6c634300081c0033f0c57e16840df040f15088dc2f81fe391c3923bec73e23a9662efc9c229c6a00","linkReferences":{}},"methodIdentifiers":{"UPGRADE_INTERFACE_VERSION()":"ad3cb1cc","approve(address,uint256)":"095ea7b3","authority()":"bf7e214f","balanceOf(address)":"70a08231","burn(uint256)":"42966c68","getApproved(uint256)":"081812fc","gitRev()":"0d27062c","initialize(address,address,string,string)":"2016a0d2","isApprovedForAll(address,address)":"e985e9c5","isConsumingScheduledOp()":"8fb36037","mint(uint256,address)":"94bf804d","name()":"06fdde03","ownerOf(uint256)":"6352211e","proxiableUUID()":"52d1902d","safeTransferFrom(address,address,uint256)":"42842e0e","safeTransferFrom(address,address,uint256,bytes)":"b88d4fde","setApprovalForAll(address,bool)":"a22cb465","setAuthority(address)":"7a9e5e4b","supportsInterface(bytes4)":"01ffc9a7","symbol()":"95d89b41","tokenURI(uint256)":"c87b56dd","transferFrom(address,address,uint256)":"23b872dd","upgradeToAndCall(address,bytes)":"4f1ef286"},"storageLayout":{"storage":[],"types":{}},"id":100}