{"abi":[{"type":"function","name":"DOMAIN_SEPARATOR","inputs":[],"outputs":[{"name":"","type":"bytes32","internalType":"bytes32"}],"stateMutability":"view"},{"type":"function","name":"UPGRADE_INTERFACE_VERSION","inputs":[],"outputs":[{"name":"","type":"string","internalType":"string"}],"stateMutability":"view"},{"type":"function","name":"acceptOwnership","inputs":[],"outputs":[],"stateMutability":"nonpayable"},{"type":"function","name":"allowMarketMakers","inputs":[],"outputs":[{"name":"","type":"bool","internalType":"bool"}],"stateMutability":"pure"},{"type":"function","name":"allowance","inputs":[{"name":"owner","type":"address","internalType":"address"},{"name":"spender","type":"address","internalType":"address"}],"outputs":[{"name":"","type":"uint256","internalType":"uint256"}],"stateMutability":"view"},{"type":"function","name":"approve","inputs":[{"name":"spender","type":"address","internalType":"address"},{"name":"value","type":"uint256","internalType":"uint256"}],"outputs":[{"name":"","type":"bool","internalType":"bool"}],"stateMutability":"nonpayable"},{"type":"function","name":"balanceOf","inputs":[{"name":"account","type":"address","internalType":"address"}],"outputs":[{"name":"","type":"uint256","internalType":"uint256"}],"stateMutability":"view"},{"type":"function","name":"decimals","inputs":[],"outputs":[{"name":"","type":"uint8","internalType":"uint8"}],"stateMutability":"view"},{"type":"function","name":"eip712Domain","inputs":[],"outputs":[{"name":"fields","type":"bytes1","internalType":"bytes1"},{"name":"name","type":"string","internalType":"string"},{"name":"version","type":"string","internalType":"string"},{"name":"chainId","type":"uint256","internalType":"uint256"},{"name":"verifyingContract","type":"address","internalType":"address"},{"name":"salt","type":"bytes32","internalType":"bytes32"},{"name":"extensions","type":"uint256[]","internalType":"uint256[]"}],"stateMutability":"view"},{"type":"function","name":"initialize","inputs":[{"name":"initialOwner","type":"address","internalType":"address"},{"name":"_zkgm","type":"address","internalType":"address"}],"outputs":[],"stateMutability":"nonpayable"},{"type":"function","name":"name","inputs":[],"outputs":[{"name":"","type":"string","internalType":"string"}],"stateMutability":"view"},{"type":"function","name":"nonces","inputs":[{"name":"owner","type":"address","internalType":"address"}],"outputs":[{"name":"","type":"uint256","internalType":"uint256"}],"stateMutability":"view"},{"type":"function","name":"owner","inputs":[],"outputs":[{"name":"","type":"address","internalType":"address"}],"stateMutability":"view"},{"type":"function","name":"pendingOwner","inputs":[],"outputs":[{"name":"","type":"address","internalType":"address"}],"stateMutability":"view"},{"type":"function","name":"permit","inputs":[{"name":"owner","type":"address","internalType":"address"},{"name":"spender","type":"address","internalType":"address"},{"name":"value","type":"uint256","internalType":"uint256"},{"name":"deadline","type":"uint256","internalType":"uint256"},{"name":"v","type":"uint8","internalType":"uint8"},{"name":"r","type":"bytes32","internalType":"bytes32"},{"name":"s","type":"bytes32","internalType":"bytes32"}],"outputs":[],"stateMutability":"nonpayable"},{"type":"function","name":"proxiableUUID","inputs":[],"outputs":[{"name":"","type":"bytes32","internalType":"bytes32"}],"stateMutability":"view"},{"type":"function","name":"renounceOwnership","inputs":[],"outputs":[],"stateMutability":"nonpayable"},{"type":"function","name":"setFungibleCounterparty","inputs":[{"name":"path","type":"uint256","internalType":"uint256"},{"name":"channelId","type":"uint32","internalType":"uint32"},{"name":"token","type":"bytes","internalType":"bytes"},{"name":"counterpartyBeneficiary","type":"bytes","internalType":"bytes"}],"outputs":[],"stateMutability":"nonpayable"},{"type":"function","name":"solve","inputs":[{"name":"packet","type":"tuple","internalType":"struct IBCPacket","components":[{"name":"sourceChannelId","type":"uint32","internalType":"uint32"},{"name":"destinationChannelId","type":"uint32","internalType":"uint32"},{"name":"data","type":"bytes","internalType":"bytes"},{"name":"timeoutHeight","type":"uint64","internalType":"uint64"},{"name":"timeoutTimestamp","type":"uint64","internalType":"uint64"}]},{"name":"order","type":"tuple","internalType":"struct TokenOrderV2","components":[{"name":"sender","type":"bytes","internalType":"bytes"},{"name":"receiver","type":"bytes","internalType":"bytes"},{"name":"baseToken","type":"bytes","internalType":"bytes"},{"name":"baseAmount","type":"uint256","internalType":"uint256"},{"name":"quoteToken","type":"bytes","internalType":"bytes"},{"name":"quoteAmount","type":"uint256","internalType":"uint256"},{"name":"kind","type":"uint8","internalType":"uint8"},{"name":"metadata","type":"bytes","internalType":"bytes"}]},{"name":"path","type":"uint256","internalType":"uint256"},{"name":"caller","type":"address","internalType":"address"},{"name":"relayer","type":"address","internalType":"address"},{"name":"relayerMsg","type":"bytes","internalType":"bytes"},{"name":"intent","type":"bool","internalType":"bool"}],"outputs":[{"name":"","type":"bytes","internalType":"bytes"}],"stateMutability":"nonpayable"},{"type":"function","name":"symbol","inputs":[],"outputs":[{"name":"","type":"string","internalType":"string"}],"stateMutability":"view"},{"type":"function","name":"totalSupply","inputs":[],"outputs":[{"name":"","type":"uint256","internalType":"uint256"}],"stateMutability":"view"},{"type":"function","name":"transfer","inputs":[{"name":"to","type":"address","internalType":"address"},{"name":"value","type":"uint256","internalType":"uint256"}],"outputs":[{"name":"","type":"bool","internalType":"bool"}],"stateMutability":"nonpayable"},{"type":"function","name":"transferFrom","inputs":[{"name":"from","type":"address","internalType":"address"},{"name":"to","type":"address","internalType":"address"},{"name":"value","type":"uint256","internalType":"uint256"}],"outputs":[{"name":"","type":"bool","internalType":"bool"}],"stateMutability":"nonpayable"},{"type":"function","name":"transferOwnership","inputs":[{"name":"newOwner","type":"address","internalType":"address"}],"outputs":[],"stateMutability":"nonpayable"},{"type":"function","name":"upgradeToAndCall","inputs":[{"name":"newImplementation","type":"address","internalType":"address"},{"name":"data","type":"bytes","internalType":"bytes"}],"outputs":[],"stateMutability":"payable"},{"type":"event","name":"Approval","inputs":[{"name":"owner","type":"address","indexed":true,"internalType":"address"},{"name":"spender","type":"address","indexed":true,"internalType":"address"},{"name":"value","type":"uint256","indexed":false,"internalType":"uint256"}],"anonymous":false},{"type":"event","name":"EIP712DomainChanged","inputs":[],"anonymous":false},{"type":"event","name":"Initialized","inputs":[{"name":"version","type":"uint64","indexed":false,"internalType":"uint64"}],"anonymous":false},{"type":"event","name":"OwnershipTransferStarted","inputs":[{"name":"previousOwner","type":"address","indexed":true,"internalType":"address"},{"name":"newOwner","type":"address","indexed":true,"internalType":"address"}],"anonymous":false},{"type":"event","name":"OwnershipTransferred","inputs":[{"name":"previousOwner","type":"address","indexed":true,"internalType":"address"},{"name":"newOwner","type":"address","indexed":true,"internalType":"address"}],"anonymous":false},{"type":"event","name":"Transfer","inputs":[{"name":"from","type":"address","indexed":true,"internalType":"address"},{"name":"to","type":"address","indexed":true,"internalType":"address"},{"name":"value","type":"uint256","indexed":false,"internalType":"uint256"}],"anonymous":false},{"type":"event","name":"Upgraded","inputs":[{"name":"implementation","type":"address","indexed":true,"internalType":"address"}],"anonymous":false},{"type":"error","name":"AddressEmptyCode","inputs":[{"name":"target","type":"address","internalType":"address"}]},{"type":"error","name":"ECDSAInvalidSignature","inputs":[]},{"type":"error","name":"ECDSAInvalidSignatureLength","inputs":[{"name":"length","type":"uint256","internalType":"uint256"}]},{"type":"error","name":"ECDSAInvalidSignatureS","inputs":[{"name":"s","type":"bytes32","internalType":"bytes32"}]},{"type":"error","name":"ERC1967InvalidImplementation","inputs":[{"name":"implementation","type":"address","internalType":"address"}]},{"type":"error","name":"ERC1967NonPayable","inputs":[]},{"type":"error","name":"ERC20InsufficientAllowance","inputs":[{"name":"spender","type":"address","internalType":"address"},{"name":"allowance","type":"uint256","internalType":"uint256"},{"name":"needed","type":"uint256","internalType":"uint256"}]},{"type":"error","name":"ERC20InsufficientBalance","inputs":[{"name":"sender","type":"address","internalType":"address"},{"name":"balance","type":"uint256","internalType":"uint256"},{"name":"needed","type":"uint256","internalType":"uint256"}]},{"type":"error","name":"ERC20InvalidApprover","inputs":[{"name":"approver","type":"address","internalType":"address"}]},{"type":"error","name":"ERC20InvalidReceiver","inputs":[{"name":"receiver","type":"address","internalType":"address"}]},{"type":"error","name":"ERC20InvalidSender","inputs":[{"name":"sender","type":"address","internalType":"address"}]},{"type":"error","name":"ERC20InvalidSpender","inputs":[{"name":"spender","type":"address","internalType":"address"}]},{"type":"error","name":"ERC2612ExpiredSignature","inputs":[{"name":"deadline","type":"uint256","internalType":"uint256"}]},{"type":"error","name":"ERC2612InvalidSigner","inputs":[{"name":"signer","type":"address","internalType":"address"},{"name":"owner","type":"address","internalType":"address"}]},{"type":"error","name":"FailedCall","inputs":[]},{"type":"error","name":"InvalidAccountNonce","inputs":[{"name":"account","type":"address","internalType":"address"},{"name":"currentNonce","type":"uint256","internalType":"uint256"}]},{"type":"error","name":"InvalidInitialization","inputs":[]},{"type":"error","name":"NotInitializing","inputs":[]},{"type":"error","name":"OwnableInvalidOwner","inputs":[{"name":"owner","type":"address","internalType":"address"}]},{"type":"error","name":"OwnableUnauthorizedAccount","inputs":[{"name":"account","type":"address","internalType":"address"}]},{"type":"error","name":"UUPSUnauthorizedCallContext","inputs":[]},{"type":"error","name":"UUPSUnsupportedProxiableUUID","inputs":[{"name":"slot","type":"bytes32","internalType":"bytes32"}]}],"bytecode":{"object":"0x60a080604052346100c257306080525f5160206123095f395f51905f525460ff8160401c166100b3576002600160401b03196001600160401b03821601610060575b60405161224290816100c78239608051818181610c8d0152610d670152f35b6001600160401b0319166001600160401b039081175f5160206123095f395f51905f525581527fc7f505b2f371ae2175ee4913f4499e1f2633a7b5936321eed1cdaeb6115181d290602090a15f80610041565b63f92ee8a960e01b5f5260045ffd5b5f80fdfe6080806040526004361015610012575f80fd5b5f3560e01c90816306fdde03146117ba57508063095ea7b31461179457806318160ddd1461176b57806323b872dd14611693578063313ce567146116785780633644e515146116565780633eb76a791461163c578063485cc95514610ee35780634f1ef28614610ce157806352d1902d14610c7b5780636a62d93614610adb57806370a0823114610a97578063715018a614610a1a57806379ba5097146109ce5780637ecebe001461097857806384b0196e146108545780638da5cb5b1461082057806395d89b411461072a578063a9059cbb146106f9578063ad3cb1cc146106b2578063b098923714610396578063d505accf14610232578063dd62ed3e146101eb578063e30c3978146101b75763f2fde38b1461012f575f80fd5b346101b35760203660031901126101b357610148611898565b610150611b02565b5f5160206121ed5f395f51905f5280546001600160a01b0319166001600160a01b039283169081179091555f51602061210d5f395f51905f52549091167f38d16b8cac22d99fc7c124b9cd0de2d3fa1faef420bfe791d8c362d765e227005f80a3005b5f80fd5b346101b3575f3660031901126101b3575f5160206121ed5f395f51905f52546040516001600160a01b039091168152602090f35b346101b35760403660031901126101b357610204611898565b61021561020f6118ae565b916119b4565b9060018060a01b03165f52602052602060405f2054604051908152f35b346101b35760e03660031901126101b35761024b611898565b6102536118ae565b604435906064359260843560ff811681036101b3578442116103835761034661034f9160018060a01b03841696875f527f5ab42ced628888259c08ac98db1eb0cf702fc1501344311d8b100cd1bfe4bb0060205260405f20908154916001830190556040519060208201927f6e71edae12b1b97f4d1f60370fef10105fa2faae0126114a169c64845d6126c984528a604084015260018060a01b038916606084015289608084015260a083015260c082015260c0815261031460e0826118da565b51902061031f611dee565b906040519161190160f01b83526002830152602282015260c43591604260a4359220611e80565b90929192611f03565b6001600160a01b031684810361036c575061036a9350611d8b565b005b84906325c0072360e11b5f5260045260245260445ffd5b8463313c898160e11b5f5260045260245ffd5b346101b35760e03660031901126101b3576004356001600160401b0381116101b35760a060031982360301126101b357602435906001600160401b0382116101b3578160040161010060031984360301126101b3576103f36118c4565b50608435916001600160a01b03831683036101b35760a4356001600160401b0381116101b3576104279036906004016118fb565b505060c4358015158091036101b3575f546001600160a01b031633036106815761063d576044355f526001602052602460405f2091013563ffffffff811681036101b35763ffffffff165f5260205261049060405f2061048a60448601846119ec565b90611985565b9160405192835f8254926104a384611928565b808452936001811690811561061b57506001146105d7575b506104c8925003846118da565b8251156105925760648401359360a48101359182860386811161057e578361050f970361056e575b505081610513575b505050604051918291602083526020830190611874565b0390f35b6105469260246105249201906119ec565b6001600160601b03199135918216916014821061054e575b505060601c611d06565b8280806104f8565b6001600160601b031960149290920360031b82901b16169050858061053c565b61057791611d06565b85806104f0565b634e487b7160e01b5f52601160045260245ffd5b60405162461bcd60e51b815260206004820152601c60248201527f636f756e7465727061727479206973206e6f742066756e6769626c65000000006044820152606490fd5b90505f9291925260205f20905f915b8183106105ff5750509060206104c892820101876104bb565b6020919350806001915483858a010152019101909185926105e6565b9050602092506104c894915060ff191682840152151560051b820101876104bb565b606460405162461bcd60e51b815260206004820152602060248201527f6f6e6c792066696e616c697a6564207478732061726520737570706f727465646044820152fd5b60405162461bcd60e51b81526020600482015260096024820152686f6e6c79207a6b676d60b81b6044820152606490fd5b346101b3575f3660031901126101b35761050f6040516106d36040826118da565b60058152640352e302e360dc1b6020820152604051918291602083526020830190611874565b346101b35760403660031901126101b35761071f610715611898565b6024359033611a1e565b602060405160018152f35b346101b3575f3660031901126101b3576040515f5f5160206120ed5f395f51905f525461075681611928565b80845290600181169081156107fc5750600114610792575b61050f8361077e818503826118da565b604051918291602083526020830190611874565b5f5160206120ed5f395f51905f525f9081527f46a2803e59a4de4e7a4c574b1243f25977ac4c77d5a1a4a609b5394cebb4a2aa939250905b8082106107e25750909150810160200161077e61076e565b9192600181602092548385880101520191019092916107ca565b60ff191660208086019190915291151560051b8401909101915061077e905061076e565b346101b3575f3660031901126101b3575f51602061210d5f395f51905f52546040516001600160a01b039091168152602090f35b346101b3575f3660031901126101b3575f51602061216d5f395f51905f52541580610962575b15610925576108c961088a611b8d565b610892611c5b565b60206108d7604051926108a583856118da565b5f84525f368137604051958695600f60f81b875260e08588015260e0870190611874565b908582036040870152611874565b4660608501523060808501525f60a085015283810360c08501528180845192838152019301915f5b82811061090e57505050500390f35b8351855286955093810193928101926001016108ff565b60405162461bcd60e51b81526020600482015260156024820152741152540dcc4c8e88155b9a5b9a5d1a585b1a5e9959605a1b6044820152606490fd5b505f5160206121cd5f395f51905f52541561087a565b346101b35760203660031901126101b357610991611898565b60018060a01b03165f527f5ab42ced628888259c08ac98db1eb0cf702fc1501344311d8b100cd1bfe4bb00602052602060405f2054604051908152f35b346101b3575f3660031901126101b3575f5160206121ed5f395f51905f5254336001600160a01b0390911603610a075761036a33611b22565b63118cdaa760e01b5f523360045260245ffd5b346101b3575f3660031901126101b357610a32611b02565b5f5160206121ed5f395f51905f5280546001600160a01b03199081169091555f51602061210d5f395f51905f52805491821690555f906001600160a01b03167f8be0079c531659141344cd1fd0a4f28419497f9722a3daafe3b4186f6b6457e08280a3005b346101b35760203660031901126101b3576001600160a01b03610ab8611898565b165f525f5160206120ad5f395f51905f52602052602060405f2054604051908152f35b346101b35760803660031901126101b35760243563ffffffff811681036101b3576044356001600160401b0381116101b357610b1b9036906004016118fb565b90606435906001600160401b0382116101b357610b3f610b6e9236906004016118fb565b939094610b4a611b02565b6004355f52600160205263ffffffff60405f2091165f5260205260405f2091611985565b906001600160401b038111610c6757610b878254611928565b601f8111610c2c575b505f601f8211600114610bce578190610bbf93945f92610bc3575b50508160011b915f199060031b1c19161790565b9055005b013590508480610bab565b601f19821693835f5260205f20915f5b868110610c145750836001959610610bfb575b505050811b019055005b01355f19600384901b60f8161c19169055838080610bf1565b90926020600181928686013581550194019101610bde565b610c5790835f5260205f20601f840160051c81019160208510610c5d575b601f0160051c019061199e565b83610b90565b9091508190610c4a565b634e487b7160e01b5f52604160045260245ffd5b346101b3575f3660031901126101b3577f00000000000000000000000000000000000000000000000000000000000000006001600160a01b03163003610cd25760206040515f51602061218d5f395f51905f528152f35b63703e46dd60e11b5f5260045ffd5b60403660031901126101b357610cf5611898565b602435906001600160401b0382116101b357366023830112156101b35781600401356001600160401b038111610c675760405192610d3d601f8301601f1916602001856118da565b81845236602483830101116101b357815f9260246020930183870137840101526001600160a01b037f000000000000000000000000000000000000000000000000000000000000000016308114908115610ec1575b50610cd257610d9f611b02565b6040516352d1902d60e01b81526001600160a01b0382169290602081600481875afa5f9181610e8d575b50610de15783634c9c8ce360e01b5f5260045260245ffd5b805f51602061218d5f395f51905f52859203610e7b5750823b15610e69575f51602061218d5f395f51905f5280546001600160a01b031916821790557fbc7cd75a20ee27fd9adebab32041f755214dbc6bffa90cc0225b39da2e5c2d3b5f80a2805115610e515761036a91612000565b505034610e5a57005b63b398979f60e01b5f5260045ffd5b634c9c8ce360e01b5f5260045260245ffd5b632a87526960e21b5f5260045260245ffd5b9091506020813d602011610eb9575b81610ea9602093836118da565b810103126101b357519085610dc9565b3d9150610e9c565b5f51602061218d5f395f51905f52546001600160a01b03161415905083610d92565b346101b35760403660031901126101b357610efc611898565b610f046118ae565b905f5160206121ad5f395f51905f52549160ff8360401c1615926001600160401b03811680159081611634575b600114908161162a575b159081611621575b506116125767ffffffffffffffff1981166001175f5160206121ad5f395f51905f5255836115e6575b506001600160a01b031680156101b3575f80546001600160a01b031916919091179055610f97611960565b91604091825193610fa884866118da565b600385526219555560ea1b6020860152610fc0611e55565b610fc8611e55565b8051906001600160401b038211610c6757610ff05f51602061208d5f395f51905f5254611928565b601f811161158c575b50602090601f831160011461150f5761102892915f91836115045750508160011b915f199060031b1c19161790565b5f51602061208d5f395f51905f52555b83516001600160401b038111610c675761105f5f5160206120ed5f395f51905f5254611928565b601f81116114aa575b50602094601f821160011461142f5761109a9293949582915f9261133c5750508160011b915f199060031b1c19161790565b5f5160206120ed5f395f51905f52555b6110b2611e55565b6110ba611e55565b6001600160a01b0381161561141c576110d290611b22565b6110da611960565b916110e3611e55565b8051916110f082846118da565b60018352603160f81b6020840152611106611e55565b83516001600160401b038111610c675761112d5f5160206120cd5f395f51905f5254611928565b601f81116113c2575b50602094601f8211600114611347576111689293949582915f9261133c5750508160011b915f199060031b1c19161790565b5f5160206120cd5f395f51905f52555b82516001600160401b038111610c675761119f5f51602061214d5f395f51905f5254611928565b601f81116112e2575b506020601f82116001146112675781906111d89394955f9261125c5750508160011b915f199060031b1c19161790565b5f51602061214d5f395f51905f52555b5f5f51602061216d5f395f51905f52555f5f5160206121cd5f395f51905f5255611210611e55565b61121657005b5f5160206121ad5f395f51905f52805460ff60401b1916905551600181527fc7f505b2f371ae2175ee4913f4499e1f2633a7b5936321eed1cdaeb6115181d290602090a1005b015190508580610bab565b601f198216905f51602061214d5f395f51905f525f52805f20915f5b8181106112ca575095836001959697106112b2575b505050811b015f51602061214d5f395f51905f52556111e8565b01515f1960f88460031b161c19169055848080611298565b9192602060018192868b015181550194019201611283565b5f51602061214d5f395f51905f525f52611336907f5f9ce34815f8e11431c7bb75a8e6886a91478f7ffc1dbb0a98dc240fddd76b75601f840160051c81019160208510610c5d57601f0160051c019061199e565b846111a8565b015190508680610bab565b601f198216955f5160206120cd5f395f51905f525f52805f20915f5b8881106113aa57508360019596979810611392575b505050811b015f5160206120cd5f395f51905f5255611178565b01515f1960f88460031b161c19169055858080611378565b91926020600181928685015181550194019201611363565b5f5160206120cd5f395f51905f525f52611416907f42ad5d3e1f2e6e70edcf6d991b8a3023d3fca8047a131592f9edb9fd9b89d57d601f840160051c81019160208510610c5d57601f0160051c019061199e565b85611136565b631e4fbdf760e01b5f525f60045260245ffd5b601f198216955f5160206120ed5f395f51905f525f52805f20915f5b8881106114925750836001959697981061147a575b505050811b015f5160206120ed5f395f51905f52556110aa565b01515f1960f88460031b161c19169055858080611460565b9192602060018192868501518155019401920161144b565b5f5160206120ed5f395f51905f525f526114fe907f46a2803e59a4de4e7a4c574b1243f25977ac4c77d5a1a4a609b5394cebb4a2aa601f840160051c81019160208510610c5d57601f0160051c019061199e565b85611068565b015190508780610bab565b90601f198316915f51602061208d5f395f51905f525f52815f20925f5b818110611574575090846001959493921061155c575b505050811b015f51602061208d5f395f51905f5255611038565b01515f1960f88460031b161c19169055868080611542565b9293602060018192878601518155019501930161152c565b5f51602061208d5f395f51905f525f526115e0907f2ae08a8e29253f69ac5d979a101956ab8f8d9d7ded63fa7a83b16fc47648eab0601f850160051c81019160208610610c5d57601f0160051c019061199e565b86610ff9565b68ffffffffffffffffff191668010000000000000001175f5160206121ad5f395f51905f525583610f6c565b63f92ee8a960e01b5f5260045ffd5b90501585610f43565b303b159150610f3b565b859150610f31565b346101b3575f3660031901126101b35760206040515f8152f35b346101b3575f3660031901126101b3576020611670611dee565b604051908152f35b346101b3575f3660031901126101b357602060405160128152f35b346101b35760603660031901126101b3576116ac611898565b6116b46118ae565b604435906116c1836119b4565b335f9081526020919091526040902054925f1984106116e5575b61071f9350611a1e565b828410611750576001600160a01b0381161561173d57331561172a5761071f9361170e826119b4565b60018060a01b0333165f526020528360405f20910390556116db565b634a1406b160e11b5f525f60045260245ffd5b63e602df0560e01b5f525f60045260245ffd5b8284637dc7a0d960e11b5f523360045260245260445260645ffd5b346101b3575f3660031901126101b35760205f51602061212d5f395f51905f5254604051908152f35b346101b35760403660031901126101b35761071f6117b0611898565b6024359033611d8b565b346101b3575f3660031901126101b3575f5f51602061208d5f395f51905f52546117e381611928565b80845290600181169081156107fc575060011461180a5761050f8361077e818503826118da565b5f51602061208d5f395f51905f525f9081527f2ae08a8e29253f69ac5d979a101956ab8f8d9d7ded63fa7a83b16fc47648eab0939250905b80821061185a5750909150810160200161077e61076e565b919260018160209254838588010152019101909291611842565b805180835260209291819084018484015e5f828201840152601f01601f1916010190565b600435906001600160a01b03821682036101b357565b602435906001600160a01b03821682036101b357565b606435906001600160a01b03821682036101b357565b90601f801991011681019081106001600160401b03821117610c6757604052565b9181601f840112156101b3578235916001600160401b0383116101b357602083818601950101116101b357565b90600182811c92168015611956575b602083101461194257565b634e487b7160e01b5f52602260045260245ffd5b91607f1691611937565b6040519061196f6040836118da565b600782526632aaaa37b5b2b760c91b6020830152565b6020919283604051948593843782019081520301902090565b8181106119a9575050565b5f815560010161199e565b6001600160a01b03165f9081527f52c63247e1f47db19d5ce0460030c497f067ca4cebf71ba98eeadabe20bace016020526040902090565b903590601e19813603018212156101b357018035906001600160401b0382116101b3576020019181360383136101b357565b6001600160a01b0316908115611aef576001600160a01b0316918215611adc57815f525f5160206120ad5f395f51905f5260205260405f2054818110611ac357817fddf252ad1be2c89b69c2b068fc378daa952ba7f163c4a11628f55a4df523b3ef92602092855f525f5160206120ad5f395f51905f5284520360405f2055845f525f5160206120ad5f395f51905f52825260405f20818154019055604051908152a3565b8263391434e360e21b5f5260045260245260445260645ffd5b63ec442f0560e01b5f525f60045260245ffd5b634b637e8f60e11b5f525f60045260245ffd5b5f51602061210d5f395f51905f52546001600160a01b03163303610a0757565b5f5160206121ed5f395f51905f5280546001600160a01b03199081169091555f51602061210d5f395f51905f5280549182166001600160a01b0393841690811790915591167f8be0079c531659141344cd1fd0a4f28419497f9722a3daafe3b4186f6b6457e05f80a3565b6040515f5160206120cd5f395f51905f5254815f611baa83611928565b8083529260018116908115611c3c5750600114611bd1575b611bce925003826118da565b90565b505f5160206120cd5f395f51905f525f90815290917f42ad5d3e1f2e6e70edcf6d991b8a3023d3fca8047a131592f9edb9fd9b89d57d5b818310611c20575050906020611bce92820101611bc2565b6020919350806001915483858801015201910190918392611c08565b60209250611bce94915060ff191682840152151560051b820101611bc2565b6040515f51602061214d5f395f51905f5254815f611c7883611928565b8083529260018116908115611c3c5750600114611c9b57611bce925003826118da565b505f51602061214d5f395f51905f525f90815290917f5f9ce34815f8e11431c7bb75a8e6886a91478f7ffc1dbb0a98dc240fddd76b755b818310611cea575050906020611bce92820101611bc2565b6020919350806001915483858801015201910190918392611cd2565b6001600160a01b0316908115611adc575f51602061212d5f395f51905f52549080820180921161057e5760207fddf252ad1be2c89b69c2b068fc378daa952ba7f163c4a11628f55a4df523b3ef915f935f51602061212d5f395f51905f52558484525f5160206120ad5f395f51905f52825260408420818154019055604051908152a3565b916001600160a01b03831691821561173d576001600160a01b031692831561172a577f8c5be1e5ebec7d5bd14f71427d1e84f3dd0314c0f7b2291e5b200ac8c7c3b92591611dda6020926119b4565b855f5282528060405f2055604051908152a3565b611df6611f77565b611dfe611fce565b6040519060208201927f8b73c3c69bb8fe3d512ecc4cf759cc79239f7b179b0ffacaa9a75d522b39400f8452604083015260608201524660808201523060a082015260a08152611e4f60c0826118da565b51902090565b60ff5f5160206121ad5f395f51905f525460401c1615611e7157565b631afcd79f60e31b5f5260045ffd5b91906fa2a8918ca85bafe22016d0b997e4df60600160ff1b038411611ef8579160209360809260ff5f9560405194855216868401526040830152606082015282805260015afa15611eed575f516001600160a01b03811615611ee357905f905f90565b505f906001905f90565b6040513d5f823e3d90fd5b5050505f9160039190565b6004811015611f635780611f15575050565b60018103611f2c5763f645eedf60e01b5f5260045ffd5b60028103611f47575063fce698f760e01b5f5260045260245ffd5b600314611f515750565b6335e2f38360e21b5f5260045260245ffd5b634e487b7160e01b5f52602160045260245ffd5b611f7f611b8d565b8051908115611f8f576020012090565b50505f51602061216d5f395f51905f52548015611fa95790565b507fc5d2460186f7233c927e7db2dcc703c0e500b653ca82273b7bfad8045d85a47090565b611fd6611c5b565b8051908115611fe6576020012090565b50505f5160206121cd5f395f51905f52548015611fa95790565b905f8091602081519101845af48080612079575b156120345750506040513d81523d5f602083013e60203d82010160405290565b1561205957639996b31560e01b5f9081526001600160a01b0391909116600452602490fd5b3d1561206a576040513d5f823e3d90fd5b63d6bda27560e01b5f5260045ffd5b503d1515806120145750813b151561201456fe52c63247e1f47db19d5ce0460030c497f067ca4cebf71ba98eeadabe20bace0352c63247e1f47db19d5ce0460030c497f067ca4cebf71ba98eeadabe20bace00a16a46d94261c7517cc8ff89f61c0ce93598e3c849801011dee649a6a557d10252c63247e1f47db19d5ce0460030c497f067ca4cebf71ba98eeadabe20bace049016d09d72d40fdae2fd8ceac6b6234c7706214fd39c1cd1e609a0528c19930052c63247e1f47db19d5ce0460030c497f067ca4cebf71ba98eeadabe20bace02a16a46d94261c7517cc8ff89f61c0ce93598e3c849801011dee649a6a557d103a16a46d94261c7517cc8ff89f61c0ce93598e3c849801011dee649a6a557d100360894a13ba1a3210667c828492db98dca3e2076cc3735a920a3ca505d382bbcf0c57e16840df040f15088dc2f81fe391c3923bec73e23a9662efc9c229c6a00a16a46d94261c7517cc8ff89f61c0ce93598e3c849801011dee649a6a557d101237e158222e3e6968b72b9db0d8043aacf074ad9f650f0d1606b4d82ee432c00a26469706673582212205f942ba42a86e667d53ec5955b8923b0f7b1255f693d12df95981424437e7d0e64736f6c634300081c0033f0c57e16840df040f15088dc2f81fe391c3923bec73e23a9662efc9c229c6a00","linkReferences":{}},"methodIdentifiers":{"DOMAIN_SEPARATOR()":"3644e515","UPGRADE_INTERFACE_VERSION()":"ad3cb1cc","acceptOwnership()":"79ba5097","allowMarketMakers()":"3eb76a79","allowance(address,address)":"dd62ed3e","approve(address,uint256)":"095ea7b3","balanceOf(address)":"70a08231","decimals()":"313ce567","eip712Domain()":"84b0196e","initialize(address,address)":"485cc955","name()":"06fdde03","nonces(address)":"7ecebe00","owner()":"8da5cb5b","pendingOwner()":"e30c3978","permit(address,address,uint256,uint256,uint8,bytes32,bytes32)":"d505accf","proxiableUUID()":"52d1902d","renounceOwnership()":"715018a6","setFungibleCounterparty(uint256,uint32,bytes,bytes)":"6a62d936","solve((uint32,uint32,bytes,uint64,uint64),(bytes,bytes,bytes,uint256,bytes,uint256,uint8,bytes),uint256,address,address,bytes,bool)":"b0989237","symbol()":"95d89b41","totalSupply()":"18160ddd","transfer(address,uint256)":"a9059cbb","transferFrom(address,address,uint256)":"23b872dd","transferOwnership(address)":"f2fde38b","upgradeToAndCall(address,bytes)":"4f1ef286"},"storageLayout":{"storage":[{"astId":64407,"contract":"src/eUSimple.sol:eUSimple","label":"s_zkgm","offset":0,"slot":"0","type":"t_address"},{"astId":64416,"contract":"src/eUSimple.sol:eUSimple","label":"s_fungibleCounterparties","offset":0,"slot":"1","type":"t_mapping(t_uint256,t_mapping(t_uint32,t_mapping(t_bytes_memory_ptr,t_bytes_storage)))"}],"types":{"t_address":{"encoding":"inplace","label":"address","numberOfBytes":"20"},"t_bytes_memory_ptr":{"encoding":"bytes","label":"bytes","numberOfBytes":"32"},"t_bytes_storage":{"encoding":"bytes","label":"bytes","numberOfBytes":"32"},"t_mapping(t_bytes_memory_ptr,t_bytes_storage)":{"encoding":"mapping","key":"t_bytes_memory_ptr","label":"mapping(bytes => bytes)","numberOfBytes":"32","value":"t_bytes_storage"},"t_mapping(t_uint256,t_mapping(t_uint32,t_mapping(t_bytes_memory_ptr,t_bytes_storage)))":{"encoding":"mapping","key":"t_uint256","label":"mapping(uint256 => mapping(uint32 => mapping(bytes => bytes)))","numberOfBytes":"32","value":"t_mapping(t_uint32,t_mapping(t_bytes_memory_ptr,t_bytes_storage))"},"t_mapping(t_uint32,t_mapping(t_bytes_memory_ptr,t_bytes_storage))":{"encoding":"mapping","key":"t_uint32","label":"mapping(uint32 => mapping(bytes => bytes))","numberOfBytes":"32","value":"t_mapping(t_bytes_memory_ptr,t_bytes_storage)"},"t_uint256":{"encoding":"inplace","label":"uint256","numberOfBytes":"32"},"t_uint32":{"encoding":"inplace","label":"uint32","numberOfBytes":"4"}}},"id":124}