{"abi":[{"type":"function","name":"DOMAIN_SEPARATOR","inputs":[],"outputs":[{"name":"","type":"bytes32","internalType":"bytes32"}],"stateMutability":"view"},{"type":"function","name":"UPGRADE_INTERFACE_VERSION","inputs":[],"outputs":[{"name":"","type":"string","internalType":"string"}],"stateMutability":"view"},{"type":"function","name":"acceptOwnership","inputs":[],"outputs":[],"stateMutability":"nonpayable"},{"type":"function","name":"allowMarketMakers","inputs":[],"outputs":[{"name":"","type":"bool","internalType":"bool"}],"stateMutability":"pure"},{"type":"function","name":"allowance","inputs":[{"name":"owner","type":"address","internalType":"address"},{"name":"spender","type":"address","internalType":"address"}],"outputs":[{"name":"","type":"uint256","internalType":"uint256"}],"stateMutability":"view"},{"type":"function","name":"approve","inputs":[{"name":"spender","type":"address","internalType":"address"},{"name":"value","type":"uint256","internalType":"uint256"}],"outputs":[{"name":"","type":"bool","internalType":"bool"}],"stateMutability":"nonpayable"},{"type":"function","name":"balanceOf","inputs":[{"name":"account","type":"address","internalType":"address"}],"outputs":[{"name":"","type":"uint256","internalType":"uint256"}],"stateMutability":"view"},{"type":"function","name":"burn","inputs":[{"name":"account","type":"address","internalType":"address"},{"name":"value","type":"uint256","internalType":"uint256"}],"outputs":[],"stateMutability":"nonpayable"},{"type":"function","name":"decimals","inputs":[],"outputs":[{"name":"","type":"uint8","internalType":"uint8"}],"stateMutability":"view"},{"type":"function","name":"eip712Domain","inputs":[],"outputs":[{"name":"fields","type":"bytes1","internalType":"bytes1"},{"name":"name","type":"string","internalType":"string"},{"name":"version","type":"string","internalType":"string"},{"name":"chainId","type":"uint256","internalType":"uint256"},{"name":"verifyingContract","type":"address","internalType":"address"},{"name":"salt","type":"bytes32","internalType":"bytes32"},{"name":"extensions","type":"uint256[]","internalType":"uint256[]"}],"stateMutability":"view"},{"type":"function","name":"initialize","inputs":[{"name":"initialOwner","type":"address","internalType":"address"},{"name":"_zkgm","type":"address","internalType":"address"}],"outputs":[],"stateMutability":"nonpayable"},{"type":"function","name":"mint","inputs":[{"name":"to","type":"address","internalType":"address"},{"name":"amount","type":"uint256","internalType":"uint256"}],"outputs":[],"stateMutability":"nonpayable"},{"type":"function","name":"name","inputs":[],"outputs":[{"name":"","type":"string","internalType":"string"}],"stateMutability":"view"},{"type":"function","name":"nonces","inputs":[{"name":"owner","type":"address","internalType":"address"}],"outputs":[{"name":"","type":"uint256","internalType":"uint256"}],"stateMutability":"view"},{"type":"function","name":"owner","inputs":[],"outputs":[{"name":"","type":"address","internalType":"address"}],"stateMutability":"view"},{"type":"function","name":"pendingOwner","inputs":[],"outputs":[{"name":"","type":"address","internalType":"address"}],"stateMutability":"view"},{"type":"function","name":"permit","inputs":[{"name":"owner","type":"address","internalType":"address"},{"name":"spender","type":"address","internalType":"address"},{"name":"value","type":"uint256","internalType":"uint256"},{"name":"deadline","type":"uint256","internalType":"uint256"},{"name":"v","type":"uint8","internalType":"uint8"},{"name":"r","type":"bytes32","internalType":"bytes32"},{"name":"s","type":"bytes32","internalType":"bytes32"}],"outputs":[],"stateMutability":"nonpayable"},{"type":"function","name":"proxiableUUID","inputs":[],"outputs":[{"name":"","type":"bytes32","internalType":"bytes32"}],"stateMutability":"view"},{"type":"function","name":"renounceOwnership","inputs":[],"outputs":[],"stateMutability":"nonpayable"},{"type":"function","name":"setFungibleCounterparty","inputs":[{"name":"path","type":"uint256","internalType":"uint256"},{"name":"channelId","type":"uint32","internalType":"uint32"},{"name":"token","type":"bytes","internalType":"bytes"},{"name":"counterpartyBeneficiary","type":"bytes","internalType":"bytes"}],"outputs":[],"stateMutability":"nonpayable"},{"type":"function","name":"solve","inputs":[{"name":"packet","type":"tuple","internalType":"struct IBCPacket","components":[{"name":"sourceChannelId","type":"uint32","internalType":"uint32"},{"name":"destinationChannelId","type":"uint32","internalType":"uint32"},{"name":"data","type":"bytes","internalType":"bytes"},{"name":"timeoutHeight","type":"uint64","internalType":"uint64"},{"name":"timeoutTimestamp","type":"uint64","internalType":"uint64"}]},{"name":"order","type":"tuple","internalType":"struct TokenOrderV2","components":[{"name":"sender","type":"bytes","internalType":"bytes"},{"name":"receiver","type":"bytes","internalType":"bytes"},{"name":"baseToken","type":"bytes","internalType":"bytes"},{"name":"baseAmount","type":"uint256","internalType":"uint256"},{"name":"quoteToken","type":"bytes","internalType":"bytes"},{"name":"quoteAmount","type":"uint256","internalType":"uint256"},{"name":"kind","type":"uint8","internalType":"uint8"},{"name":"metadata","type":"bytes","internalType":"bytes"}]},{"name":"path","type":"uint256","internalType":"uint256"},{"name":"caller","type":"address","internalType":"address"},{"name":"relayer","type":"address","internalType":"address"},{"name":"relayerMsg","type":"bytes","internalType":"bytes"},{"name":"intent","type":"bool","internalType":"bool"}],"outputs":[{"name":"","type":"bytes","internalType":"bytes"}],"stateMutability":"nonpayable"},{"type":"function","name":"symbol","inputs":[],"outputs":[{"name":"","type":"string","internalType":"string"}],"stateMutability":"view"},{"type":"function","name":"totalSupply","inputs":[],"outputs":[{"name":"","type":"uint256","internalType":"uint256"}],"stateMutability":"view"},{"type":"function","name":"transfer","inputs":[{"name":"to","type":"address","internalType":"address"},{"name":"value","type":"uint256","internalType":"uint256"}],"outputs":[{"name":"","type":"bool","internalType":"bool"}],"stateMutability":"nonpayable"},{"type":"function","name":"transferFrom","inputs":[{"name":"from","type":"address","internalType":"address"},{"name":"to","type":"address","internalType":"address"},{"name":"value","type":"uint256","internalType":"uint256"}],"outputs":[{"name":"","type":"bool","internalType":"bool"}],"stateMutability":"nonpayable"},{"type":"function","name":"transferOwnership","inputs":[{"name":"newOwner","type":"address","internalType":"address"}],"outputs":[],"stateMutability":"nonpayable"},{"type":"function","name":"upgradeToAndCall","inputs":[{"name":"newImplementation","type":"address","internalType":"address"},{"name":"data","type":"bytes","internalType":"bytes"}],"outputs":[],"stateMutability":"payable"},{"type":"event","name":"Approval","inputs":[{"name":"owner","type":"address","indexed":true,"internalType":"address"},{"name":"spender","type":"address","indexed":true,"internalType":"address"},{"name":"value","type":"uint256","indexed":false,"internalType":"uint256"}],"anonymous":false},{"type":"event","name":"EIP712DomainChanged","inputs":[],"anonymous":false},{"type":"event","name":"Initialized","inputs":[{"name":"version","type":"uint64","indexed":false,"internalType":"uint64"}],"anonymous":false},{"type":"event","name":"OwnershipTransferStarted","inputs":[{"name":"previousOwner","type":"address","indexed":true,"internalType":"address"},{"name":"newOwner","type":"address","indexed":true,"internalType":"address"}],"anonymous":false},{"type":"event","name":"OwnershipTransferred","inputs":[{"name":"previousOwner","type":"address","indexed":true,"internalType":"address"},{"name":"newOwner","type":"address","indexed":true,"internalType":"address"}],"anonymous":false},{"type":"event","name":"Transfer","inputs":[{"name":"from","type":"address","indexed":true,"internalType":"address"},{"name":"to","type":"address","indexed":true,"internalType":"address"},{"name":"value","type":"uint256","indexed":false,"internalType":"uint256"}],"anonymous":false},{"type":"event","name":"Upgraded","inputs":[{"name":"implementation","type":"address","indexed":true,"internalType":"address"}],"anonymous":false},{"type":"error","name":"AddressEmptyCode","inputs":[{"name":"target","type":"address","internalType":"address"}]},{"type":"error","name":"ECDSAInvalidSignature","inputs":[]},{"type":"error","name":"ECDSAInvalidSignatureLength","inputs":[{"name":"length","type":"uint256","internalType":"uint256"}]},{"type":"error","name":"ECDSAInvalidSignatureS","inputs":[{"name":"s","type":"bytes32","internalType":"bytes32"}]},{"type":"error","name":"ERC1967InvalidImplementation","inputs":[{"name":"implementation","type":"address","internalType":"address"}]},{"type":"error","name":"ERC1967NonPayable","inputs":[]},{"type":"error","name":"ERC20InsufficientAllowance","inputs":[{"name":"spender","type":"address","internalType":"address"},{"name":"allowance","type":"uint256","internalType":"uint256"},{"name":"needed","type":"uint256","internalType":"uint256"}]},{"type":"error","name":"ERC20InsufficientBalance","inputs":[{"name":"sender","type":"address","internalType":"address"},{"name":"balance","type":"uint256","internalType":"uint256"},{"name":"needed","type":"uint256","internalType":"uint256"}]},{"type":"error","name":"ERC20InvalidApprover","inputs":[{"name":"approver","type":"address","internalType":"address"}]},{"type":"error","name":"ERC20InvalidReceiver","inputs":[{"name":"receiver","type":"address","internalType":"address"}]},{"type":"error","name":"ERC20InvalidSender","inputs":[{"name":"sender","type":"address","internalType":"address"}]},{"type":"error","name":"ERC20InvalidSpender","inputs":[{"name":"spender","type":"address","internalType":"address"}]},{"type":"error","name":"ERC2612ExpiredSignature","inputs":[{"name":"deadline","type":"uint256","internalType":"uint256"}]},{"type":"error","name":"ERC2612InvalidSigner","inputs":[{"name":"signer","type":"address","internalType":"address"},{"name":"owner","type":"address","internalType":"address"}]},{"type":"error","name":"FailedCall","inputs":[]},{"type":"error","name":"InvalidAccountNonce","inputs":[{"name":"account","type":"address","internalType":"address"},{"name":"currentNonce","type":"uint256","internalType":"uint256"}]},{"type":"error","name":"InvalidInitialization","inputs":[]},{"type":"error","name":"NotInitializing","inputs":[]},{"type":"error","name":"OwnableInvalidOwner","inputs":[{"name":"owner","type":"address","internalType":"address"}]},{"type":"error","name":"OwnableUnauthorizedAccount","inputs":[{"name":"account","type":"address","internalType":"address"}]},{"type":"error","name":"UUPSUnauthorizedCallContext","inputs":[]},{"type":"error","name":"UUPSUnsupportedProxiableUUID","inputs":[{"name":"slot","type":"bytes32","internalType":"bytes32"}]}],"bytecode":{"object":"0x60a080604052346100c257306080525f5160206124095f395f51905f525460ff8160401c166100b3576002600160401b03196001600160401b03821601610060575b60405161234290816100c78239608051818181610d790152610e530152f35b6001600160401b0319166001600160401b039081175f5160206124095f395f51905f525581527fc7f505b2f371ae2175ee4913f4499e1f2633a7b5936321eed1cdaeb6115181d290602090a15f80610041565b63f92ee8a960e01b5f5260045ffd5b5f80fdfe6080806040526004361015610012575f80fd5b5f3560e01c90816306fdde03146118d357508063095ea7b3146118ad57806318160ddd1461188457806323b872dd146117ac578063313ce567146117915780633644e5151461176f5780633eb76a791461175557806340c10f1914611728578063485cc95514610fcf5780634f1ef28614610dcd57806352d1902d14610d675780636a62d93614610bc757806370a0823114610b83578063715018a614610b0657806379ba509714610aba5780637ecebe0014610a6457806384b0196e146109405780638da5cb5b1461090c57806395d89b41146108165780639dc29fac14610740578063a9059cbb1461070f578063ad3cb1cc146106c8578063b0989237146103ac578063d505accf14610248578063dd62ed3e14610201578063e30c3978146101cd5763f2fde38b14610145575f80fd5b346101c95760203660031901126101c95761015e6119b1565b610166611bf5565b5f5160206122ed5f395f51905f5280546001600160a01b0319166001600160a01b039283169081179091555f5160206121ed5f395f51905f52549091167f38d16b8cac22d99fc7c124b9cd0de2d3fa1faef420bfe791d8c362d765e227005f80a3005b5f80fd5b346101c9575f3660031901126101c9575f5160206122ed5f395f51905f52546040516001600160a01b039091168152602090f35b346101c95760403660031901126101c95761021a6119b1565b61022b6102256119c7565b91611acd565b9060018060a01b03165f52602052602060405f2054604051908152f35b346101c95760e03660031901126101c9576102616119b1565b6102696119c7565b604435906064359260843560ff811681036101c9578442116103995761035c6103659160018060a01b03841696875f527f5ab42ced628888259c08ac98db1eb0cf702fc1501344311d8b100cd1bfe4bb0060205260405f20908154916001830190556040519060208201927f6e71edae12b1b97f4d1f60370fef10105fa2faae0126114a169c64845d6126c984528a604084015260018060a01b038916606084015289608084015260a083015260c082015260c0815261032a60e0826119f3565b519020610335611ece565b906040519161190160f01b83526002830152602282015260c43591604260a4359220611f60565b90929192611fe3565b6001600160a01b031684810361038257506103809350611e6b565b005b84906325c0072360e11b5f5260045260245260445ffd5b8463313c898160e11b5f5260045260245ffd5b346101c95760e03660031901126101c9576004356001600160401b0381116101c95760a060031982360301126101c957602435906001600160401b0382116101c9578160040161010060031984360301126101c9576104096119dd565b50608435916001600160a01b03831683036101c95760a4356001600160401b0381116101c95761043d903690600401611a14565b505060c4358015158091036101c9575f546001600160a01b0316330361069757610653576044355f526001602052602460405f2091013563ffffffff811681036101c95763ffffffff165f526020526104a660405f206104a06044860184611b05565b90611a9e565b9160405192835f8254926104b984611a41565b808452936001811690811561063157506001146105ed575b506104de925003846119f3565b8251156105a85760648401359360a48101359182860386811161059457836105259703610584575b505081610529575b50505060405191829160208352602083019061198d565b0390f35b61055c92602461053a920190611b05565b6001600160601b031991359182169160148210610564575b505060601c611c15565b82808061050e565b6001600160601b031960149290920360031b82901b161690508580610552565b61058d91611c15565b8580610506565b634e487b7160e01b5f52601160045260245ffd5b60405162461bcd60e51b815260206004820152601c60248201527f636f756e7465727061727479206973206e6f742066756e6769626c65000000006044820152606490fd5b90505f9291925260205f20905f915b8183106106155750509060206104de92820101876104d1565b6020919350806001915483858a010152019101909185926105fc565b9050602092506104de94915060ff191682840152151560051b820101876104d1565b606460405162461bcd60e51b815260206004820152602060248201527f6f6e6c792066696e616c697a6564207478732061726520737570706f727465646044820152fd5b60405162461bcd60e51b81526020600482015260096024820152686f6e6c79207a6b676d60b81b6044820152606490fd5b346101c9575f3660031901126101c9576105256040516106e96040826119f3565b60058152640352e302e360dc1b602082015260405191829160208352602083019061198d565b346101c95760403660031901126101c95761073561072b6119b1565b6024359033611b37565b602060405160018152f35b346101c95760403660031901126101c9576107596119b1565b60243590610765611bf5565b6001600160a01b0316801561080357805f525f51602061218d5f395f51905f5260205260405f20548281106107ea576020835f945f51602061228d5f395f51905f52938587525f51602061218d5f395f51905f528452036040862055805f51602061220d5f395f51905f5254035f51602061220d5f395f51905f5255604051908152a3005b9063391434e360e21b5f5260045260245260445260645ffd5b634b637e8f60e11b5f525f60045260245ffd5b346101c9575f3660031901126101c9576040515f5f5160206121cd5f395f51905f525461084281611a41565b80845290600181169081156108e8575060011461087e575b6105258361086a818503826119f3565b60405191829160208352602083019061198d565b5f5160206121cd5f395f51905f525f9081527f46a2803e59a4de4e7a4c574b1243f25977ac4c77d5a1a4a609b5394cebb4a2aa939250905b8082106108ce5750909150810160200161086a61085a565b9192600181602092548385880101520191019092916108b6565b60ff191660208086019190915291151560051b8401909101915061086a905061085a565b346101c9575f3660031901126101c9575f5160206121ed5f395f51905f52546040516001600160a01b039091168152602090f35b346101c9575f3660031901126101c9575f51602061224d5f395f51905f52541580610a4e575b15610a11576109b5610976611cf2565b61097e611dc0565b60206109c36040519261099183856119f3565b5f84525f368137604051958695600f60f81b875260e08588015260e087019061198d565b90858203604087015261198d565b4660608501523060808501525f60a085015283810360c08501528180845192838152019301915f5b8281106109fa57505050500390f35b8351855286955093810193928101926001016109eb565b60405162461bcd60e51b81526020600482015260156024820152741152540dcc4c8e88155b9a5b9a5d1a585b1a5e9959605a1b6044820152606490fd5b505f5160206122cd5f395f51905f525415610966565b346101c95760203660031901126101c957610a7d6119b1565b60018060a01b03165f527f5ab42ced628888259c08ac98db1eb0cf702fc1501344311d8b100cd1bfe4bb00602052602060405f2054604051908152f35b346101c9575f3660031901126101c9575f5160206122ed5f395f51905f5254336001600160a01b0390911603610af35761038033611c87565b63118cdaa760e01b5f523360045260245ffd5b346101c9575f3660031901126101c957610b1e611bf5565b5f5160206122ed5f395f51905f5280546001600160a01b03199081169091555f5160206121ed5f395f51905f52805491821690555f906001600160a01b03167f8be0079c531659141344cd1fd0a4f28419497f9722a3daafe3b4186f6b6457e08280a3005b346101c95760203660031901126101c9576001600160a01b03610ba46119b1565b165f525f51602061218d5f395f51905f52602052602060405f2054604051908152f35b346101c95760803660031901126101c95760243563ffffffff811681036101c9576044356001600160401b0381116101c957610c07903690600401611a14565b90606435906001600160401b0382116101c957610c2b610c5a923690600401611a14565b939094610c36611bf5565b6004355f52600160205263ffffffff60405f2091165f5260205260405f2091611a9e565b906001600160401b038111610d5357610c738254611a41565b601f8111610d18575b505f601f8211600114610cba578190610cab93945f92610caf575b50508160011b915f199060031b1c19161790565b9055005b013590508480610c97565b601f19821693835f5260205f20915f5b868110610d005750836001959610610ce7575b505050811b019055005b01355f19600384901b60f8161c19169055838080610cdd565b90926020600181928686013581550194019101610cca565b610d4390835f5260205f20601f840160051c81019160208510610d49575b601f0160051c0190611ab7565b83610c7c565b9091508190610d36565b634e487b7160e01b5f52604160045260245ffd5b346101c9575f3660031901126101c9577f00000000000000000000000000000000000000000000000000000000000000006001600160a01b03163003610dbe5760206040515f51602061226d5f395f51905f528152f35b63703e46dd60e11b5f5260045ffd5b60403660031901126101c957610de16119b1565b602435906001600160401b0382116101c957366023830112156101c95781600401356001600160401b038111610d535760405192610e29601f8301601f1916602001856119f3565b81845236602483830101116101c957815f9260246020930183870137840101526001600160a01b037f000000000000000000000000000000000000000000000000000000000000000016308114908115610fad575b50610dbe57610e8b611bf5565b6040516352d1902d60e01b81526001600160a01b0382169290602081600481875afa5f9181610f79575b50610ecd5783634c9c8ce360e01b5f5260045260245ffd5b805f51602061226d5f395f51905f52859203610f675750823b15610f55575f51602061226d5f395f51905f5280546001600160a01b031916821790557fbc7cd75a20ee27fd9adebab32041f755214dbc6bffa90cc0225b39da2e5c2d3b5f80a2805115610f3d57610380916120e0565b505034610f4657005b63b398979f60e01b5f5260045ffd5b634c9c8ce360e01b5f5260045260245ffd5b632a87526960e21b5f5260045260245ffd5b9091506020813d602011610fa5575b81610f95602093836119f3565b810103126101c957519085610eb5565b3d9150610f88565b5f51602061226d5f395f51905f52546001600160a01b03161415905083610e7e565b346101c95760403660031901126101c957610fe86119b1565b610ff06119c7565b905f5160206122ad5f395f51905f52549160ff8360401c1615926001600160401b03811680159081611720575b6001149081611716575b15908161170d575b506116fe5767ffffffffffffffff1981166001175f5160206122ad5f395f51905f5255836116d2575b506001600160a01b031680156101c9575f80546001600160a01b031916919091179055611083611a79565b9160409182519361109484866119f3565b600385526219555560ea1b60208601526110ac611f35565b6110b4611f35565b8051906001600160401b038211610d53576110dc5f51602061216d5f395f51905f5254611a41565b601f8111611678575b50602090601f83116001146115fb5761111492915f91836115f05750508160011b915f199060031b1c19161790565b5f51602061216d5f395f51905f52555b83516001600160401b038111610d535761114b5f5160206121cd5f395f51905f5254611a41565b601f8111611596575b50602094601f821160011461151b576111869293949582915f926114285750508160011b915f199060031b1c19161790565b5f5160206121cd5f395f51905f52555b61119e611f35565b6111a6611f35565b6001600160a01b03811615611508576111be90611c87565b6111c6611a79565b916111cf611f35565b8051916111dc82846119f3565b60018352603160f81b60208401526111f2611f35565b83516001600160401b038111610d53576112195f5160206121ad5f395f51905f5254611a41565b601f81116114ae575b50602094601f8211600114611433576112549293949582915f926114285750508160011b915f199060031b1c19161790565b5f5160206121ad5f395f51905f52555b82516001600160401b038111610d535761128b5f51602061222d5f395f51905f5254611a41565b601f81116113ce575b506020601f82116001146113535781906112c49394955f926113485750508160011b915f199060031b1c19161790565b5f51602061222d5f395f51905f52555b5f5f51602061224d5f395f51905f52555f5f5160206122cd5f395f51905f52556112fc611f35565b61130257005b5f5160206122ad5f395f51905f52805460ff60401b1916905551600181527fc7f505b2f371ae2175ee4913f4499e1f2633a7b5936321eed1cdaeb6115181d290602090a1005b015190508580610c97565b601f198216905f51602061222d5f395f51905f525f52805f20915f5b8181106113b65750958360019596971061139e575b505050811b015f51602061222d5f395f51905f52556112d4565b01515f1960f88460031b161c19169055848080611384565b9192602060018192868b01518155019401920161136f565b5f51602061222d5f395f51905f525f52611422907f5f9ce34815f8e11431c7bb75a8e6886a91478f7ffc1dbb0a98dc240fddd76b75601f840160051c81019160208510610d4957601f0160051c0190611ab7565b84611294565b015190508680610c97565b601f198216955f5160206121ad5f395f51905f525f52805f20915f5b8881106114965750836001959697981061147e575b505050811b015f5160206121ad5f395f51905f5255611264565b01515f1960f88460031b161c19169055858080611464565b9192602060018192868501518155019401920161144f565b5f5160206121ad5f395f51905f525f52611502907f42ad5d3e1f2e6e70edcf6d991b8a3023d3fca8047a131592f9edb9fd9b89d57d601f840160051c81019160208510610d4957601f0160051c0190611ab7565b85611222565b631e4fbdf760e01b5f525f60045260245ffd5b601f198216955f5160206121cd5f395f51905f525f52805f20915f5b88811061157e57508360019596979810611566575b505050811b015f5160206121cd5f395f51905f5255611196565b01515f1960f88460031b161c1916905585808061154c565b91926020600181928685015181550194019201611537565b5f5160206121cd5f395f51905f525f526115ea907f46a2803e59a4de4e7a4c574b1243f25977ac4c77d5a1a4a609b5394cebb4a2aa601f840160051c81019160208510610d4957601f0160051c0190611ab7565b85611154565b015190508780610c97565b90601f198316915f51602061216d5f395f51905f525f52815f20925f5b8181106116605750908460019594939210611648575b505050811b015f51602061216d5f395f51905f5255611124565b01515f1960f88460031b161c1916905586808061162e565b92936020600181928786015181550195019301611618565b5f51602061216d5f395f51905f525f526116cc907f2ae08a8e29253f69ac5d979a101956ab8f8d9d7ded63fa7a83b16fc47648eab0601f850160051c81019160208610610d4957601f0160051c0190611ab7565b866110e5565b68ffffffffffffffffff191668010000000000000001175f5160206122ad5f395f51905f525583611058565b63f92ee8a960e01b5f5260045ffd5b9050158561102f565b303b159150611027565b85915061101d565b346101c95760403660031901126101c9576103806117446119b1565b61174c611bf5565b60243590611c15565b346101c9575f3660031901126101c95760206040515f8152f35b346101c9575f3660031901126101c9576020611789611ece565b604051908152f35b346101c9575f3660031901126101c957602060405160128152f35b346101c95760603660031901126101c9576117c56119b1565b6117cd6119c7565b604435906117da83611acd565b335f9081526020919091526040902054925f1984106117fe575b6107359350611b37565b828410611869576001600160a01b03811615611856573315611843576107359361182782611acd565b60018060a01b0333165f526020528360405f20910390556117f4565b634a1406b160e11b5f525f60045260245ffd5b63e602df0560e01b5f525f60045260245ffd5b8284637dc7a0d960e11b5f523360045260245260445260645ffd5b346101c9575f3660031901126101c95760205f51602061220d5f395f51905f5254604051908152f35b346101c95760403660031901126101c9576107356118c96119b1565b6024359033611e6b565b346101c9575f3660031901126101c9575f5f51602061216d5f395f51905f52546118fc81611a41565b80845290600181169081156108e85750600114611923576105258361086a818503826119f3565b5f51602061216d5f395f51905f525f9081527f2ae08a8e29253f69ac5d979a101956ab8f8d9d7ded63fa7a83b16fc47648eab0939250905b8082106119735750909150810160200161086a61085a565b91926001816020925483858801015201910190929161195b565b805180835260209291819084018484015e5f828201840152601f01601f1916010190565b600435906001600160a01b03821682036101c957565b602435906001600160a01b03821682036101c957565b606435906001600160a01b03821682036101c957565b90601f801991011681019081106001600160401b03821117610d5357604052565b9181601f840112156101c9578235916001600160401b0383116101c957602083818601950101116101c957565b90600182811c92168015611a6f575b6020831014611a5b57565b634e487b7160e01b5f52602260045260245ffd5b91607f1691611a50565b60405190611a886040836119f3565b600782526632aaaa37b5b2b760c91b6020830152565b6020919283604051948593843782019081520301902090565b818110611ac2575050565b5f8155600101611ab7565b6001600160a01b03165f9081527f52c63247e1f47db19d5ce0460030c497f067ca4cebf71ba98eeadabe20bace016020526040902090565b903590601e19813603018212156101c957018035906001600160401b0382116101c9576020019181360383136101c957565b6001600160a01b0316908115610803576001600160a01b0316918215611be257815f525f51602061218d5f395f51905f5260205260405f2054818110611bc957815f51602061228d5f395f51905f5292602092855f525f51602061218d5f395f51905f5284520360405f2055845f525f51602061218d5f395f51905f52825260405f20818154019055604051908152a3565b8263391434e360e21b5f5260045260245260445260645ffd5b63ec442f0560e01b5f525f60045260245ffd5b5f5160206121ed5f395f51905f52546001600160a01b03163303610af357565b6001600160a01b0316908115611be2575f51602061220d5f395f51905f5254908082018092116105945760205f51602061228d5f395f51905f52915f935f51602061220d5f395f51905f52558484525f51602061218d5f395f51905f52825260408420818154019055604051908152a3565b5f5160206122ed5f395f51905f5280546001600160a01b03199081169091555f5160206121ed5f395f51905f5280549182166001600160a01b0393841690811790915591167f8be0079c531659141344cd1fd0a4f28419497f9722a3daafe3b4186f6b6457e05f80a3565b6040515f5160206121ad5f395f51905f5254815f611d0f83611a41565b8083529260018116908115611da15750600114611d36575b611d33925003826119f3565b90565b505f5160206121ad5f395f51905f525f90815290917f42ad5d3e1f2e6e70edcf6d991b8a3023d3fca8047a131592f9edb9fd9b89d57d5b818310611d85575050906020611d3392820101611d27565b6020919350806001915483858801015201910190918392611d6d565b60209250611d3394915060ff191682840152151560051b820101611d27565b6040515f51602061222d5f395f51905f5254815f611ddd83611a41565b8083529260018116908115611da15750600114611e0057611d33925003826119f3565b505f51602061222d5f395f51905f525f90815290917f5f9ce34815f8e11431c7bb75a8e6886a91478f7ffc1dbb0a98dc240fddd76b755b818310611e4f575050906020611d3392820101611d27565b6020919350806001915483858801015201910190918392611e37565b916001600160a01b038316918215611856576001600160a01b0316928315611843577f8c5be1e5ebec7d5bd14f71427d1e84f3dd0314c0f7b2291e5b200ac8c7c3b92591611eba602092611acd565b855f5282528060405f2055604051908152a3565b611ed6612057565b611ede6120ae565b6040519060208201927f8b73c3c69bb8fe3d512ecc4cf759cc79239f7b179b0ffacaa9a75d522b39400f8452604083015260608201524660808201523060a082015260a08152611f2f60c0826119f3565b51902090565b60ff5f5160206122ad5f395f51905f525460401c1615611f5157565b631afcd79f60e31b5f5260045ffd5b91906fa2a8918ca85bafe22016d0b997e4df60600160ff1b038411611fd8579160209360809260ff5f9560405194855216868401526040830152606082015282805260015afa15611fcd575f516001600160a01b03811615611fc357905f905f90565b505f906001905f90565b6040513d5f823e3d90fd5b5050505f9160039190565b60048110156120435780611ff5575050565b6001810361200c5763f645eedf60e01b5f5260045ffd5b60028103612027575063fce698f760e01b5f5260045260245ffd5b6003146120315750565b6335e2f38360e21b5f5260045260245ffd5b634e487b7160e01b5f52602160045260245ffd5b61205f611cf2565b805190811561206f576020012090565b50505f51602061224d5f395f51905f525480156120895790565b507fc5d2460186f7233c927e7db2dcc703c0e500b653ca82273b7bfad8045d85a47090565b6120b6611dc0565b80519081156120c6576020012090565b50505f5160206122cd5f395f51905f525480156120895790565b905f8091602081519101845af48080612159575b156121145750506040513d81523d5f602083013e60203d82010160405290565b1561213957639996b31560e01b5f9081526001600160a01b0391909116600452602490fd5b3d1561214a576040513d5f823e3d90fd5b63d6bda27560e01b5f5260045ffd5b503d1515806120f45750813b15156120f456fe52c63247e1f47db19d5ce0460030c497f067ca4cebf71ba98eeadabe20bace0352c63247e1f47db19d5ce0460030c497f067ca4cebf71ba98eeadabe20bace00a16a46d94261c7517cc8ff89f61c0ce93598e3c849801011dee649a6a557d10252c63247e1f47db19d5ce0460030c497f067ca4cebf71ba98eeadabe20bace049016d09d72d40fdae2fd8ceac6b6234c7706214fd39c1cd1e609a0528c19930052c63247e1f47db19d5ce0460030c497f067ca4cebf71ba98eeadabe20bace02a16a46d94261c7517cc8ff89f61c0ce93598e3c849801011dee649a6a557d103a16a46d94261c7517cc8ff89f61c0ce93598e3c849801011dee649a6a557d100360894a13ba1a3210667c828492db98dca3e2076cc3735a920a3ca505d382bbcddf252ad1be2c89b69c2b068fc378daa952ba7f163c4a11628f55a4df523b3eff0c57e16840df040f15088dc2f81fe391c3923bec73e23a9662efc9c229c6a00a16a46d94261c7517cc8ff89f61c0ce93598e3c849801011dee649a6a557d101237e158222e3e6968b72b9db0d8043aacf074ad9f650f0d1606b4d82ee432c00a2646970667358221220f0e86ccb341015665bc50fb53b3c9d3e2484bc7e78594d388aedc0b71b32eba664736f6c634300081c0033f0c57e16840df040f15088dc2f81fe391c3923bec73e23a9662efc9c229c6a00","linkReferences":{}},"methodIdentifiers":{"DOMAIN_SEPARATOR()":"3644e515","UPGRADE_INTERFACE_VERSION()":"ad3cb1cc","acceptOwnership()":"79ba5097","allowMarketMakers()":"3eb76a79","allowance(address,address)":"dd62ed3e","approve(address,uint256)":"095ea7b3","balanceOf(address)":"70a08231","burn(address,uint256)":"9dc29fac","decimals()":"313ce567","eip712Domain()":"84b0196e","initialize(address,address)":"485cc955","mint(address,uint256)":"40c10f19","name()":"06fdde03","nonces(address)":"7ecebe00","owner()":"8da5cb5b","pendingOwner()":"e30c3978","permit(address,address,uint256,uint256,uint8,bytes32,bytes32)":"d505accf","proxiableUUID()":"52d1902d","renounceOwnership()":"715018a6","setFungibleCounterparty(uint256,uint32,bytes,bytes)":"6a62d936","solve((uint32,uint32,bytes,uint64,uint64),(bytes,bytes,bytes,uint256,bytes,uint256,uint8,bytes),uint256,address,address,bytes,bool)":"b0989237","symbol()":"95d89b41","totalSupply()":"18160ddd","transfer(address,uint256)":"a9059cbb","transferFrom(address,address,uint256)":"23b872dd","transferOwnership(address)":"f2fde38b","upgradeToAndCall(address,bytes)":"4f1ef286"},"storageLayout":{"storage":[{"astId":64407,"contract":"src/eU.sol:eU","label":"s_zkgm","offset":0,"slot":"0","type":"t_address"},{"astId":64416,"contract":"src/eU.sol:eU","label":"s_fungibleCounterparties","offset":0,"slot":"1","type":"t_mapping(t_uint256,t_mapping(t_uint32,t_mapping(t_bytes_memory_ptr,t_bytes_storage)))"}],"types":{"t_address":{"encoding":"inplace","label":"address","numberOfBytes":"20"},"t_bytes_memory_ptr":{"encoding":"bytes","label":"bytes","numberOfBytes":"32"},"t_bytes_storage":{"encoding":"bytes","label":"bytes","numberOfBytes":"32"},"t_mapping(t_bytes_memory_ptr,t_bytes_storage)":{"encoding":"mapping","key":"t_bytes_memory_ptr","label":"mapping(bytes => bytes)","numberOfBytes":"32","value":"t_bytes_storage"},"t_mapping(t_uint256,t_mapping(t_uint32,t_mapping(t_bytes_memory_ptr,t_bytes_storage)))":{"encoding":"mapping","key":"t_uint256","label":"mapping(uint256 => mapping(uint32 => mapping(bytes => bytes)))","numberOfBytes":"32","value":"t_mapping(t_uint32,t_mapping(t_bytes_memory_ptr,t_bytes_storage))"},"t_mapping(t_uint32,t_mapping(t_bytes_memory_ptr,t_bytes_storage))":{"encoding":"mapping","key":"t_uint32","label":"mapping(uint32 => mapping(bytes => bytes))","numberOfBytes":"32","value":"t_mapping(t_bytes_memory_ptr,t_bytes_storage)"},"t_uint256":{"encoding":"inplace","label":"uint256","numberOfBytes":"32"},"t_uint32":{"encoding":"inplace","label":"uint32","numberOfBytes":"4"}}},"id":123}