{"abi":[{"type":"function","name":"ackString","inputs":[],"outputs":[{"name":"","type":"string","internalType":"string"}],"stateMutability":"view"},{"type":"function","name":"channelId","inputs":[],"outputs":[{"name":"","type":"string","internalType":"string"}],"stateMutability":"view"},{"type":"function","name":"counterpartyVersion","inputs":[],"outputs":[{"name":"","type":"string","internalType":"string"}],"stateMutability":"view"},{"type":"function","name":"getAckString","inputs":[],"outputs":[{"name":"","type":"string","internalType":"string"}],"stateMutability":"view"},{"type":"function","name":"getChannelId","inputs":[],"outputs":[{"name":"","type":"string","internalType":"string"}],"stateMutability":"view"},{"type":"function","name":"getCounterpartyVersion","inputs":[],"outputs":[{"name":"","type":"string","internalType":"string"}],"stateMutability":"view"},{"type":"function","name":"getICA","inputs":[],"outputs":[{"name":"","type":"string","internalType":"string"}],"stateMutability":"view"},{"type":"function","name":"getOwner","inputs":[],"outputs":[{"name":"","type":"address","internalType":"address"}],"stateMutability":"view"},{"type":"function","name":"getVersion","inputs":[],"outputs":[{"name":"","type":"string","internalType":"string"}],"stateMutability":"pure"},{"type":"function","name":"ibcHandler","inputs":[],"outputs":[{"name":"","type":"address","internalType":"contract IIBCPacketHandler"}],"stateMutability":"view"},{"type":"function","name":"icaAddress","inputs":[],"outputs":[{"name":"","type":"string","internalType":"string"}],"stateMutability":"view"},{"type":"function","name":"initialize","inputs":[{"name":"_ibcHandler","type":"address","internalType":"contract IIBCPacketHandler"},{"name":"_timeout","type":"uint64","internalType":"uint64"},{"name":"_owner","type":"address","internalType":"address"}],"outputs":[],"stateMutability":"nonpayable"},{"type":"function","name":"onAcknowledgementPacket","inputs":[{"name":"packet","type":"tuple","internalType":"struct IbcCoreChannelV1Packet.Data","components":[{"name":"sequence","type":"uint64","internalType":"uint64"},{"name":"source_port","type":"string","internalType":"string"},{"name":"source_channel","type":"string","internalType":"string"},{"name":"destination_port","type":"string","internalType":"string"},{"name":"destination_channel","type":"string","internalType":"string"},{"name":"data","type":"bytes","internalType":"bytes"},{"name":"timeout_height","type":"tuple","internalType":"struct IbcCoreClientV1Height.Data","components":[{"name":"revision_number","type":"uint64","internalType":"uint64"},{"name":"revision_height","type":"uint64","internalType":"uint64"}]},{"name":"timeout_timestamp","type":"uint64","internalType":"uint64"}]},{"name":"acknowledgement","type":"bytes","internalType":"bytes"},{"name":"relayer","type":"address","internalType":"address"}],"outputs":[],"stateMutability":"nonpayable"},{"type":"function","name":"onChanCloseConfirm","inputs":[{"name":"","type":"string","internalType":"string"},{"name":"","type":"string","internalType":"string"},{"name":"_relayer","type":"address","internalType":"address"}],"outputs":[],"stateMutability":"nonpayable"},{"type":"function","name":"onChanCloseInit","inputs":[{"name":"","type":"string","internalType":"string"},{"name":"","type":"string","internalType":"string"},{"name":"_relayer","type":"address","internalType":"address"}],"outputs":[],"stateMutability":"nonpayable"},{"type":"function","name":"onChanOpenAck","inputs":[{"name":"_portId","type":"string","internalType":"string"},{"name":"_channelId","type":"string","internalType":"string"},{"name":"","type":"string","internalType":"string"},{"name":"_counterpartyVersion","type":"string","internalType":"string"},{"name":"","type":"address","internalType":"address"}],"outputs":[],"stateMutability":"nonpayable"},{"type":"function","name":"onChanOpenConfirm","inputs":[{"name":"_portId","type":"string","internalType":"string"},{"name":"_channelId","type":"string","internalType":"string"},{"name":"_relayer","type":"address","internalType":"address"}],"outputs":[],"stateMutability":"nonpayable"},{"type":"function","name":"onChanOpenInit","inputs":[{"name":"","type":"uint8","internalType":"enum IbcCoreChannelV1GlobalEnums.Order"},{"name":"","type":"string[]","internalType":"string[]"},{"name":"","type":"string","internalType":"string"},{"name":"","type":"string","internalType":"string"},{"name":"","type":"tuple","internalType":"struct IbcCoreChannelV1Counterparty.Data","components":[{"name":"port_id","type":"string","internalType":"string"},{"name":"channel_id","type":"string","internalType":"string"}]},{"name":"version","type":"string","internalType":"string"},{"name":"","type":"address","internalType":"address"}],"outputs":[],"stateMutability":"nonpayable"},{"type":"function","name":"onChanOpenTry","inputs":[{"name":"","type":"uint8","internalType":"enum IbcCoreChannelV1GlobalEnums.Order"},{"name":"","type":"string[]","internalType":"string[]"},{"name":"","type":"string","internalType":"string"},{"name":"","type":"string","internalType":"string"},{"name":"","type":"tuple","internalType":"struct IbcCoreChannelV1Counterparty.Data","components":[{"name":"port_id","type":"string","internalType":"string"},{"name":"channel_id","type":"string","internalType":"string"}]},{"name":"","type":"string","internalType":"string"},{"name":"version","type":"string","internalType":"string"},{"name":"","type":"address","internalType":"address"}],"outputs":[],"stateMutability":"nonpayable"},{"type":"function","name":"onRecvPacket","inputs":[{"name":"packet","type":"tuple","internalType":"struct IbcCoreChannelV1Packet.Data","components":[{"name":"sequence","type":"uint64","internalType":"uint64"},{"name":"source_port","type":"string","internalType":"string"},{"name":"source_channel","type":"string","internalType":"string"},{"name":"destination_port","type":"string","internalType":"string"},{"name":"destination_channel","type":"string","internalType":"string"},{"name":"data","type":"bytes","internalType":"bytes"},{"name":"timeout_height","type":"tuple","internalType":"struct IbcCoreClientV1Height.Data","components":[{"name":"revision_number","type":"uint64","internalType":"uint64"},{"name":"revision_height","type":"uint64","internalType":"uint64"}]},{"name":"timeout_timestamp","type":"uint64","internalType":"uint64"}]},{"name":"relayer","type":"address","internalType":"address"}],"outputs":[{"name":"acknowledgement","type":"bytes","internalType":"bytes"}],"stateMutability":"nonpayable"},{"type":"function","name":"onRecvPacketProcessing","inputs":[{"name":"packet","type":"tuple","internalType":"struct IbcCoreChannelV1Packet.Data","components":[{"name":"sequence","type":"uint64","internalType":"uint64"},{"name":"source_port","type":"string","internalType":"string"},{"name":"source_channel","type":"string","internalType":"string"},{"name":"destination_port","type":"string","internalType":"string"},{"name":"destination_channel","type":"string","internalType":"string"},{"name":"data","type":"bytes","internalType":"bytes"},{"name":"timeout_height","type":"tuple","internalType":"struct IbcCoreClientV1Height.Data","components":[{"name":"revision_number","type":"uint64","internalType":"uint64"},{"name":"revision_height","type":"uint64","internalType":"uint64"}]},{"name":"timeout_timestamp","type":"uint64","internalType":"uint64"}]},{"name":"relayer","type":"address","internalType":"address"}],"outputs":[],"stateMutability":"nonpayable"},{"type":"function","name":"onTimeoutPacket","inputs":[{"name":"packet","type":"tuple","internalType":"struct IbcCoreChannelV1Packet.Data","components":[{"name":"sequence","type":"uint64","internalType":"uint64"},{"name":"source_port","type":"string","internalType":"string"},{"name":"source_channel","type":"string","internalType":"string"},{"name":"destination_port","type":"string","internalType":"string"},{"name":"destination_channel","type":"string","internalType":"string"},{"name":"data","type":"bytes","internalType":"bytes"},{"name":"timeout_height","type":"tuple","internalType":"struct IbcCoreClientV1Height.Data","components":[{"name":"revision_number","type":"uint64","internalType":"uint64"},{"name":"revision_height","type":"uint64","internalType":"uint64"}]},{"name":"timeout_timestamp","type":"uint64","internalType":"uint64"}]},{"name":"relayer","type":"address","internalType":"address"}],"outputs":[],"stateMutability":"nonpayable"},{"type":"function","name":"owner","inputs":[],"outputs":[{"name":"","type":"address","internalType":"address"}],"stateMutability":"view"},{"type":"function","name":"returnICA","inputs":[{"name":"_factory","type":"address","internalType":"contract IControllerFactory"}],"outputs":[],"stateMutability":"nonpayable"},{"type":"function","name":"sendMessages","inputs":[{"name":"packet","type":"bytes","internalType":"bytes"}],"outputs":[],"stateMutability":"nonpayable"},{"type":"function","name":"setOwner","inputs":[{"name":"_owner","type":"address","internalType":"address"}],"outputs":[],"stateMutability":"nonpayable"},{"type":"function","name":"timeout","inputs":[],"outputs":[{"name":"","type":"uint64","internalType":"uint64"}],"stateMutability":"view"},{"type":"event","name":"Acknowledged","inputs":[],"anonymous":false},{"type":"event","name":"ICAccountCreated","inputs":[{"name":"controller","type":"address","indexed":true,"internalType":"address"},{"name":"cosmosAddress","type":"string","indexed":false,"internalType":"string"}],"anonymous":false},{"type":"event","name":"Initialized","inputs":[{"name":"version","type":"uint64","indexed":false,"internalType":"uint64"}],"anonymous":false},{"type":"event","name":"TimedOut","inputs":[],"anonymous":false},{"type":"error","name":"ErrInfiniteGame","inputs":[]},{"type":"error","name":"ErrNoChannel","inputs":[]},{"type":"error","name":"ErrNotIBC","inputs":[]},{"type":"error","name":"ErrOnlyOneChannel","inputs":[]},{"type":"error","name":"InvalidInitialization","inputs":[]},{"type":"error","name":"NotInitializing","inputs":[]}],"bytecode":{"object":"0x60808060405234601557612617908161001b8239f35b600080fdfe6080604052600436101561001257600080fd5b6000803560e01c80630d8e6e2c14611153578063133c2d39146108d057806313af4035146111045780631bef4669146107d3578063218d1e3e146110195780632301c6f514610ff65780632dc1bd4014610fcf5780632ff02e271461033b5780633f41c9ea146109b457806352c7157d14610f8f57806360ca56eb14610a0657806370dea79a146109df5780637538ed68146109b4578063779b278d14610915578063893d20e8146108ec5780638da5cb5b146108ec5780639c6ea30d146108d0578063bcbe03df1461083e578063bd950f89146107ef578063defaac74146107d3578063e2cee544146107b7578063e4eb8c6314610510578063f2f83f7a14610433578063f8288cc614610357578063f8876a031461033b578063fb8b532e1461017c5763fcee06971461014657600080fd5b346101795780600319360112610179576101756101616114ae565b604051918291602083526020830190611194565b0390f35b80fd5b5034610179576060366003190112610179576004356001600160401b03811161033757610120906003199036030112610179576024356001600160401b038111610337576101ce903690600401611563565b6101d9929192611206565b506101e26119b6565b6001600160401b038111610323576101fb600554611232565b601f81116102e7575b5081601f821160011461026a5781908394610234949261025f575b50508160011b916000199060031b1c19161790565b6005555b7f6d45fcb3ac6f90804e961e6f86b28ebf0d54b90becc071e931a4bd59cacec0528180a180f35b01359050388061021f565b601f198216937f036b6384b5eca791c62761152d0c79bb0604c104a5fb6f4eb0703f3154bb3db091845b8681106102cf57508360019596106102b5575b505050811b01600555610238565b0135600019600384901b60f8161c191690553880806102a7565b90926020600181928686013581550194019101610294565b610313906005845260208420601f840160051c81019160208510610319575b601f0160051c0190611965565b38610204565b9091508190610306565b634e487b7160e01b82526041600452602482fd5b5080fd5b5034610179578060031936011261017957610175610161611429565b503461017957610366366115d8565b5091509291506103746119b6565b6001600160401b0381116103235761039681610391600154611232565b61197c565b81601f82116001146103ca57819083946103c4949261025f5750508160011b916000199060031b1c19161790565b60015580f35b601f198216936000805160206125c283398151915291845b86811061041b5750836001959610610401575b505050811b0160015580f35b0135600019600384901b60f8161c191690553880806103f5565b909260206001819286860135815501940191016103e2565b50346101795760e03660031901126101795760036004351015610179576024356001600160401b0381116103375761046f903690600401611533565b50506044356001600160401b03811161033757610490903690600401611563565b50506064356001600160401b038111610337576104b1903690600401611563565b50506084356001600160401b0381116103375760409060031990360301126101795760a4356001600160401b038111610337576104f2903690600401611563565b50506104fc61121c565b506105056119b6565b61050d6116ad565b80f35b5034610179576020366003190112610179576004356001600160401b03811161033757610541903690600401611563565b9061055760018060a01b0360065416331461166b565b610562600154611232565b156107a857633b9aca004202428104633b9aca001442151715610794576001600160401b038060025416911601916001600160401b0383116107945760018060a01b03845416604051604081018181106001600160401b03821117610780579086916040528181526020810193828552604051968795636cf02d3f60e01b875260a0600488015284936001546105f781611232565b908160a48b015260018116908160001461075d575060011461070f575b50516001600160401b039081166024890152905181166044880152166064860152848203600319016084860152602095859392849261065292611700565b03925af18015610704576106c6575b5061066d600554611232565b601f8111610688575b506008631cd95b9960e21b0160055580f35b60058083526106c091601f01901c7f036b6384b5eca791c62761152d0c79bb0604c104a5fb6f4eb0703f3154bb3db090810190611965565b38610676565b6020813d6020116106fc575b816106df602093836112b8565b8101031261033757516001600160401b0381168114610661575080fd5b3d91506106d2565b6040513d84823e3d90fd5b6001875290945085906000805160206125c28339815191525b81831061073e575050870160c401936020610614565b805499830160c401999099528a988c9750602090920191600101610728565b60ff191660c4808c019190915291151560051b8a01909101955060209050610614565b634e487b7160e01b87526041600452602487fd5b634e487b7160e01b84526011600452602484fd5b6319c2c92360e01b8352600483fd5b50346101795780600319360112610179576101756101616114ae565b5034610179578060031936011261017957610175610161611392565b5034610179576107fe36611590565b505030330361080a5780f35b60405162461bcd60e51b815260206004820152600c60248201526b1d5b985d5d1a1bdc9a5e995960a21b6044820152606490fd5b5034610179576060366003190112610179576004356001600160a01b03811690819003610337576024356001600160401b0381168091036108cc57610881611206565b916bffffffffffffffffffffffff60a01b8454161783556001600160401b0319600254161760025560018060a01b03166bffffffffffffffffffffffff60a01b600654161760065580f35b8280fd5b50346101795780600319360112610179576101756101616112d9565b50346101795780600319360112610179576006546040516001600160a01b039091168152602090f35b503461017957602036600319011261017957806004356001600160a01b038116908190036109b15760065481906109566001600160a01b038216331461166b565b6001600160a01b03191617600655803b156109b15781809160246040518095819363779b278d60e01b83523360048401525af180156109a4576109965780f35b61099f916112b8565b388180f35b50604051903d90823e3d90fd5b50fd5b5034610179576004906109c6366115d8565b50505050506109d36119b6565b6378e4572560e11b8152fd5b503461017957806003193601126101795760206001600160401b0360025416604051908152f35b50346101795760a0366003190112610179576004356001600160401b03811161033757610a37903690600401611563565b50506024356001600160401b03811161033757610a58903690600401611563565b90916044356001600160401b03811161033757610a79903690600401611563565b50506064356001600160401b03811161033757610a9a903690600401611563565b9092610aa46111f0565b50610aad6119b6565b6001600160401b038111610f7b57610aca81610391600154611232565b82601f8211600114610f0a578190849596610afa94959261025f5750508160011b916000199060031b1c19161790565b6001555b6001600160401b03811161032357610b17600454611232565b601f8111610ebc575b508181601f8111600114610e3a5780610b4e928591610e2f575b508160011b916000199060031b1c19161790565b6004555b610b65610b603683866119db565b611b1c565b509050805160081015610e1b57610120610b8e91015193606060208601519501519236916119db565b92610b998183611af5565b93610ba385611650565b94610bb160405196876112b8565b808652610bc0601f1991611650565b01366020870137815b838110610de557858581516001600160401b03811161032357610bed600354611232565b601f8111610da9575b50602092601f8211600114610d3b5782938291610c279492610d305750508160011b916000199060031b1c19161790565b6003555b604051602081528190600354610c4081611232565b90816020840152600181169081600014610cee5750600114610c89575b50807f9086eaa7cc952591c476a5a1d2c5264c509c93d49d377ccbdc78b115292aac459130930390a280f35b60038452909150826000805160206125a28339815191525b828210610cd7575082016040019190507f9086eaa7cc952591c476a5a1d2c5264c509c93d49d377ccbdc78b115292aac45610c5d565b805482850160400152602090910190600101610ca1565b60ff191660408085019190915291151560051b830190910192507f9086eaa7cc952591c476a5a1d2c5264c509c93d49d377ccbdc78b115292aac459050610c5d565b01519050848061021f565b60038352601f198216936000805160206125a283398151915291845b868110610d915750836001959610610d78575b505050811b01600355610c2b565b015160001960f88460031b161c19169055838080610d6a565b91926020600181928685015181550194019201610d57565b60038352610ddf906000805160206125a2833981519152601f840160051c8101916020851061031957601f0160051c0190611965565b83610bf6565b6001906001600160f81b0319610dfb8285611ab1565b5116610e14610e0a8684611af5565b91881a9189611ab1565b5301610bc9565b634e487b7160e01b83526032600452602483fd5b905085013538610b3a565b50600483527f8a35acfbc15ff81a39ae7d344fd709f28e8600b4aa8c65c6b64bfe7fe36bd19b9082601f198116855b818110610ea1575010610e87575b5050600181811b01600455610b52565b840135600019600384901b60f8161c191690553880610e77565b87840135855560019094019360209384019386935001610e69565b60048352610f04907f8a35acfbc15ff81a39ae7d344fd709f28e8600b4aa8c65c6b64bfe7fe36bd19b601f840160051c8101916020851061031957601f0160051c0190611965565b38610b20565b60018452601f198216956000805160206125c283398151915291855b888110610f6357508360019596979810610f49575b505050811b01600155610afe565b0135600019600384901b60f8161c19169055388080610f3b565b90926020600181928686013581550194019101610f26565b634e487b7160e01b83526041600452602483fd5b503461017957610f9e36611590565b5050610fa86119b6565b7f2994e1140d9b387c958be4b4ee3692c84ef8b6864b02d4714bde9ea686a5414d8180a180f35b5034610179578060031936011261017957546040516001600160a01b039091168152602090f35b50346101795761017561016161100b36611590565b906110146119b6565b611721565b5034610179576101003660031901126101795760036004351015610179576024356001600160401b03811161033757611056903690600401611533565b50506044356001600160401b03811161033757611077903690600401611563565b50506064356001600160401b03811161033757611098903690600401611563565b50506084356001600160401b0381116103375760409060031990360301126101795760a4356001600160401b038111610337576110d9903690600401611563565b505060c4356001600160401b038111610337576110fa903690600401611563565b50506104fc6111d5565b5034610179576020366003190112610179576004356001600160a01b03811690819003610337576006546111426001600160a01b038216331461166b565b6001600160a01b0319161760065580f35b5034610179578060031936011261017957506101756040516111766040826112b8565b60018152603160f81b60208201526040519182916020835260208301905b919082519283825260005b8481106111c0575050826000602080949584010152601f8019910116010190565b8060208092840101518282860101520161119f565b60e435906001600160a01b03821682036111eb57565b600080fd5b608435906001600160a01b03821682036111eb57565b604435906001600160a01b03821682036111eb57565b60c435906001600160a01b03821682036111eb57565b90600182811c92168015611262575b602083101461124c57565b634e487b7160e01b600052602260045260246000fd5b91607f1691611241565b606081019081106001600160401b0382111761128757604052565b634e487b7160e01b600052604160045260246000fd5b60c081019081106001600160401b0382111761128757604052565b90601f801991011681019081106001600160401b0382111761128757604052565b60405190600082600454916112ed83611232565b80835292600181169081156113735750600114611313575b611311925003836112b8565b565b506004600090815290917f8a35acfbc15ff81a39ae7d344fd709f28e8600b4aa8c65c6b64bfe7fe36bd19b5b81831061135757505090602061131192820101611305565b602091935080600191548385890101520191019091849261133f565b6020925061131194915060ff191682840152151560051b820101611305565b60405190600082600554916113a683611232565b808352926001811690811561137357506001146113c957611311925003836112b8565b506005600090815290917f036b6384b5eca791c62761152d0c79bb0604c104a5fb6f4eb0703f3154bb3db05b81831061140d57505090602061131192820101611305565b60209193508060019154838589010152019101909184926113f5565b604051906000826003549161143d83611232565b8083529260018116908115611373575060011461146057611311925003836112b8565b506003600090815290916000805160206125a28339815191525b81831061149257505090602061131192820101611305565b602091935080600191548385890101520191019091849261147a565b60405190600082600154916114c283611232565b808352926001811690811561137357506001146114e557611311925003836112b8565b506001600090815290916000805160206125c28339815191525b81831061151757505090602061131192820101611305565b60209193508060019154838589010152019101909184926114ff565b9181601f840112156111eb578235916001600160401b0383116111eb576020808501948460051b0101116111eb57565b9181601f840112156111eb578235916001600160401b0383116111eb57602083818601950101116111eb57565b60406003198201126111eb57600435906001600160401b0382116111eb576101209082900360031901126111eb57600401906024356001600160a01b03811681036111eb5790565b60606003198201126111eb576004356001600160401b0381116111eb578161160291600401611563565b92909291602435906001600160401b0382116111eb5761162491600401611563565b90916044356001600160a01b03811681036111eb5790565b35906001600160401b03821682036111eb57565b6001600160401b03811161128757601f01601f191660200190565b1561167257565b60405162461bcd60e51b8152602060048201526013602482015272756e617574686f72697a65642061636365737360681b6044820152606490fd5b6116b8600154611232565b6116be57565b631ddf784360e11b60005260046000fd5b9035601e19823603018112156111eb5701602081359101916001600160401b0382116111eb5781360383136111eb57565b908060209392818452848401376000828201840152601f01601f1916010190565b600091829161186a6040518092602082019463bd950f8960e01b8652604060248401526001600160401b036117558361163c565b1660648401526001600160401b036118476101006118186117f86117d96117ba61179b8a608461012061178b60208e018e6116cf565b92909301526101848d0191611700565b6117a860408b018b6116cf565b8c83036063190160a48e015290611700565b6117c760608a018a6116cf565b8b83036063190160c48d015290611700565b6117e660808901896116cf565b8a83036063190160e48c015290611700565b61180560a08801886116cf565b898303606319016101048b015290611700565b948361182660c0830161163c565b166101248801528361183a60e0830161163c565b166101448801520161163c565b166101648401526001600160a01b0316604483015203601f1981018352826112b8565b519082305af13d15611960573d61188081611650565b9061188e60405192836112b8565b8152600060203d92013e5b15611901576040908151916118ae81846112b8565b6008835267113932b9bab63a1160c11b60208401525160005b600881106118ec575090915060006028820152600881526118e96028826112b8565b90565b806020809286010151828285010152016118c7565b60409081519161191181846112b8565b60078352661132b93937b91160c91b60208401525160005b6007811061194b575090915060006027820152600781526118e96027826112b8565b80602080928601015182828501015201611929565b611899565b818110611970575050565b60008155600101611965565b90601f8211611989575050565b6113119160016000526020600020906020601f840160051c8301931061031957601f0160051c0190611965565b6000546001600160a01b031633036119ca57565b63e54f8f9d60e01b60005260046000fd5b9291926119e782611650565b916119f560405193846112b8565b8294818452818301116111eb578281602093846000960137010152565b8051821015611a265760209160051b010190565b634e487b7160e01b600052603260045260246000fd5b60405190611a498261126c565b60006040838281528260208201520152565b60405190611a688261129d565b600060a0838281528260208201528260408201528260608201528260808201520152565b6000198114611a9b5760010190565b634e487b7160e01b600052601160045260246000fd5b908151811015611a26570160200190565b60ff1660ff8114611a9b5760010190565b6005821015611adf5752565b634e487b7160e01b600052602160045260246000fd5b91908203918211611a9b57565b8015611a9b576000190190565b516005811015611adf5790565b611b24611a3c565b50611b2d611a3c565b5060405191611b3b8361126c565b6000808452602084019081526000196040808601918252516101c0611b6081836112b8565b600d8252601f190160005b81811061213857505093825190611b80611a5b565b505b8651815181101561212a576001600160f81b031990611ba19083611ab1565b5116607b60f81b811480801561211d575b6120805750607d60f81b8114808015612073575b611ef55750601160f91b8114611ee857600160fd1b81148015611edb575b8015611ece575b8015611ec1575b611cb357601d60f91b8114611eab57600b60fa1b8114611da657600360fc1b81101580611d98575b8015611d8b575b8015611d7e575b8015611d71575b8015611d64575b611c7d57600160fd1b8110159081611c6e575b50611c60575b611c598751611a8c565b8752611b82565b506001955060009392505050565b603f60f91b1015905038611c49565b509082516000198103611cea575b50611c97828789612436565b80611cde5750611ca690611a8c565b9082516000198103611cb9575b50611c4f565b611cc560a09188611a12565b510160ff611cd581835116611ac2565b16905238611cb3565b96506000949350505050565b611cf49087611a12565b518051906005821015611adf57600160009214908115611d21575b5015611c8b5760019750949350505050565b809150516005811015611d50576003149081611d3f575b5038611d0f565b60ff915060a0015116151538611d38565b634e487b7160e01b83526021600452602483fd5b50603760f91b8114611c36565b50601d60fa1b8114611c2f565b50603360f91b8114611c28565b50602d60f81b8114611c21565b50603960f81b811115611c1a565b5082516000198114159081611e89575b5080611e68575b15611c4f5791929081516000198101908111611a9b575b611de7611de18289611a12565b51611b0f565b6005811015611adf576002148015611e49575b611e0d575b611e0890611b02565b611dd4565b6040611e198289611a12565b510151151580611e33575b15611dff578452909291611c4f565b506080611e408289611a12565b51015115611e24565b50611e57611de18289611a12565b6005811015611adf57600114611dfa565b50611e77611de1845188611a12565b6005811015611adf5760011415611dbd565b611e989150611de19088611a12565b6005811015611adf576002141538611db6565b5083516000198101908111611a9b578352611c4f565b50600560fa1b8114611bf2565b50600960f91b8114611beb565b50601160f81b8114611be4565b5090611c978287896121e9565b929693959394919215905061206b576001955b8151600019810190600090821161203e57505b611f258187611a12565b51604081015115158061205f575b611f465750611f4190611b02565b611f1b565b9790919392959796949651906005821015611adf576005811015611adf57600091036120525760001985528851906001820180921161203e57506060611f8c838a611a12565b51015260016080611f9d838a611a12565b510152805b611ffc575b8015611fb35750611c4f565b611fbd8188611a12565b51604081015115159081611fef575b5015611cb3576fffffffffffffffffffffffffffffffff16600f0b835238611cb3565b6080915001511538611fcc565b6120068188611a12565b51604081015115159081612031575b506120295761202390611b02565b80611fa2565b808452611fa7565b6080915001511538612015565b634e487b7160e01b81526011600452602490fd5b6001985095945050505050565b50608081015115611f33565b600295611f08565b50605d60f81b8214611bc6565b9261208b9150611a8c565b91612096878961214f565b91901561210d57600191604091865160001981036120e8575b50156120de576120c0835b82611ad3565b89516020820152015283516000198101908111611a9b578352611c4f565b6120c060026120ba565b6120f460a0918c611a12565b510160ff61210481835116611ac2565b169052386120af565b5060039750600095945050505050565b50605b60f81b8214611bb2565b505091516000955092915050565b602090612143611a5b565b82828601015201611b6b565b60209092919261215d611a5b565b500180518351809110156121ca57506121b76040519361217c8561129d565b6000855260006020860152600060408601526000606086015260006080860152600060a0860152825190856121b18383611a12565b52611a12565b506121c28151611a8c565b905260019190565b919291600019810191508111611a9b576121e391611a12565b51600091565b92918351916121f6611a5b565b506122018551611a8c565b85525b8451825181101561242b576122199083611ab1565b516001600160f81b03198116601160f91b146123d65760f81c605c14806123c0575b612251575b61224a8551611a8c565b8552612204565b61225b8551611a8c565b808652601160f91b906001600160f81b0319906122789085611ab1565b511614801561239b575b8015612376575b8015612351575b801561232c575b8015612307575b80156122e2575b80156122bd575b600003612240575050909152600190565b508451601d60fa1b906001600160f81b0319906122da9085611ab1565b5116146122ac565b508451603160f91b906001600160f81b0319906122ff9085611ab1565b5116146122a5565b508451603760f91b906001600160f81b0319906123249085611ab1565b51161461229e565b508451603960f91b906001600160f81b0319906123499085611ab1565b511614612297565b508451603360f91b906001600160f81b03199061236e9085611ab1565b511614612290565b508451601760fa1b906001600160f81b0319906123939085611ab1565b511614612289565b508451602f60f81b906001600160f81b0319906123b89085611ab1565b511614612282565b50845160018101809111611a9b5782511161223b565b506123e591508492939461214f565b9190156124235760018301809311611a9b57516003919060009360a09383526020830152600160408301526060820152600160808201520152600090565b905052600390565b505050909152600290565b9291906000845192612446611a5b565b505b855181518110156125975761245d9082611ab1565b516001600160f81b03198116600160fd1b8114908115612589575b811561257b575b811561256d575b811561255f575b8115612551575b8115612543575b506124db5760f81c602081109081156124d0575b506124c5576124be8651611a8c565b8652612448565b505050909152600190565b607f915011386124af565b50505060019392935b1561253b576124f3908361214f565b9190156125325782519160009260a09260048352602083015260016040830152606082015260016080820152015261252b8151611b02565b9052600090565b91905052600390565b509052600290565b605d60f81b1490503861249b565b607d60f81b81149150612494565b600b60fa1b8114915061248d565b600d60f81b81149150612486565b600560f91b8114915061247f565b600960f81b81149150612478565b50509392936124e456fec2575a0e9e593c00f959f8c92f12db2869c3395a3b0502d05e2516446f71f85bb10e2d527612073b26eecdfd717e6a320cf44b4afac2b0732d9fcbe2b7fa0cf6a264697066735822122010764dd5db7f0203acd9735f5b70a82154738672fadffea11b00039ff53f626c64736f6c634300081a0033","linkReferences":{}},"methodIdentifiers":{"ackString()":"1bef4669","channelId()":"e2cee544","counterpartyVersion()":"9c6ea30d","getAckString()":"defaac74","getChannelId()":"fcee0697","getCounterpartyVersion()":"133c2d39","getICA()":"f8876a03","getOwner()":"893d20e8","getVersion()":"0d8e6e2c","ibcHandler()":"2dc1bd40","icaAddress()":"2ff02e27","initialize(address,uint64,address)":"bcbe03df","onAcknowledgementPacket((uint64,string,string,string,string,bytes,(uint64,uint64),uint64),bytes,address)":"fb8b532e","onChanCloseConfirm(string,string,address)":"3f41c9ea","onChanCloseInit(string,string,address)":"7538ed68","onChanOpenAck(string,string,string,string,address)":"60ca56eb","onChanOpenConfirm(string,string,address)":"f8288cc6","onChanOpenInit(uint8,string[],string,string,(string,string),string,address)":"f2f83f7a","onChanOpenTry(uint8,string[],string,string,(string,string),string,string,address)":"218d1e3e","onRecvPacket((uint64,string,string,string,string,bytes,(uint64,uint64),uint64),address)":"2301c6f5","onRecvPacketProcessing((uint64,string,string,string,string,bytes,(uint64,uint64),uint64),address)":"bd950f89","onTimeoutPacket((uint64,string,string,string,string,bytes,(uint64,uint64),uint64),address)":"52c7157d","owner()":"8da5cb5b","returnICA(address)":"779b278d","sendMessages(bytes)":"e4eb8c63","setOwner(address)":"13af4035","timeout()":"70dea79a"},"id":35}