{"abi":[{"type":"function","name":"UPGRADE_INTERFACE_VERSION","inputs":[],"outputs":[{"name":"","type":"string","internalType":"string"}],"stateMutability":"view"},{"type":"function","name":"claimICA","inputs":[],"outputs":[],"stateMutability":"payable"},{"type":"function","name":"createICAController","inputs":[{"name":"_ibcHandler","type":"address","internalType":"contract IIBCPacketHandler"},{"name":"_timeout","type":"uint64","internalType":"uint64"},{"name":"_data","type":"tuple","internalType":"struct IbcCoreChannelV1Channel.Data","components":[{"name":"state","type":"uint8","internalType":"enum IbcCoreChannelV1GlobalEnums.State"},{"name":"ordering","type":"uint8","internalType":"enum IbcCoreChannelV1GlobalEnums.Order"},{"name":"counterparty","type":"tuple","internalType":"struct IbcCoreChannelV1Counterparty.Data","components":[{"name":"port_id","type":"string","internalType":"string"},{"name":"channel_id","type":"string","internalType":"string"}]},{"name":"connection_hops","type":"string[]","internalType":"string[]"},{"name":"version","type":"string","internalType":"string"}]}],"outputs":[],"stateMutability":"nonpayable"},{"type":"function","name":"getBeacon","inputs":[],"outputs":[{"name":"","type":"address","internalType":"address"}],"stateMutability":"view"},{"type":"function","name":"getClaimableICAControllers","inputs":[],"outputs":[{"name":"","type":"address[]","internalType":"address[]"}],"stateMutability":"view"},{"type":"function","name":"getFee","inputs":[],"outputs":[{"name":"","type":"uint256","internalType":"uint256"}],"stateMutability":"view"},{"type":"function","name":"getICAControllers","inputs":[{"name":"_owner","type":"address","internalType":"address"}],"outputs":[{"name":"","type":"address[]","internalType":"address[]"}],"stateMutability":"view"},{"type":"function","name":"getOwnedICAControllers","inputs":[],"outputs":[{"name":"","type":"address[]","internalType":"address[]"}],"stateMutability":"view"},{"type":"function","name":"getReceiver","inputs":[],"outputs":[{"name":"","type":"address","internalType":"address"}],"stateMutability":"view"},{"type":"function","name":"getVersion","inputs":[],"outputs":[{"name":"","type":"string","internalType":"string"}],"stateMutability":"view"},{"type":"function","name":"initialize","inputs":[{"name":"_icaBeacon","type":"address","internalType":"address"},{"name":"_transactionFee","type":"uint256","internalType":"uint256"},{"name":"_receiver","type":"address","internalType":"address"}],"outputs":[],"stateMutability":"nonpayable"},{"type":"function","name":"isAdmin","inputs":[{"name":"admin","type":"address","internalType":"address"}],"outputs":[{"name":"","type":"bool","internalType":"bool"}],"stateMutability":"view"},{"type":"function","name":"moveToClaimableICAControllers","inputs":[{"name":"icas","type":"address[]","internalType":"address[]"}],"outputs":[],"stateMutability":"nonpayable"},{"type":"function","name":"owner","inputs":[],"outputs":[{"name":"","type":"address","internalType":"address"}],"stateMutability":"view"},{"type":"function","name":"proxiableUUID","inputs":[],"outputs":[{"name":"","type":"bytes32","internalType":"bytes32"}],"stateMutability":"view"},{"type":"function","name":"renounceOwnership","inputs":[],"outputs":[],"stateMutability":"nonpayable"},{"type":"function","name":"returnICA","inputs":[{"name":"_owner","type":"address","internalType":"address"}],"outputs":[],"stateMutability":"nonpayable"},{"type":"function","name":"sendICAMessages","inputs":[{"name":"icaController","type":"address","internalType":"contract IController"},{"name":"packet","type":"bytes","internalType":"bytes"}],"outputs":[],"stateMutability":"nonpayable"},{"type":"function","name":"setAdmins","inputs":[{"name":"_admins","type":"address[]","internalType":"address[]"}],"outputs":[],"stateMutability":"nonpayable"},{"type":"function","name":"setFee","inputs":[{"name":"_fee","type":"uint256","internalType":"uint256"}],"outputs":[],"stateMutability":"nonpayable"},{"type":"function","name":"setReceiver","inputs":[{"name":"_receiver","type":"address","internalType":"address"}],"outputs":[],"stateMutability":"nonpayable"},{"type":"function","name":"transferOwnership","inputs":[{"name":"newOwner","type":"address","internalType":"address"}],"outputs":[],"stateMutability":"nonpayable"},{"type":"function","name":"upgradeToAndCall","inputs":[{"name":"newImplementation","type":"address","internalType":"address"},{"name":"data","type":"bytes","internalType":"bytes"}],"outputs":[],"stateMutability":"payable"},{"type":"event","name":"ICAControllerCreated","inputs":[{"name":"icaController","type":"address","indexed":true,"internalType":"address"},{"name":"owner","type":"address","indexed":false,"internalType":"address"}],"anonymous":false},{"type":"event","name":"ICAControllerHolderAdded","inputs":[{"name":"holder","type":"address","indexed":true,"internalType":"address"},{"name":"controller","type":"address","indexed":false,"internalType":"address"}],"anonymous":false},{"type":"event","name":"ICAControllerHolderRemoved","inputs":[{"name":"holder","type":"address","indexed":true,"internalType":"address"},{"name":"controller","type":"address","indexed":false,"internalType":"address"}],"anonymous":false},{"type":"event","name":"ICAControllerOwnerUpdated","inputs":[{"name":"controller","type":"address","indexed":true,"internalType":"address"},{"name":"owner","type":"address","indexed":false,"internalType":"address"}],"anonymous":false},{"type":"event","name":"Initialized","inputs":[{"name":"version","type":"uint64","indexed":false,"internalType":"uint64"}],"anonymous":false},{"type":"event","name":"OwnershipTransferred","inputs":[{"name":"previousOwner","type":"address","indexed":true,"internalType":"address"},{"name":"newOwner","type":"address","indexed":true,"internalType":"address"}],"anonymous":false},{"type":"event","name":"Upgraded","inputs":[{"name":"implementation","type":"address","indexed":true,"internalType":"address"}],"anonymous":false},{"type":"error","name":"AddressEmptyCode","inputs":[{"name":"target","type":"address","internalType":"address"}]},{"type":"error","name":"ERC1967InvalidImplementation","inputs":[{"name":"implementation","type":"address","internalType":"address"}]},{"type":"error","name":"ERC1967NonPayable","inputs":[]},{"type":"error","name":"FailedInnerCall","inputs":[]},{"type":"error","name":"InvalidInitialization","inputs":[]},{"type":"error","name":"NotInitializing","inputs":[]},{"type":"error","name":"OwnableInvalidOwner","inputs":[{"name":"owner","type":"address","internalType":"address"}]},{"type":"error","name":"OwnableUnauthorizedAccount","inputs":[{"name":"account","type":"address","internalType":"address"}]},{"type":"error","name":"StringsInsufficientHexLength","inputs":[{"name":"value","type":"uint256","internalType":"uint256"},{"name":"length","type":"uint256","internalType":"uint256"}]},{"type":"error","name":"UUPSUnauthorizedCallContext","inputs":[]},{"type":"error","name":"UUPSUnsupportedProxiableUUID","inputs":[{"name":"slot","type":"bytes32","internalType":"bytes32"}]}],"bytecode":{"object":"0x60a08060405234602957306080526127d5908161002f8239608051818181610e9801526116090152f35b600080fdfe6080604052600436101561001257600080fd5b6000803560e01c80630d8e6e2c146119f857806324d7806c146119ca5780632d6b3a6b146119a15780633183ea31146117dd5780634f1ef286146115b957806350d5674a14610eed57806352d1902d14610e855780635601b46e14610c1357806365705bb814610b9557806369fe0e2d14610b6e578063715018a614610b04578063718da7ee14610ac0578063779b278d1461083a5780638da5cb5b1461080457806398aca922146107db578063accc1d5e14610711578063ad3cb1cc146106c8578063b0ebaff31461054b578063c350a1b51461026f578063c61d31d6146101f5578063cba3003414610167578063ced72f87146101495763f2fde38b1461011a57600080fd5b3461014657602036600319011261014657610143610136611a86565b61013e611dd3565b611d5d565b80f35b80fd5b50346101465780600319360112610146576020600354604051908152f35b503461014657806003193601126101465760405180916020600154928381520191600182527fb10e2d527612073b26eecdfd717e6a320cf44b4afac2b0732d9fcbe2b7fa0cf6915b8181106101d6576101d2856101c681870382611aa1565b60405191829182611b2a565b0390f35b82546001600160a01b03168452602090930192600192830192016101af565b5034610146576020366003190112610146576001600160a01b03610217611a86565b1681528060205260408120604051918260208354918281520192825260208220915b818110610250576101d2856101c681870382611aa1565b82546001600160a01b0316845260209093019260019283019201610239565b503461014657606036600319011261014657610289611a86565b6044356001600160a01b0381169081900361054757600080516020612780833981519152549160ff8360401c1615926001600160401b0381168015908161053f575b6001149081610535575b15908161052c575b5061051d5767ffffffffffffffff19811660011760008051602061278083398151915255836104f0575b50610310611e09565b610318611e09565b61032133611d5d565b610329611e09565b604051906103da90818301918383106001600160401b038411176104dc5791839160409361234684396001600160a01b0316815233602082015203019084f080156104d15760018060a01b03166001600160601b0360a01b60065416176006556024356003556001600160601b0360a01b6004541617600455604051602081018181106001600160401b038211176104bd5760405233815260055460016005558060011061046f575b5060058352825b600181106104445750506103ea5780f35b68ff0000000000000000196000805160206127808339815191525416600080516020612780833981519152557fc7f505b2f371ae2175ee4913f4499e1f2633a7b5936321eed1cdaeb6115181d2602060405160018152a180f35b81516001600160a01b03166000805160206127208339815191528201556020909101906001016103d9565b60058452600080516020612720833981519152017f036b6384b5eca791c62761152d0c79bb0604c104a5fb6f4eb0703f3154bb3db15b8181106104b257506103d2565b8481556001016104a5565b634e487b7160e01b84526041600452602484fd5b6040513d85823e3d90fd5b634e487b7160e01b87526041600452602487fd5b68ffffffffffffffffff191668010000000000000001176000805160206127808339815191525538610307565b63f92ee8a960e01b8552600485fd5b905015386102dd565b303b1591506102d5565b8591506102cb565b8280fd5b50346101465761055a36611b6d565b90825b3084528360205260408420548110156106c457835b838110610582575060010161055d565b929092308552846020526105998460408720611bf0565b90546001600160a01b0360039290921b1c8116906105c06105bb848688611d4d565b611d39565b16146105d2575b600101929092610572565b6105e06105bb828486611d4d565b600254600160401b8110156104dc579061060582600161062994016002556002611bf0565b81546001600160a01b0393841660039290921b91821b9390911b1916919091179055565b3085528460205260408520548410156106c05730855284602052604085203086528560205260408620549060001982019182116106ac576106706001939261069292611bf0565b848060a01b0391549060031b1c16308852876020526106058760408a20611bf0565b308652856020526106a560408720611d06565b90506105c7565b634e487b7160e01b87526011600452602487fd5b8480fd5b8380f35b5034610146578060031936011261014657506101d26040516106eb604082611aa1565b60058152640352e302e360dc1b6020820152604051918291602083526020830190611a61565b50346101465761072036611b6d565b9061073261072d33611c08565b611c77565b6001600160401b0382116107c757600160401b82116107c75760055482600555808310610795575b5060058352825b82811061076c578380f35b600190602061077a84611d39565b93019281600080516020612720833981519152015501610761565b600584526000805160206127208339815191529081019083015b8181106107bc575061075a565b8481556001016107af565b634e487b7160e01b83526041600452602483fd5b50346101465780600319360112610146576004546040516001600160a01b039091168152602090f35b5034610146578060031936011261014657600080516020612740833981519152546040516001600160a01b039091168152602090f35b5034610146576020366003190112610146576001600160a01b0361085c611a86565b1680825281602052604082205415610a6f578082528160205260408220805415610a5b578252602082205433600384901b9190911c6001600160a01b031603610a0a578152806020526108b160408220611d06565b308152806020526108c53360408320611cc3565b600154819081805b8281106109d45750610936575b826040513381527f6118eb84a49da60349df967fcac77c0cabfd9b52d7dd7a07560e2b5c4a9e13ac60203092a26040513081527ff375e6a0d5143fa186ee5d0d171fd78f875fc7ef4244f7a0a8b77f4a8f1ae2ab60203392a280f35b808210156105475760001981019081116109c0579061060561095a61097293611bbf565b905460039190911b1c6001600160a01b031691611bbf565b60015480156109ac57600019016109a261098d826001611bf0565b81549060018060a01b039060031b1b19169055565b60015538806108da565b634e487b7160e01b82526031600452602482fd5b634e487b7160e01b83526011600452602483fd5b6109dd81611bbf565b905460039190911b1c6001600160a01b031633146109fe575b6001016108cd565b925060019050826109f6565b60405162461bcd60e51b815260206004820152602360248201527f556e617574686f72697a65642c20796f7520617265206e6f7420746865206f776044820152623732b960e91b6064820152608490fd5b634e487b7160e01b83526032600452602483fd5b60405162461bcd60e51b8152602060048201526024808201527f49434120636f6e74726f6c6c657220666f722075736572206973206e6f7420666044820152631bdd5b9960e21b6064820152608490fd5b503461014657602036600319011261014657610ada611a86565b610ae661072d33611c08565b60018060a01b03166001600160601b0360a01b600454161760045580f35b5034610146578060031936011261014657610b1d611dd3565b60008051602061274083398151915280546001600160a01b0319811690915581906001600160a01b03167f8be0079c531659141344cd1fd0a4f28419497f9722a3daafe3b4186f6b6457e08280a380f35b503461014657602036600319011261014657610b8c61072d33611c08565b60043560035580f35b503461014657806003193601126101465760405180916020600254928381520191600282527f405787fa12a823e0f2b7631cc41b3ba8828b3321ca811111fa75cd3aa3bb5ace915b818110610bf4576101d2856101c681870382611aa1565b82546001600160a01b0316845260209093019260019283019201610bdd565b50806003193601126101465733815280602052600160408220541015610e40576003543403610e09576002548015610dc45760001981018181116109c0576002541115610db05760028083527f405787fa12a823e0f2b7631cc41b3ba8828b3321ca811111fa75cd3aa3bb5acd909101549054600383901b9190911c6001600160a01b0316908015610d9c5760001901610cb161098d826002611bf0565b60025533825281602052610cc88160408420611cc3565b803b15610d8d576040516313af403560e01b81523360048201528290818160248183875af18015610d9157610d78575b5050600154600160401b8110156107c75781610605826001610d1f94016001556001611bf0565b6040518181527f1612e7711e3713363f49576c500a80a82311658329485ca2f32f1456d540ff5660203092a27ff375e6a0d5143fa186ee5d0d171fd78f875fc7ef4244f7a0a8b77f4a8f1ae2ab6020604051338152a280f35b81610d8291611aa1565b610d8d578138610cf8565b5080fd5b6040513d84823e3d90fd5b634e487b7160e01b83526031600452602483fd5b634e487b7160e01b82526032600452602482fd5b60405162461bcd60e51b815260206004820152601a60248201527f4e6f20417661696c61626c6520436c61696d61626c65204943410000000000006044820152606490fd5b60405162461bcd60e51b815260206004820152600f60248201526e139bdd08195b9bdd59da08199d5b99608a1b6044820152606490fd5b60405162461bcd60e51b815260206004820152601760248201527f4f6e6c79206f6e652049434120697320616c6c6f7765640000000000000000006044820152606490fd5b50346101465780600319360112610146577f00000000000000000000000000000000000000000000000000000000000000006001600160a01b03163003610ede5760206040516000805160206127608339815191528152f35b63703e46dd60e11b8152600490fd5b5034610146576060366003190112610146576004356001600160a01b03811690819003610d8d576024356001600160401b03811680910361054757604435906001600160401b0382116113f55760a060031983360301126113f55760018060a01b0360065416906040519063bcbe03df60e01b6020830152846024830152604482015230606482015260648152610f85608482611aa1565b604051916104ad90818401918483106001600160401b038411176114f557610fc192859492604092611e99873981528160208201520190611a61565b039084f080156104d15760018060a01b03169130845283602052610fe88360408620611cc3565b60405191606084610ff98286611aa1565b602a855260208501601f1983013682378551156115a55760309053845160011015611591576078602186015360295b60018111611522575061150957604051938185018581106001600160401b038211176114f55760405284526040519160a083018381106001600160401b038211176114f557604052806004013560058110156114795783526024810135600381101561147957602084015260448101356001600160401b038111611479578101604060031982360301126114795760405190604082018281106001600160401b038211176114e15760405260048101356001600160401b0381116114dd576110f69060043691840101611ce8565b82526024810135906001600160401b0382116114dd57600461111b9236920101611ce8565b6020820152604084015260648101356001600160401b03811161147957810136602382011215611479576004810135906001600160401b0382116114c9578160051b6040519261116e6020830185611aa1565b83528101602401602083013682116114c55760248301905b8282106114905750505050828401526084810135906001600160401b0382116114795760046111b89236920101611ce8565b60808301526020840191825260408401918583526040516364af255d60e01b815260016004820152602081602481737109709ecfa91a80626ff3989d68f67f5b1dd12d5afa908115611485578891611446575b501561126e575b8686807fe7bfc79321315a10c3cfce5790a4a8059c2e4874c1997fad4acb3ac1add6c5306020604051308152a26040519081527f6118eb84a49da60349df967fcac77c0cabfd9b52d7dd7a07560e2b5c4a9e13ac60203092a280f35b61129760405195632503574760e01b875260206004880152518360248801526084870190611a61565b905185820360231901604487015280516005811015611432578252602081015160038110156114325791889593918795936020830152611308604082015160a0604085015260206112f48251604060a088015260e0870190611a61565b910151848203609f190160c0860152611a61565b838201519383820390840152835180825260208201916020808360051b8301019601928a915b8383106113f9575050505050926113578793879593608087950151906080818403910152611a61565b90516001600160a01b0316606483015203925af180156104d15761137f575b80808080611212565b3d8084833e61138e8183611aa1565b8101906020818303126113f5578051906001600160401b0382116106c0570181601f820112156113f5578051906113c482611ad8565b926113d26040519485611aa1565b828452602083830101116106c0576020806113ef94019101611a3e565b38611376565b8380fd5b929597995092979950929460208061141d600193601f198682030187528b51611a61565b9901930193018c999795938b9997959261132e565b634e487b7160e01b89526021600452602489fd5b90506020813d60201161147d575b8161146160209383611aa1565b8101031261147957518015158103611479573861120b565b8780fd5b3d9150611454565b6040513d8a823e3d90fd5b81356001600160401b0381116114c1576020916114b6839283600436928a010101611ce8565b815201910190611186565b8c80fd5b8a80fd5b634e487b7160e01b89526041600452602489fd5b8980fd5b634e487b7160e01b8a52604160045260248afd5b634e487b7160e01b88526041600452602488fd5b63e22e27eb60e01b865260048590526014602452604486fd5b90600f8116601081101561157d57865183101561157d576f181899199a1a9b1b9c1cb0b131b232b360811b901a8683016020015360041c9080156115695760001901611028565b634e487b7160e01b88526011600452602488fd5b634e487b7160e01b89526032600452602489fd5b634e487b7160e01b87526032600452602487fd5b634e487b7160e01b88526032600452602488fd5b506040366003190112610146576115ce611a86565b906024356001600160401b038111610d8d5736602382011215610d8d576115ff903690602481600401359101611af3565b6001600160a01b037f0000000000000000000000000000000000000000000000000000000000000000163081149081156117ba575b506117ab57611641611dd3565b6040516352d1902d60e01b8152926001600160a01b0381169190602085600481865afa80958596611777575b5061168657634c9c8ce360e01b84526004839052602484fd5b90918460008051602061276083398151915281036117655750813b156117535760008051602061276083398151915280546001600160a01b031916821790557fbc7cd75a20ee27fd9adebab32041f755214dbc6bffa90cc0225b39da2e5c2d3b8480a28151839015611739578083602061172d95519101845af43d15611731573d9161171183611ad8565b9261171f6040519485611aa1565b83523d85602085013e611e37565b5080f35b606091611e37565b505050346117445780f35b63b398979f60e01b8152600490fd5b634c9c8ce360e01b8452600452602483fd5b632a87526960e21b8552600452602484fd5b9095506020813d6020116117a3575b8161179360209383611aa1565b810103126106c05751943861166d565b3d9150611786565b63703e46dd60e11b8252600482fd5b600080516020612760833981519152546001600160a01b03161415905038611634565b5034610146576040366003190112610146576004356001600160a01b03811690819003610d8d576024356001600160401b0381116105475736602382011215610547578060040135916001600160401b0383116113f55736602484840101116113f557604051631127a41d60e31b8152602081600481855afa908115611996578591611954575b50306001600160a01b03909116036118f757839161188461072d33611c08565b813b15610547578291602483604487946040519889968795869363e4eb8c6360e01b855260206004860152828286015201848401378181018301849052601f01601f191681010301925af180156118ea576118dc5780f35b6118e591611aa1565b388180f35b50604051903d90823e3d90fd5b60405162461bcd60e51b815260206004820152602f60248201527f556e617574686f72697a656420746f2073656e64206d6573736167657320746f60448201526e1024a1a09021b7b73a3937b63632b960891b6064820152608490fd5b90506020813d60201161198e575b8161196f60209383611aa1565b810103126106c057516001600160a01b03811681036106c05738611864565b3d9150611962565b6040513d87823e3d90fd5b50346101465780600319360112610146576006546040516001600160a01b039091168152602090f35b50346101465760203660031901126101465760206119ee6119e9611a86565b611c08565b6040519015158152f35b5034610146578060031936011261014657506101d2604051611a1b604082611aa1565b6002815261763360f01b6020820152604051918291602083526020830190611a61565b60005b838110611a515750506000910152565b8181015183820152602001611a41565b90602091611a7a81518092818552858086019101611a3e565b601f01601f1916010190565b600435906001600160a01b0382168203611a9c57565b600080fd5b90601f801991011681019081106001600160401b03821117611ac257604052565b634e487b7160e01b600052604160045260246000fd5b6001600160401b038111611ac257601f01601f191660200190565b929192611aff82611ad8565b91611b0d6040519384611aa1565b829481845281830111611a9c578281602093846000960137010152565b602060408183019282815284518094520192019060005b818110611b4e5750505090565b82516001600160a01b0316845260209384019390920191600101611b41565b906020600319830112611a9c576004356001600160401b038111611a9c5782602382011215611a9c578060040135926001600160401b038411611a9c5760248460051b83010111611a9c576024019190565b600154811015611bda57600160005260206000200190600090565b634e487b7160e01b600052603260045260246000fd5b8054821015611bda5760005260206000200190600090565b600554908160005b838110611c205750505050600090565b600082821015611c6357600590526000805160206127208339815191528101546001600160a01b03848116911614611c5a57600101611c10565b50505050600190565b634e487b7160e01b81526032600452602490fd5b15611c7e57565b60405162461bcd60e51b815260206004820152601f60248201527f556e617574686f72697a65642c20796f7520617265206e6f742061646d696e006044820152606490fd5b90815491600160401b831015611ac25782610605916001611ce695018155611bf0565b565b9080601f83011215611a9c57816020611d0393359101611af3565b90565b80548015611d23576000190190611d2061098d8383611bf0565b55565b634e487b7160e01b600052603160045260246000fd5b356001600160a01b0381168103611a9c5790565b9190811015611bda5760051b0190565b6001600160a01b03168015611dbd5760008051602061274083398151915280546001600160a01b0319811683179091556001600160a01b03167f8be0079c531659141344cd1fd0a4f28419497f9722a3daafe3b4186f6b6457e0600080a3565b631e4fbdf760e01b600052600060045260246000fd5b600080516020612740833981519152546001600160a01b03163303611df457565b63118cdaa760e01b6000523360045260246000fd5b60ff6000805160206127808339815191525460401c1615611e2657565b631afcd79f60e31b60005260046000fd5b90611e5d5750805115611e4c57805190602001fd5b630a12f52160e11b60005260046000fd5b81511580611e8f575b611e6e575090565b639996b31560e01b60009081526001600160a01b0391909116600452602490fd5b50803b15611e6656fe60a0806040526104ad803803809161001782856102b7565b833981016040828203126101f35761002e826102f0565b602083015190926001600160401b0382116101f3570181601f820112156101f35780519061005b82610304565b9261006960405194856102b7565b828452602083830101116101f35760005b8281106102a2575050602060009183010152813b15610280577fa3f0ad74e5423aebfd80d3ef4346578335a9a72aeaee59ff6cb3582b35133d5080546001600160a01b0319166001600160a01b038416908117909155604051635c60da1b60e01b8152909190602081600481865afa90811561020057600091610246575b50803b156102255750817f1cf3b03a6cf19fa2baba4df148e9dcabedea7f8a5c07840e207e5c089be95d3e600080a280511561020c57602060049260405193848092635c60da1b60e01b82525afa918215610200576000926101b9575b509060008083602061019595519101845af43d156101b1573d9161017883610304565b9261018660405194856102b7565b83523d6000602085013e61031f565b505b60805260405161012c908161038182396080518160180152f35b60609161031f565b91506020823d6020116101f8575b816101d4602093836102b7565b810103126101f3576000806101eb610195946102f0565b935050610155565b600080fd5b3d91506101c7565b6040513d6000823e3d90fd5b505034156101975763b398979f60e01b60005260046000fd5b634c9c8ce360e01b60009081526001600160a01b0391909116600452602490fd5b90506020813d602011610278575b81610261602093836102b7565b810103126101f357610272906102f0565b386100f8565b3d9150610254565b50631933b43b60e21b60009081526001600160a01b0391909116600452602490fd5b8060208092840101518282870101520161007a565b601f909101601f19168101906001600160401b038211908210176102da57604052565b634e487b7160e01b600052604160045260246000fd5b51906001600160a01b03821682036101f357565b6001600160401b0381116102da57601f01601f191660200190565b90610345575080511561033457805190602001fd5b630a12f52160e11b60005260046000fd5b81511580610377575b610356575090565b639996b31560e01b60009081526001600160a01b0391909116600452602490fd5b50803b1561034e56fe60806040819052635c60da1b60e01b81526020906004817f00000000000000000000000000000000000000000000000000000000000000006001600160a01b03165afa801560a5576000901560d6575060203d602011609f575b601f19601f820116608001906080821067ffffffffffffffff83111760895760859160405260800160b1565b60d6565b634e487b7160e01b600052604160045260246000fd5b503d6059565b6040513d6000823e3d90fd5b602090607f19011260d1576080516001600160a01b038116810360d15790565b600080fd5b60008091368280378136915af43d6000803e1560f1573d6000f35b3d6000fdfea26469706673582212201f4bf246fb9f3e5a6a8c823676ff3c39798d979740fb465c5418078f31736e4164736f6c634300081a003360803461013a57601f6103da38819003918201601f19168301916001600160401b0383118484101761013f57808492604094855283398101031261013a5761004681610155565b906001600160a01b039061005c90602001610155565b1690811561012457600080546001600160a01b031981168417825560405193916001600160a01b03909116907f8be0079c531659141344cd1fd0a4f28419497f9722a3daafe3b4186f6b6457e09080a3803b1561010357600180546001600160a01b0319166001600160a01b039290921691821790557fbc7cd75a20ee27fd9adebab32041f755214dbc6bffa90cc0225b39da2e5c2d3b600080a2610270908161016a8239f35b63211eb15960e21b60009081526001600160a01b0391909116600452602490fd5b631e4fbdf760e01b600052600060045260246000fd5b600080fd5b634e487b7160e01b600052604160045260246000fd5b51906001600160a01b038216820361013a5756fe6080604052600436101561001257600080fd5b60003560e01c80633659cfe6146101905780635c60da1b14610167578063715018a61461010e5780638da5cb5b146100e55763f2fde38b1461005357600080fd5b346100e05760203660031901126100e0576004356001600160a01b038116908190036100e057610081610211565b80156100ca57600080546001600160a01b03198116831782556001600160a01b0316907f8be0079c531659141344cd1fd0a4f28419497f9722a3daafe3b4186f6b6457e09080a3005b631e4fbdf760e01b600052600060045260246000fd5b600080fd5b346100e05760003660031901126100e0576000546040516001600160a01b039091168152602090f35b346100e05760003660031901126100e057610127610211565b600080546001600160a01b0319811682556001600160a01b03167f8be0079c531659141344cd1fd0a4f28419497f9722a3daafe3b4186f6b6457e08280a3005b346100e05760003660031901126100e0576001546040516001600160a01b039091168152602090f35b346100e05760203660031901126100e0576004356001600160a01b038116908181036100e0576101be610211565b3b156101fd57600180546001600160a01b031916821790557fbc7cd75a20ee27fd9adebab32041f755214dbc6bffa90cc0225b39da2e5c2d3b600080a2005b63211eb15960e21b60005260045260246000fd5b6000546001600160a01b0316330361022557565b63118cdaa760e01b6000523360045260246000fdfea2646970667358221220dac989cdf569509f2d7717bfc273b848dd1a1f55e1525b75ce72a1b64d6b7e5164736f6c634300081a0033036b6384b5eca791c62761152d0c79bb0604c104a5fb6f4eb0703f3154bb3db09016d09d72d40fdae2fd8ceac6b6234c7706214fd39c1cd1e609a0528c199300360894a13ba1a3210667c828492db98dca3e2076cc3735a920a3ca505d382bbcf0c57e16840df040f15088dc2f81fe391c3923bec73e23a9662efc9c229c6a00a2646970667358221220a92a68d4f785f188d1305e4ff0ffe03b421b73cce25dc15f813fb723f268fd2664736f6c634300081a0033","linkReferences":{}},"methodIdentifiers":{"UPGRADE_INTERFACE_VERSION()":"ad3cb1cc","claimICA()":"5601b46e","createICAController(address,uint64,(uint8,uint8,(string,string),string[],string))":"50d5674a","getBeacon()":"2d6b3a6b","getClaimableICAControllers()":"65705bb8","getFee()":"ced72f87","getICAControllers(address)":"c61d31d6","getOwnedICAControllers()":"cba30034","getReceiver()":"98aca922","getVersion()":"0d8e6e2c","initialize(address,uint256,address)":"c350a1b5","isAdmin(address)":"24d7806c","moveToClaimableICAControllers(address[])":"b0ebaff3","owner()":"8da5cb5b","proxiableUUID()":"52d1902d","renounceOwnership()":"715018a6","returnICA(address)":"779b278d","sendICAMessages(address,bytes)":"3183ea31","setAdmins(address[])":"accc1d5e","setFee(uint256)":"69fe0e2d","setReceiver(address)":"718da7ee","transferOwnership(address)":"f2fde38b","upgradeToAndCall(address,bytes)":"4f1ef286"},"id":46}