{"abi":[{"type":"function","name":"computeAddress","inputs":[{"name":"_salt","type":"bytes32","internalType":"bytes32"},{"name":"_creationCodeHash","type":"bytes32","internalType":"bytes32"}],"outputs":[{"name":"","type":"address","internalType":"address"}],"stateMutability":"view"},{"type":"function","name":"deploy","inputs":[{"name":"_salt","type":"bytes32","internalType":"bytes32"},{"name":"_creationCode","type":"bytes","internalType":"bytes"}],"outputs":[{"name":"","type":"address","internalType":"address"}],"stateMutability":"nonpayable"},{"type":"event","name":"Deployed","inputs":[{"name":"_addr","type":"address","indexed":true,"internalType":"address"},{"name":"_salt","type":"bytes32","indexed":false,"internalType":"bytes32"}],"anonymous":false}],"bytecode":{"object":"0x608080604052346015576101cc908161001a8239f35b5f80fdfe60806040526004361015610011575f80fd5b5f3560e01c8063481286e6146100345763cdcb760a1461002f575f80fd5b61008c565b346100745760403660031901126100745760043560243560c05260a0523060805260ff608b536055608b206040516001600160a01b039091168152602090f35b5f80fd5b634e487b7160e01b5f52604160045260245ffd5b346100745760403660031901126100745760043560243567ffffffffffffffff811161007457366023820112156100745780600401359167ffffffffffffffff83116101455760405190601f8401601f19908116603f0116820167ffffffffffffffff811183821017610145576040528382523660248585010111610074575f6020856101419660246101279701838701378401015261014a565b6040516001600160a01b0390911681529081906020820190565b0390f35b610078565b80916020815191015ff590813b15610074576040519081526001600160a01b038216907f94bfd9af14ef450884c8a7ddb5734e2e1e14e70a1c84f0801cc5a29e34d2642890602090a29056fea264697066735822122069ca08c4720babe16781cdbfd470105fecde0fc9f21ef6809e23546b7ef07ec264736f6c634300081c0033","linkReferences":{}},"methodIdentifiers":{"computeAddress(bytes32,bytes32)":"481286e6","deploy(bytes32,bytes)":"cdcb760a"},"storageLayout":{"storage":[],"types":{}},"id":116}